Component: ARM Compiler 5.06 update 4 (build 422) Tool: armlink [4d35d2]

==============================================================================

Section Cross References

    startup_stm32g473xx.o(STACK) refers (Special) to heapauxi.o(.text) for __use_two_region_memory
    startup_stm32g473xx.o(HEAP) refers (Special) to heapauxi.o(.text) for __use_two_region_memory
    startup_stm32g473xx.o(RESET) refers (Special) to heapauxi.o(.text) for __use_two_region_memory
    startup_stm32g473xx.o(RESET) refers to startup_stm32g473xx.o(STACK) for __initial_sp
    startup_stm32g473xx.o(RESET) refers to startup_stm32g473xx.o(.text) for Reset_Handler
    startup_stm32g473xx.o(RESET) refers to stm32g4xx_it.o(i.NMI_Handler) for NMI_Handler
    startup_stm32g473xx.o(RESET) refers to stm32g4xx_it.o(i.HardFault_Handler) for HardFault_Handler
    startup_stm32g473xx.o(RESET) refers to stm32g4xx_it.o(i.MemManage_Handler) for MemManage_Handler
    startup_stm32g473xx.o(RESET) refers to stm32g4xx_it.o(i.BusFault_Handler) for BusFault_Handler
    startup_stm32g473xx.o(RESET) refers to stm32g4xx_it.o(i.UsageFault_Handler) for UsageFault_Handler
    startup_stm32g473xx.o(RESET) refers to stm32g4xx_it.o(i.SVC_Handler) for SVC_Handler
    startup_stm32g473xx.o(RESET) refers to stm32g4xx_it.o(i.DebugMon_Handler) for DebugMon_Handler
    startup_stm32g473xx.o(RESET) refers to stm32g4xx_it.o(i.PendSV_Handler) for PendSV_Handler
    startup_stm32g473xx.o(RESET) refers to stm32g4xx_it.o(i.SysTick_Handler) for SysTick_Handler
    startup_stm32g473xx.o(RESET) refers to stm32g4xx_it.o(i.DMA1_Channel1_IRQHandler) for DMA1_Channel1_IRQHandler
    startup_stm32g473xx.o(RESET) refers to stm32g4xx_it.o(i.DMA1_Channel2_IRQHandler) for DMA1_Channel2_IRQHandler
    startup_stm32g473xx.o(RESET) refers to stm32g4xx_it.o(i.DMA1_Channel3_IRQHandler) for DMA1_Channel3_IRQHandler
    startup_stm32g473xx.o(RESET) refers to stm32g4xx_it.o(i.ADC1_2_IRQHandler) for ADC1_2_IRQHandler
==============================================================================

Removing Unused input sections from the image.

    Removing main.o(.rev16_text), (4 bytes).
    Removing main.o(.revsh_text), (4 bytes).
    Removing main.o(.rrx_text), (6 bytes).
    Removing gpio.o(.rev16_text), (4 bytes).
    Removing gpio.o(.revsh_text), (4 bytes).
    Removing gpio.o(.rrx_text), (6 bytes).
    Removing adc.o(.rev16_text), (4 bytes).
    Removing adc.o(.revsh_text), (4 bytes).
    Removing adc.o(.rrx_text), (6 bytes).
    Removing adc.o(i.HAL_ADC_MspDeInit), (144 bytes).
    Removing dma.o(.rev16_text), (4 bytes).
    Removing dma.o(.revsh_text), (4 bytes).
    Removing dma.o(.rrx_text), (6 bytes).
    Removing tim.o(.rev16_text), (4 bytes).
    Removing tim.o(.revsh_text), (4 bytes).
    Removing tim.o(.rrx_text), (6 bytes).
    Removing tim.o(i.HAL_TIMEx_HallSensor_MspDeInit), (52 bytes).
    Removing tim.o(i.HAL_TIM_Base_MspDeInit), (36 bytes).
==============================================================================

Image Symbol Table

    Local Symbols

    Symbol Name                              Value     Ov Type        Size  Object(Section)

    ../Core/Src/adc.c                        0x00000000   Number         0  adc.o ABSOLUTE
    ../Core/Src/dma.c                        0x00000000   Number         0  dma.o ABSOLUTE
    ../Core/Src/gpio.c                       0x00000000   Number         0  gpio.o ABSOLUTE
    ../Core/Src/main.c                       0x00000000   Number         0  main.o ABSOLUTE
    ../Core/Src/stm32g4xx_hal_msp.c          0x00000000   Number         0  stm32g4xx_hal_msp.o ABSOLUTE
    ../Core/Src/stm32g4xx_it.c               0x00000000   Number         0  stm32g4xx_it.o ABSOLUTE
    ../Core/Src/system_stm32g4xx.c           0x00000000   Number         0  system_stm32g4xx.o ABSOLUTE
    ../Core/Src/tim.c                        0x00000000   Number         0  tim.o ABSOLUTE
    ../Core/Src/usart.c                      0x00000000   Number         0  usart.o ABSOLUTE
    ../Core/Src/usb.c                        0x00000000   Number         0  usb.o ABSOLUTE
    ../Drivers/STM32G4xx_HAL_Driver/Src/stm32g4xx_hal.c 0x00000000   Number         0  stm32g4xx_hal.o ABSOLUTE
    ../Drivers/STM32G4xx_HAL_Driver/Src/stm32g4xx_hal_adc.c 0x00000000   Number         0  stm32g4xx_hal_adc.o ABSOLUTE
    ../Drivers/STM32G4xx_HAL_Driver/Src/stm32g4xx_hal_adc_ex.c 0x00000000   Number         0  stm32g4xx_hal_adc_ex.o ABSOLUTE
    ../Drivers/STM32G4xx_HAL_Driver/Src/stm32g4xx_hal_cortex.c 0x00000000   Number         0  stm32g4xx_hal_cortex.o ABSOLUTE
    ../Drivers/STM32G4xx_HAL_Driver/Src/stm32g4xx_hal_dma.c 0x00000000   Number         0  stm32g4xx_hal_dma.o ABSOLUTE
    ../Drivers/STM32G4xx_HAL_Driver/Src/stm32g4xx_hal_dma_ex.c 0x00000000   Number         0  stm32g4xx_hal_dma_ex.o ABSOLUTE
    ../Drivers/STM32G4xx_HAL_Driver/Src/stm32g4xx_hal_exti.c 0x00000000   Number         0  stm32g4xx_hal_exti.o ABSOLUTE
    ../Drivers/STM32G4xx_HAL_Driver/Src/stm32g4xx_hal_flash.c 0x00000000   Number         0  stm32g4xx_hal_flash.o ABSOLUTE
    ../Drivers/STM32G4xx_HAL_Driver/Src/stm32g4xx_hal_flash_ex.c 0x00000000   Number         0  stm32g4xx_hal_flash_ex.o ABSOLUTE
    ../Drivers/STM32G4xx_HAL_Driver/Src/stm32g4xx_hal_flash_ramfunc.c 0x00000000   Number         0  stm32g4xx_hal_flash_ramfunc.o ABSOLUTE
    ../Drivers/STM32G4xx_HAL_Driver/Src/stm32g4xx_hal_gpio.c 0x00000000   Number         0  stm32g4xx_hal_gpio.o ABSOLUTE
    ../Drivers/STM32G4xx_HAL_Driver/Src/stm32g4xx_hal_pcd.c 0x00000000   Number         0  stm32g4xx_hal_pcd.o ABSOLUTE
    ../Drivers/STM32G4xx_HAL_Driver/Src/stm32g4xx_hal_pcd_ex.c 0x00000000   Number         0  stm32g4xx_hal_pcd_ex.o ABSOLUTE
    ../Drivers/STM32G4xx_HAL_Driver/Src/stm32g4xx_hal_pwr.c 0x00000000   Number         0  stm32g4xx_hal_pwr.o ABSOLUTE
    ../Drivers/STM32G4xx_HAL_Driver/Src/stm32g4xx_hal_pwr_ex.c 0x00000000   Number         0  stm32g4xx_hal_pwr_ex.o ABSOLUTE
    ../Drivers/STM32G4xx_HAL_Driver/Src/stm32g4xx_hal_rcc.c 0x00000000   Number         0  stm32g4xx_hal_rcc.o ABSOLUTE
    ../Drivers/STM32G4xx_HAL_Driver/Src/stm32g4xx_hal_rcc_ex.c 0x00000000   Number         0  stm32g4xx_hal_rcc_ex.o ABSOLUTE
    ../Drivers/STM32G4xx_HAL_Driver/Src/stm32g4xx_hal_tim.c 0x00000000   Number         0  stm32g4xx_hal_tim.o ABSOLUTE
    ../Drivers/STM32G4xx_HAL_Driver/Src/stm32g4xx_hal_tim_ex.c 0x00000000   Number         0  stm32g4xx_hal_tim_ex.o ABSOLUTE
    ../Drivers/STM32G4xx_HAL_Driver/Src/stm32g4xx_hal_uart.c 0x00000000   Number         0  stm32g4xx_hal_uart.o ABSOLUTE
    ../Drivers/STM32G4xx_HAL_Driver/Src/stm32g4xx_hal_uart_ex.c 0x00000000   Number         0  stm32g4xx_hal_uart_ex.o ABSOLUTE
    ../Drivers/STM32G4xx_HAL_Driver/Src/stm32g4xx_ll_adc.c 0x00000000   Number         0  stm32g4xx_ll_adc.o ABSOLUTE
    ../Drivers/STM32G4xx_HAL_Driver/Src/stm32g4xx_ll_usb.c 0x00000000   Number         0  stm32g4xx_ll_usb.o ABSOLUTE
    ../clib/angel/boardlib.s                 0x00000000   Number         0  boardshut.o ABSOLUTE
    ../clib/angel/boardlib.s                 0x00000000   Number         0  boardinit2.o ABSOLUTE
    ../clib/angel/boardlib.s                 0x00000000   Number         0  boardinit1.o ABSOLUTE
    ../clib/angel/boardlib.s                 0x00000000   Number         0  boardinit3.o ABSOLUTE
    ../clib/angel/dczerorl2.s                0x00000000   Number         0  __dczerorl2.o ABSOLUTE
    ../clib/angel/handlers.s                 0x00000000   Number         0  __scatter_zi.o ABSOLUTE
    ../clib/angel/kernel.s                   0x00000000   Number         0  rtexit.o ABSOLUTE
    ../clib/angel/kernel.s                   0x00000000   Number         0  __rtentry4.o ABSOLUTE
    ../clib/angel/kernel.s                   0x00000000   Number         0  __rtentry2.o ABSOLUTE
    ../clib/angel/kernel.s                   0x00000000   Number         0  __rtentry.o ABSOLUTE
    ../clib/angel/kernel.s                   0x00000000   Number         0  rtexit2.o ABSOLUTE
    ../clib/angel/rt.s                       0x00000000   Number         0  rt_errno_addr.o ABSOLUTE
    ../clib/angel/rt.s                       0x00000000   Number         0  aeabi_ldiv0_sigfpe.o ABSOLUTE
    ../clib/angel/rt.s                       0x00000000   Number         0  rt_errno_addr_intlibspace.o ABSOLUTE
    ../clib/angel/rt.s                       0x00000000   Number         0  rt_locale_intlibspace.o ABSOLUTE
    ../clib/angel/rt.s                       0x00000000   Number         0  rt_ctype_table.o ABSOLUTE
    ../clib/angel/rt.s                       0x00000000   Number         0  rt_raise.o ABSOLUTE
    ../clib/angel/rt.s                       0x00000000   Number         0  aeabi_ldiv0.o ABSOLUTE
    ../clib/angel/rt.s                       0x00000000   Number         0  rt_div0.o ABSOLUTE
    ../clib/angel/rt.s                       0x00000000   Number         0  rt_locale.o ABSOLUTE
    ../clib/angel/scatter.s                  0x00000000   Number         0  __scatter.o ABSOLUTE
    ../clib/angel/startup.s                  0x00000000   Number         0  __main.o ABSOLUTE
    ../clib/angel/sys.s                      0x00000000   Number         0  sys_stackheap_outer.o ABSOLUTE
    ../clib/angel/sys.s                      0x00000000   Number         0  use_no_semi.o ABSOLUTE
    ../clib/angel/sys.s                      0x00000000   Number         0  libspace.o ABSOLUTE
    ../clib/angel/sys.s                      0x00000000   Number         0  use_no_semi_2.o ABSOLUTE
    ../clib/armsys.c                         0x00000000   Number         0  no_argv.o ABSOLUTE
    ../clib/armsys.c                         0x00000000   Number         0  _get_argv_nomalloc.o ABSOLUTE
    ../clib/armsys.c                         0x00000000   Number         0  argv_veneer.o ABSOLUTE
    ../clib/armsys.c                         0x00000000   Number         0  argv_veneer.o ABSOLUTE
    ../clib/bigflt.c                         0x00000000   Number         0  bigflt0.o ABSOLUTE
    ../clib/btod.s                           0x00000000   Number         0  btod.o ABSOLUTE
    ../clib/fenv.c                           0x00000000   Number         0  _rserrno.o ABSOLUTE
    ../clib/heapalloc.c                      0x00000000   Number         0  hrguard.o ABSOLUTE
    ../clib/heapaux.c                        0x00000000   Number         0  heapauxi.o ABSOLUTE
    ../clib/libinit.s                        0x00000000   Number         0  libinit.o ABSOLUTE
    ../clib/libinit.s                        0x00000000   Number         0  libshutdown2.o ABSOLUTE
    ../clib/libinit.s                        0x00000000   Number         0  libshutdown.o ABSOLUTE
    ../clib/libinit.s                        0x00000000   Number         0  libinit2.o ABSOLUTE
    ../clib/locale.c                         0x00000000   Number         0  _wcrtomb.o ABSOLUTE
    ../clib/locale.s                         0x00000000   Number         0  lc_numeric_c.o ABSOLUTE
    ../clib/locale.s                         0x00000000   Number         0  lc_ctype_c.o ABSOLUTE
    ../clib/longlong.s                       0x00000000   Number         0  lludiv10.o ABSOLUTE
    ../clib/longlong.s                       0x00000000   Number         0  lludivv7m.o ABSOLUTE
    ../clib/memcpset.s                       0x00000000   Number         0  rt_memclr_w.o ABSOLUTE
    ../clib/memcpset.s                       0x00000000   Number         0  rt_memcpy_w.o ABSOLUTE
    ../clib/memcpset.s                       0x00000000   Number         0  strcmpv7m.o ABSOLUTE
    ../clib/misc.s                           0x00000000   Number         0  printf_stubs.o ABSOLUTE
    ../clib/printf.c                         0x00000000   Number         0  _printf_fp_hex.o ABSOLUTE
    ../clib/printf.c                         0x00000000   Number         0  __printf_nopercent.o ABSOLUTE
    ../clib/printf.c                         0x00000000   Number         0  _printf_wchar.o ABSOLUTE
    ../clib/printf.c                         0x00000000   Number         0  _printf_hex_int_ll_ptr.o ABSOLUTE
    ../clib/printf.c                         0x00000000   Number         0  _printf_char.o ABSOLUTE
    ../clib/printf.c                         0x00000000   Number         0  _printf_pad.o ABSOLUTE
    ../clib/printf.c                         0x00000000   Number         0  _printf_truncate.o ABSOLUTE
    ../clib/printf.c                         0x00000000   Number         0  _printf_str.o ABSOLUTE
    ../clib/printf.c                         0x00000000   Number         0  _printf_intcommon.o ABSOLUTE
    ../clib/printf.c                         0x00000000   Number         0  _printf_charcount.o ABSOLUTE
    ../clib/printf.c                         0x00000000   Number         0  noretval__2printf.o ABSOLUTE
    ../clib/printf.c                         0x00000000   Number         0  __2printf.o ABSOLUTE
    ../clib/printf.c                         0x00000000   Number         0  vsprintf.o ABSOLUTE
    ../clib/printf.c                         0x00000000   Number         0  _printf_char_file.o ABSOLUTE
    ../clib/printf.c                         0x00000000   Number         0  _printf_fp_dec.o ABSOLUTE
    ../clib/printf.c                         0x00000000   Number         0  _printf_dec.o ABSOLUTE
    ../clib/printf.c                         0x00000000   Number         0  __printf_flags.o ABSOLUTE
    ../clib/printf.c                         0x00000000   Number         0  __printf_ss.o ABSOLUTE
    ../clib/printf.c                         0x00000000   Number         0  _printf_wctomb.o ABSOLUTE
    ../clib/printf.c                         0x00000000   Number         0  _printf_longlong_dec.o ABSOLUTE
    ../clib/printf.c                         0x00000000   Number         0  _printf_oct_ll.o ABSOLUTE
    ../clib/printf.c                         0x00000000   Number         0  _printf_oct_int.o ABSOLUTE
    ../clib/printf.c                         0x00000000   Number         0  _printf_oct_int_ll.o ABSOLUTE
    ../clib/printf.c                         0x00000000   Number         0  __printf_flags_ss.o ABSOLUTE
    ../clib/printf.c                         0x00000000   Number         0  _printf_fp_infnan.o ABSOLUTE
    ../clib/printf.c                         0x00000000   Number         0  _printf_hex_ll.o ABSOLUTE
    ../clib/printf.c                         0x00000000   Number         0  _printf_hex_int.o ABSOLUTE
    ../clib/printf.c                         0x00000000   Number         0  _printf_hex_int_ll.o ABSOLUTE
    ../clib/printf.c                         0x00000000   Number         0  _sputc.o ABSOLUTE
    ../clib/printf.c                         0x00000000   Number         0  _printf_hex_ll_ptr.o ABSOLUTE
    ../clib/printf.c                         0x00000000   Number         0  __printf_flags_wp.o ABSOLUTE
    ../clib/printf.c                         0x00000000   Number         0  _printf_hex_ptr.o ABSOLUTE
    ../clib/printf.c                         0x00000000   Number         0  __printf_wp.o ABSOLUTE
    ../clib/printf.c                         0x00000000   Number         0  __printf_ss_wp.o ABSOLUTE
    ../clib/printf.c                         0x00000000   Number         0  _printf_hex_int_ptr.o ABSOLUTE
    ../clib/printf.c                         0x00000000   Number         0  __printf_flags_ss_wp.o ABSOLUTE
    ../clib/printf.c                         0x00000000   Number         0  _printf_char_common.o ABSOLUTE
    ../clib/printf.c                         0x00000000   Number         0  __printf.o ABSOLUTE
    ../clib/printf_percent.s                 0x00000000   Number         0  _printf_x.o ABSOLUTE
    ../clib/printf_percent.s                 0x00000000   Number         0  _printf_n.o ABSOLUTE
    ../clib/printf_percent.s                 0x00000000   Number         0  _printf_s.o ABSOLUTE
    ../clib/printf_percent.s                 0x00000000   Number         0  _printf_c.o ABSOLUTE
    ../clib/printf_percent.s                 0x00000000   Number         0  _printf_l.o ABSOLUTE
    ../clib/printf_percent.s                 0x00000000   Number         0  _printf_ll.o ABSOLUTE
    ../clib/printf_percent.s                 0x00000000   Number         0  _printf_llu.o ABSOLUTE
    ../clib/printf_percent.s                 0x00000000   Number         0  _printf_lld.o ABSOLUTE
    ../clib/printf_percent.s                 0x00000000   Number         0  _printf_lli.o ABSOLUTE
    ../clib/printf_percent.s                 0x00000000   Number         0  _printf_percent_end.o ABSOLUTE
    ../clib/printf_percent.s                 0x00000000   Number         0  _printf_a.o ABSOLUTE
    ../clib/printf_percent.s                 0x00000000   Number         0  _printf_g.o ABSOLUTE
    ../clib/printf_percent.s                 0x00000000   Number         0  _printf_e.o ABSOLUTE
    ../clib/printf_percent.s                 0x00000000   Number         0  _printf_f.o ABSOLUTE
    ../clib/printf_percent.s                 0x00000000   Number         0  _printf_u.o ABSOLUTE
    ../clib/printf_percent.s                 0x00000000   Number         0  _printf_i.o ABSOLUTE
    ../clib/printf_percent.s                 0x00000000   Number         0  _printf_o.o ABSOLUTE
    ../clib/printf_percent.s                 0x00000000   Number         0  _printf_percent.o ABSOLUTE
    ../clib/printf_percent.s                 0x00000000   Number         0  _printf_d.o ABSOLUTE
    ../clib/printf_percent.s                 0x00000000   Number         0  _printf_p.o ABSOLUTE
    ../clib/printf_percent.s                 0x00000000   Number         0  _printf_llx.o ABSOLUTE
    ../clib/printf_percent.s                 0x00000000   Number         0  _printf_llo.o ABSOLUTE
    ../clib/printf_percent.s                 0x00000000   Number         0  _printf_ls.o ABSOLUTE
    ../clib/printf_percent.s                 0x00000000   Number         0  _printf_lc.o ABSOLUTE
    ../clib/signal.c                         0x00000000   Number         0  defsig_rtmem_inner.o ABSOLUTE
    ../clib/signal.c                         0x00000000   Number         0  defsig_rtmem_formal.o ABSOLUTE
    ../clib/signal.c                         0x00000000   Number         0  defsig_stak_inner.o ABSOLUTE
    ../clib/signal.c                         0x00000000   Number         0  defsig_pvfn_inner.o ABSOLUTE
    ../clib/signal.c                         0x00000000   Number         0  defsig_rtmem_outer.o ABSOLUTE
    ../clib/signal.c                         0x00000000   Number         0  defsig_cppl_inner.o ABSOLUTE
    ../clib/signal.c                         0x00000000   Number         0  defsig_segv_inner.o ABSOLUTE
    ../clib/signal.c                         0x00000000   Number         0  defsig_other.o ABSOLUTE
    ../clib/signal.c                         0x00000000   Number         0  defsig_fpe_formal.o ABSOLUTE
    ../clib/signal.c                         0x00000000   Number         0  defsig_general.o ABSOLUTE
    ../clib/signal.c                         0x00000000   Number         0  __raise.o ABSOLUTE
    ../clib/signal.c                         0x00000000   Number         0  defsig_fpe_outer.o ABSOLUTE
    ../clib/signal.c                         0x00000000   Number         0  defsig_fpe_inner.o ABSOLUTE
    ../clib/signal.c                         0x00000000   Number         0  defsig_exit.o ABSOLUTE
    ../clib/signal.c                         0x00000000   Number         0  defsig_rtred_inner.o ABSOLUTE
    ../clib/signal.c                         0x00000000   Number         0  defsig_abrt_inner.o ABSOLUTE
    ../clib/signal.s                         0x00000000   Number         0  defsig.o ABSOLUTE
    ../clib/stdio.c                          0x00000000   Number         0  ferror.o ABSOLUTE
    ../clib/stdio.c                          0x00000000   Number         0  ferror_locked.o ABSOLUTE
    ../clib/stdlib.c                         0x00000000   Number         0  exit.o ABSOLUTE
    ../clib/string.c                         0x00000000   Number         0  strlen.o ABSOLUTE
    ../fplib/ffixll.s                        0x00000000   Number         0  ffixll.o ABSOLUTE
    ../fplib/fnaninf.s                       0x00000000   Number         0  fnaninf.o ABSOLUTE
    ../fplib/fpinit.s                        0x00000000   Number         0  fpinit.o ABSOLUTE
    ../fplib/frem.s                          0x00000000   Number         0  frem_clz.o ABSOLUTE
    ../fplib/istatus.s                       0x00000000   Number         0  istatus.o ABSOLUTE
    ../fplib/printf1.s                       0x00000000   Number         0  printf1.o ABSOLUTE
    ../fplib/printf2.s                       0x00000000   Number         0  printf2.o ABSOLUTE
    ../fplib/printf2a.s                      0x00000000   Number         0  printf2a.o ABSOLUTE
    ../fplib/printf2b.s                      0x00000000   Number         0  printf2b.o ABSOLUTE
    ../fplib/usenofp.s                       0x00000000   Number         0  usenofp.o ABSOLUTE
    ../mathlib/fmodf.c                       0x00000000   Number         0  fmodf.o ABSOLUTE
    ../mathlib/fmodf.c                       0x00000000   Number         0  fmodf_x.o ABSOLUTE
    ../mathlib/fpclassify.c                  0x00000000   Number         0  fpclassify.o ABSOLUTE
    ../mathlib/funder.c                      0x00000000   Number         0  funder.o ABSOLUTE
    ..\Core\Src\adc.c                        0x00000000   Number         0  adc.o ABSOLUTE
    ..\Core\Src\dma.c                        0x00000000   Number         0  dma.o ABSOLUTE
    ..\Core\Src\gpio.c                       0x00000000   Number         0  gpio.o ABSOLUTE
    ..\Core\Src\main.c                       0x00000000   Number         0  main.o ABSOLUTE
    ..\Core\Src\stm32g4xx_hal_msp.c          0x00000000   Number         0  stm32g4xx_hal_msp.o ABSOLUTE
    ..\Core\Src\stm32g4xx_it.c               0x00000000   Number         0  stm32g4xx_it.o ABSOLUTE
    ..\Core\Src\system_stm32g4xx.c           0x00000000   Number         0  system_stm32g4xx.o ABSOLUTE
    ..\Core\Src\tim.c                        0x00000000   Number         0  tim.o ABSOLUTE
    ..\Core\Src\usart.c                      0x00000000   Number         0  usart.o ABSOLUTE
    ..\Core\Src\usb.c                        0x00000000   Number         0  usb.o ABSOLUTE
    ..\Drivers\STM32G4xx_HAL_Driver\Src\stm32g4xx_hal.c 0x00000000   Number         0  stm32g4xx_hal.o ABSOLUTE
    ..\Drivers\STM32G4xx_HAL_Driver\Src\stm32g4xx_hal_adc.c 0x00000000   Number         0  stm32g4xx_hal_adc.o ABSOLUTE
    ..\Drivers\STM32G4xx_HAL_Driver\Src\stm32g4xx_hal_adc_ex.c 0x00000000   Number         0  stm32g4xx_hal_adc_ex.o ABSOLUTE
    ..\Drivers\STM32G4xx_HAL_Driver\Src\stm32g4xx_hal_cortex.c 0x00000000   Number         0  stm32g4xx_hal_cortex.o ABSOLUTE
    ..\Drivers\STM32G4xx_HAL_Driver\Src\stm32g4xx_hal_dma.c 0x00000000   Number         0  stm32g4xx_hal_dma.o ABSOLUTE
    ..\Drivers\STM32G4xx_HAL_Driver\Src\stm32g4xx_hal_dma_ex.c 0x00000000   Number         0  stm32g4xx_hal_dma_ex.o ABSOLUTE
    ..\Drivers\STM32G4xx_HAL_Driver\Src\stm32g4xx_hal_exti.c 0x00000000   Number         0  stm32g4xx_hal_exti.o ABSOLUTE
    ..\Drivers\STM32G4xx_HAL_Driver\Src\stm32g4xx_hal_flash.c 0x00000000   Number         0  stm32g4xx_hal_flash.o ABSOLUTE
    ..\Drivers\STM32G4xx_HAL_Driver\Src\stm32g4xx_hal_flash_ex.c 0x00000000   Number         0  stm32g4xx_hal_flash_ex.o ABSOLUTE
    ..\Drivers\STM32G4xx_HAL_Driver\Src\stm32g4xx_hal_flash_ramfunc.c 0x00000000   Number         0  stm32g4xx_hal_flash_ramfunc.o ABSOLUTE
    ..\Drivers\STM32G4xx_HAL_Driver\Src\stm32g4xx_hal_gpio.c 0x00000000   Number         0  stm32g4xx_hal_gpio.o ABSOLUTE
    ..\Drivers\STM32G4xx_HAL_Driver\Src\stm32g4xx_hal_pcd.c 0x00000000   Number         0  stm32g4xx_hal_pcd.o ABSOLUTE
    ..\Drivers\STM32G4xx_HAL_Driver\Src\stm32g4xx_hal_pcd_ex.c 0x00000000   Number         0  stm32g4xx_hal_pcd_ex.o ABSOLUTE
    ..\Drivers\STM32G4xx_HAL_Driver\Src\stm32g4xx_hal_pwr.c 0x00000000   Number         0  stm32g4xx_hal_pwr.o ABSOLUTE
    ..\Drivers\STM32G4xx_HAL_Driver\Src\stm32g4xx_hal_pwr_ex.c 0x00000000   Number         0  stm32g4xx_hal_pwr_ex.o ABSOLUTE
    ..\Drivers\STM32G4xx_HAL_Driver\Src\stm32g4xx_hal_rcc.c 0x00000000   Number         0  stm32g4xx_hal_rcc.o ABSOLUTE
    ..\Drivers\STM32G4xx_HAL_Driver\Src\stm32g4xx_hal_rcc_ex.c 0x00000000   Number         0  stm32g4xx_hal_rcc_ex.o ABSOLUTE
    ..\Drivers\STM32G4xx_HAL_Driver\Src\stm32g4xx_hal_tim.c 0x00000000   Number         0  stm32g4xx_hal_tim.o ABSOLUTE
    ..\Drivers\STM32G4xx_HAL_Driver\Src\stm32g4xx_hal_tim_ex.c 0x00000000   Number         0  stm32g4xx_hal_tim_ex.o ABSOLUTE
    ..\Drivers\STM32G4xx_HAL_Driver\Src\stm32g4xx_hal_uart.c 0x00000000   Number         0  stm32g4xx_hal_uart.o ABSOLUTE
    ..\Drivers\STM32G4xx_HAL_Driver\Src\stm32g4xx_hal_uart_ex.c 0x00000000   Number         0  stm32g4xx_hal_uart_ex.o ABSOLUTE
    ..\Drivers\STM32G4xx_HAL_Driver\Src\stm32g4xx_ll_usb.c 0x00000000   Number         0  stm32g4xx_ll_usb.o ABSOLUTE
    arm_common_tables.c                      0x00000000   Number         0  arm_common_tables.o ABSOLUTE
    arm_cos_f32.c                            0x00000000   Number         0  arm_cos_f32.o ABSOLUTE
    arm_sin_f32.c                            0x00000000   Number         0  arm_sin_f32.o ABSOLUTE
    dc.s                                     0x00000000   Number         0  dc.o ABSOLUTE
    other_file\DEBUG\debug.c                 0x00000000   Number         0  debug.o ABSOLUTE
    other_file\\DEBUG\\debug.c               0x00000000   Number         0  debug.o ABSOLUTE
    other_file\\bsp\\bsp.c                   0x00000000   Number         0  bsp.o ABSOLUTE
    other_file\\bsp\\bsp_irq.c               0x00000000   Number         0  bsp_irq.o ABSOLUTE
    other_file\\bsp\\cc6920so\\cc6920so.c    0x00000000   Number         0  cc6920so.o ABSOLUTE
    other_file\\foc\\foc_app.c               0x00000000   Number         0  foc_app.o ABSOLUTE
    other_file\\foc\\foc_current.c           0x00000000   Number         0  foc_current.o ABSOLUTE
    other_file\\foc\\foc_encoder.c           0x00000000   Number         0  foc_encoder.o ABSOLUTE
    other_file\\foc\\foc_filter.c            0x00000000   Number         0  foc_filter.o ABSOLUTE
    other_file\\foc\\foc_hall.c              0x00000000   Number         0  foc_hall.o ABSOLUTE
    other_file\\foc\\foc_hfi.c               0x00000000   Number         0  foc_hfi.o ABSOLUTE
    other_file\\foc\\foc_math.c              0x00000000   Number         0  foc_math.o ABSOLUTE
    other_file\\foc\\foc_motor.c             0x00000000   Number         0  foc_motor.o ABSOLUTE
    other_file\\foc\\foc_pid.c               0x00000000   Number         0  foc_pid.o ABSOLUTE
    other_file\\foc\\foc_port.c              0x00000000   Number         0  foc_port.o ABSOLUTE
    other_file\\foc\\foc_pwm.c               0x00000000   Number         0  foc_pwm.o ABSOLUTE
    other_file\\foc\\foc_sensorless.c        0x00000000   Number         0  foc_sensorless.o ABSOLUTE
    other_file\\foc\\foc_smo.c               0x00000000   Number         0  foc_smo.o ABSOLUTE
    other_file\\foc\\foc_vf.c                0x00000000   Number         0  foc_vf.o ABSOLUTE
    other_file\\system_m4\\delay.c           0x00000000   Number         0  delay.o ABSOLUTE
    other_file\\system_m4\\my_usart.c        0x00000000   Number         0  my_usart.o ABSOLUTE
    other_file\\system_m4\\sys.c             0x00000000   Number         0  sys.o ABSOLUTE
    other_file\\usb\\STM32_USB_Device_Library\\Class\\CDC\\Src\\usbd_cdc.c 0x00000000   Number         0  usbd_cdc.o ABSOLUTE
    other_file\\usb\\STM32_USB_Device_Library\\Core\\Src\\usbd_core.c 0x00000000   Number         0  usbd_core.o ABSOLUTE
    other_file\\usb\\STM32_USB_Device_Library\\Core\\Src\\usbd_ctlreq.c 0x00000000   Number         0  usbd_ctlreq.o ABSOLUTE
    other_file\\usb\\STM32_USB_Device_Library\\Core\\Src\\usbd_ioreq.c 0x00000000   Number         0  usbd_ioreq.o ABSOLUTE
    other_file\\usb\\USB_APP\\usb_device.c   0x00000000   Number         0  usb_device.o ABSOLUTE
    other_file\\usb\\USB_APP\\usbd_cdc_if.c  0x00000000   Number         0  usbd_cdc_if.o ABSOLUTE
    other_file\\usb\\USB_APP\\usbd_conf.c    0x00000000   Number         0  usbd_conf.o ABSOLUTE
    other_file\\usb\\USB_APP\\usbd_desc.c    0x00000000   Number         0  usbd_desc.o ABSOLUTE
    other_file\bsp\bsp.c                     0x00000000   Number         0  bsp.o ABSOLUTE
    other_file\bsp\bsp_irq.c                 0x00000000   Number         0  bsp_irq.o ABSOLUTE
    other_file\bsp\cc6920so\cc6920so.c       0x00000000   Number         0  cc6920so.o ABSOLUTE
    other_file\foc\foc_app.c                 0x00000000   Number         0  foc_app.o ABSOLUTE
    other_file\foc\foc_current.c             0x00000000   Number         0  foc_current.o ABSOLUTE
    other_file\foc\foc_encoder.c             0x00000000   Number         0  foc_encoder.o ABSOLUTE
    other_file\foc\foc_filter.c              0x00000000   Number         0  foc_filter.o ABSOLUTE
    other_file\foc\foc_hall.c                0x00000000   Number         0  foc_hall.o ABSOLUTE
    other_file\foc\foc_hfi.c                 0x00000000   Number         0  foc_hfi.o ABSOLUTE
    other_file\foc\foc_math.c                0x00000000   Number         0  foc_math.o ABSOLUTE
    other_file\foc\foc_motor.c               0x00000000   Number         0  foc_motor.o ABSOLUTE
    other_file\foc\foc_pid.c                 0x00000000   Number         0  foc_pid.o ABSOLUTE
    other_file\foc\foc_port.c                0x00000000   Number         0  foc_port.o ABSOLUTE
    other_file\foc\foc_pwm.c                 0x00000000   Number         0  foc_pwm.o ABSOLUTE
    other_file\foc\foc_sensorless.c          0x00000000   Number         0  foc_sensorless.o ABSOLUTE
    other_file\foc\foc_smo.c                 0x00000000   Number         0  foc_smo.o ABSOLUTE
    other_file\foc\foc_vf.c                  0x00000000   Number         0  foc_vf.o ABSOLUTE
    other_file\system_m4\delay.c             0x00000000   Number         0  delay.o ABSOLUTE
    other_file\system_m4\my_usart.c          0x00000000   Number         0  my_usart.o ABSOLUTE
    other_file\system_m4\sys.c               0x00000000   Number         0  sys.o ABSOLUTE
    other_file\usb\STM32_USB_Device_Library\Class\CDC\Src\usbd_cdc.c 0x00000000   Number         0  usbd_cdc.o ABSOLUTE
    other_file\usb\STM32_USB_Device_Library\Core\Src\usbd_core.c 0x00000000   Number         0  usbd_core.o ABSOLUTE
    other_file\usb\STM32_USB_Device_Library\Core\Src\usbd_ctlreq.c 0x00000000   Number         0  usbd_ctlreq.o ABSOLUTE
    other_file\usb\STM32_USB_Device_Library\Core\Src\usbd_ioreq.c 0x00000000   Number         0  usbd_ioreq.o ABSOLUTE
    other_file\usb\USB_APP\usb_device.c      0x00000000   Number         0  usb_device.o ABSOLUTE
    other_file\usb\USB_APP\usbd_cdc_if.c     0x00000000   Number         0  usbd_cdc_if.o ABSOLUTE
    other_file\usb\USB_APP\usbd_conf.c       0x00000000   Number         0  usbd_conf.o ABSOLUTE
    other_file\usb\USB_APP\usbd_desc.c       0x00000000   Number         0  usbd_desc.o ABSOLUTE
    startup_stm32g473xx.s                    0x00000000   Number         0  startup_stm32g473xx.o ABSOLUTE
    RESET                                    0x08000000   Section      472  startup_stm32g473xx.o(RESET)
    !!!main                                  0x080001d8   Section        8  __main.o(!!!main)
    !!!scatter                               0x080001e0   Section       52  __scatter.o(!!!scatter)
    !!dczerorl2                              0x08000214   Section       90  __dczerorl2.o(!!dczerorl2)
    !!handler_zi                             0x08000270   Section       28  __scatter_zi.o(!!handler_zi)
    .ARM.Collect$$_printf_percent$$00000000  0x0800028c   Section        0  _printf_percent.o(.ARM.Collect$$_printf_percent$$00000000)
    .ARM.Collect$$_printf_percent$$00000009  0x0800028c   Section        6  _printf_d.o(.ARM.Collect$$_printf_percent$$00000009)
    .ARM.Collect$$_printf_percent$$00000017  0x08000292   Section        4  _printf_percent_end.o(.ARM.Collect$$_printf_percent$$00000017)
    .ARM.Collect$$libinit$$00000000          0x08000296   Section        2  libinit.o(.ARM.Collect$$libinit$$00000000)
    .ARM.Collect$$libinit$$00000001          0x08000298   Section        4  libinit2.o(.ARM.Collect$$libinit$$00000001)
    .ARM.Collect$$libinit$$00000004          0x0800029c   Section        0  libinit2.o(.ARM.Collect$$libinit$$00000004)
    .ARM.Collect$$libinit$$0000000A          0x0800029c   Section        0  libinit2.o(.ARM.Collect$$libinit$$0000000A)
    .ARM.Collect$$libinit$$0000000C          0x0800029c   Section        0  libinit2.o(.ARM.Collect$$libinit$$0000000C)
    .ARM.Collect$$libinit$$0000000E          0x0800029c   Section        0  libinit2.o(.ARM.Collect$$libinit$$0000000E)
    .ARM.Collect$$libinit$$00000011          0x0800029c   Section        0  libinit2.o(.ARM.Collect$$libinit$$00000011)
    .ARM.Collect$$libinit$$00000013          0x0800029c   Section        0  libinit2.o(.ARM.Collect$$libinit$$00000013)
    .ARM.Collect$$libinit$$00000015          0x0800029c   Section        0  libinit2.o(.ARM.Collect$$libinit$$00000015)
    .ARM.Collect$$libinit$$00000017          0x0800029c   Section        0  libinit2.o(.ARM.Collect$$libinit$$00000017)
    .ARM.Collect$$libinit$$00000019          0x0800029c   Section        0  libinit2.o(.ARM.Collect$$libinit$$00000019)
    .ARM.Collect$$libinit$$0000001B          0x0800029c   Section        0  libinit2.o(.ARM.Collect$$libinit$$0000001B)
    .ARM.Collect$$libinit$$0000001D          0x0800029c   Section        0  libinit2.o(.ARM.Collect$$libinit$$0000001D)
    .ARM.Collect$$libinit$$0000001F          0x0800029c   Section        0  libinit2.o(.ARM.Collect$$libinit$$0000001F)
    .ARM.Collect$$libinit$$00000021          0x0800029c   Section        0  libinit2.o(.ARM.Collect$$libinit$$00000021)
    .ARM.Collect$$libinit$$00000023          0x0800029c   Section        0  libinit2.o(.ARM.Collect$$libinit$$00000023)
    .ARM.Collect$$libinit$$00000025          0x0800029c   Section        0  libinit2.o(.ARM.Collect$$libinit$$00000025)
    .ARM.Collect$$libinit$$0000002C          0x0800029c   Section        0  libinit2.o(.ARM.Collect$$libinit$$0000002C)
    .ARM.Collect$$libinit$$0000002E          0x0800029c   Section        0  libinit2.o(.ARM.Collect$$libinit$$0000002E)
    .ARM.Collect$$libinit$$00000030          0x0800029c   Section        0  libinit2.o(.ARM.Collect$$libinit$$00000030)
    .ARM.Collect$$libinit$$00000032          0x0800029c   Section        0  libinit2.o(.ARM.Collect$$libinit$$00000032)
    .ARM.Collect$$libinit$$00000033          0x0800029c   Section        2  libinit2.o(.ARM.Collect$$libinit$$00000033)
    .ARM.Collect$$libshutdown$$00000000      0x0800029e   Section        2  libshutdown.o(.ARM.Collect$$libshutdown$$00000000)
    .ARM.Collect$$libshutdown$$00000002      0x080002a0   Section        0  libshutdown2.o(.ARM.Collect$$libshutdown$$00000002)
    .ARM.Collect$$libshutdown$$00000004      0x080002a0   Section        0  libshutdown2.o(.ARM.Collect$$libshutdown$$00000004)
    .ARM.Collect$$libshutdown$$00000007      0x080002a0   Section        0  libshutdown2.o(.ARM.Collect$$libshutdown$$00000007)
    .ARM.Collect$$libshutdown$$0000000A      0x080002a0   Section        0  libshutdown2.o(.ARM.Collect$$libshutdown$$0000000A)
    .ARM.Collect$$libshutdown$$0000000C      0x080002a0   Section        0  libshutdown2.o(.ARM.Collect$$libshutdown$$0000000C)
    .ARM.Collect$$libshutdown$$0000000F      0x080002a0   Section        0  libshutdown2.o(.ARM.Collect$$libshutdown$$0000000F)
    .ARM.Collect$$libshutdown$$00000010      0x080002a0   Section        2  libshutdown2.o(.ARM.Collect$$libshutdown$$00000010)
    .ARM.Collect$$rtentry$$00000000          0x080002a2   Section        0  __rtentry.o(.ARM.Collect$$rtentry$$00000000)
    .ARM.Collect$$rtentry$$00000002          0x080002a2   Section        0  __rtentry2.o(.ARM.Collect$$rtentry$$00000002)
    .ARM.Collect$$rtentry$$00000004          0x080002a2   Section        6  __rtentry4.o(.ARM.Collect$$rtentry$$00000004)
    .ARM.Collect$$rtentry$$00000009          0x080002a8   Section        0  __rtentry2.o(.ARM.Collect$$rtentry$$00000009)
    .ARM.Collect$$rtentry$$0000000A          0x080002a8   Section        4  __rtentry2.o(.ARM.Collect$$rtentry$$0000000A)
    .ARM.Collect$$rtentry$$0000000C          0x080002ac   Section        0  __rtentry2.o(.ARM.Collect$$rtentry$$0000000C)
    .ARM.Collect$$rtentry$$0000000D          0x080002ac   Section        8  __rtentry2.o(.ARM.Collect$$rtentry$$0000000D)
    .ARM.Collect$$rtexit$$00000000           0x080002b4   Section        2  rtexit.o(.ARM.Collect$$rtexit$$00000000)
    .ARM.Collect$$rtexit$$00000002           0x080002b6   Section        0  rtexit2.o(.ARM.Collect$$rtexit$$00000002)
    .ARM.Collect$$rtexit$$00000003           0x080002b6   Section        4  rtexit2.o(.ARM.Collect$$rtexit$$00000003)
    .ARM.Collect$$rtexit$$00000004           0x080002ba   Section        6  rtexit2.o(.ARM.Collect$$rtexit$$00000004)
    .text                                    0x080002c0   Section       60  startup_stm32g473xx.o(.text)
    $v0                                      0x080002c0   Number         0  startup_stm32g473xx.o(.text)
    .text                                    0x080002fc   Section        2  use_no_semi_2.o(.text)
    .text                                    0x080002fe   Section      238  lludivv7m.o(.text)
    .text                                    0x080003ec   Section        0  __2printf.o(.text)
    .text                                    0x08000404   Section        0  _printf_dec.o(.text)
    .text                                    0x0800047c   Section        0  __printf_flags_ss_wp.o(.text)
    .text                                    0x08000604   Section      100  rt_memcpy_w.o(.text)
    .text                                    0x08000668   Section       78  rt_memclr_w.o(.text)
    .text                                    0x080006b6   Section        0  heapauxi.o(.text)
    .text                                    0x080006bc   Section        2  use_no_semi.o(.text)
    .text                                    0x080006be   Section        0  _rserrno.o(.text)
    .text                                    0x080006d4   Section        0  _printf_intcommon.o(.text)
    .text                                    0x08000788   Section        0  _printf_char_common.o(.text)
    _printf_input_char                       0x08000789   Thumb Code    10  _printf_char_common.o(.text)
    .text                                    0x080007b8   Section        0  _printf_char_file.o(.text)
    .text                                    0x080007dc   Section        8  rt_errno_addr_intlibspace.o(.text)
    .text                                    0x080007e4   Section        0  ferror.o(.text)
    .text                                    0x080007ec   Section        8  libspace.o(.text)
    .text                                    0x080007f4   Section       74  sys_stackheap_outer.o(.text)
    .text                                    0x0800083e   Section        0  exit.o(.text)
    [Anonymous Symbol]                       0x08000850   Section        0  arm_cos_f32.o(.text.arm_cos_f32)
    [Anonymous Symbol]                       0x080008e8   Section        0  arm_sin_f32.o(.text.arm_sin_f32)
    i.ADC1_2_IRQHandler                      0x08000978   Section        0  stm32g4xx_it.o(i.ADC1_2_IRQHandler)
    i.ADC3_IRQHandler                        0x08000994   Section        0  stm32g4xx_it.o(i.ADC3_IRQHandler)
    i.ADC_Enable                             0x080009a0   Section        0  stm32g4xx_hal_adc.o(i.ADC_Enable)
    i.BSP_Init                               0x08000a64   Section        0  bsp.o(i.BSP_Init)
    i.BusFault_Handler                       0x08000aa4   Section        0  stm32g4xx_it.o(i.BusFault_Handler)
    i.CC6920SO_CalcCur                       0x08000aa8   Section        0  cc6920so.o(i.CC6920SO_CalcCur)
    i.CC6920SO_Init                          0x08000afc   Section        0  cc6920so.o(i.CC6920SO_Init)
    i.CDC_Control_FS                         0x08000b64   Section        0  usbd_cdc_if.o(i.CDC_Control_FS)
    CDC_Control_FS                           0x08000b65   Thumb Code    78  usbd_cdc_if.o(i.CDC_Control_FS)
    i.CDC_DeInit_FS                          0x08000bb8   Section        0  usbd_cdc_if.o(i.CDC_DeInit_FS)
    CDC_DeInit_FS                            0x08000bb9   Thumb Code     4  usbd_cdc_if.o(i.CDC_DeInit_FS)
    i.CDC_Init_FS                            0x08000bbc   Section        0  usbd_cdc_if.o(i.CDC_Init_FS)
    CDC_Init_FS                              0x08000bbd   Thumb Code    14  usbd_cdc_if.o(i.CDC_Init_FS)
    i.CDC_Receive_FS                         0x08000bd4   Section        0  usbd_cdc_if.o(i.CDC_Receive_FS)
    CDC_Receive_FS                           0x08000bd5   Thumb Code    24  usbd_cdc_if.o(i.CDC_Receive_FS)
    i.DMA1_Channel1_IRQHandler               0x08000bf0   Section        0  stm32g4xx_it.o(i.DMA1_Channel1_IRQHandler)
    i.DMA1_Channel2_IRQHandler               0x08000bfc   Section        0  stm32g4xx_it.o(i.DMA1_Channel2_IRQHandler)
    i.DMA1_Channel3_IRQHandler               0x08000c08   Section        0  stm32g4xx_it.o(i.DMA1_Channel3_IRQHandler)
    i.DMA_CalcDMAMUXChannelBaseAndMask       0x08000c14   Section        0  stm32g4xx_hal_dma.o(i.DMA_CalcDMAMUXChannelBaseAndMask)
    DMA_CalcDMAMUXChannelBaseAndMask         0x08000c15   Thumb Code    54  stm32g4xx_hal_dma.o(i.DMA_CalcDMAMUXChannelBaseAndMask)
    i.DMA_CalcDMAMUXRequestGenBaseAndMask    0x08000c54   Section        0  stm32g4xx_hal_dma.o(i.DMA_CalcDMAMUXRequestGenBaseAndMask)
    DMA_CalcDMAMUXRequestGenBaseAndMask      0x08000c55   Thumb Code    30  stm32g4xx_hal_dma.o(i.DMA_CalcDMAMUXRequestGenBaseAndMask)
    i.DebugMon_Handler                       0x08000c78   Section        0  stm32g4xx_it.o(i.DebugMon_Handler)
    i.Debug_Task                             0x08000c7c   Section        0  debug.o(i.Debug_Task)
    i.Error_Handler                          0x08000d5c   Section        0  main.o(i.Error_Handler)
    i.FOC_App_Run                            0x08000d60   Section        0  foc_app.o(i.FOC_App_Run)
    i.FOC_Clarke                             0x08000d8c   Section        0  foc_math.o(i.FOC_Clarke)
    i.FOC_Current_Calib                      0x08000da8   Section        0  foc_current.o(i.FOC_Current_Calib)
    i.FOC_ENC_Angle_Calc                     0x08000e94   Section        0  foc_encoder.o(i.FOC_ENC_Angle_Calc)
    i.FOC_ENC_IRQHandler                     0x08000ef0   Section        0  foc_encoder.o(i.FOC_ENC_IRQHandler)
    i.FOC_ENC_Init                           0x08000f2c   Section        0  foc_encoder.o(i.FOC_ENC_Init)
    i.FOC_ENC_Speed_Calc_M                   0x08000f40   Section        0  foc_encoder.o(i.FOC_ENC_Speed_Calc_M)
    i.FOC_Get_ENC_Count                      0x08000ff0   Section        0  foc_encoder.o(i.FOC_Get_ENC_Count)
    i.FOC_Get_ENC_Dir                        0x08000ffc   Section        0  foc_encoder.o(i.FOC_Get_ENC_Dir)
    i.FOC_HALL_Angle_Calc                    0x08001010   Section        0  foc_hall.o(i.FOC_HALL_Angle_Calc)
    i.FOC_HALL_CC_IRQ_Handler                0x080010b8   Section        0  foc_hall.o(i.FOC_HALL_CC_IRQ_Handler)
    i.FOC_HALL_Init                          0x0800123c   Section        0  foc_hall.o(i.FOC_HALL_Init)
    i.FOC_HFI_Angle_Calc                     0x08001378   Section        0  foc_hfi.o(i.FOC_HFI_Angle_Calc)
    i.FOC_HFI_Init                           0x0800142c   Section        0  foc_hfi.o(i.FOC_HFI_Init)
    i.FOC_HFI_Inject                         0x08001466   Section        0  foc_hfi.o(i.FOC_HFI_Inject)
    i.FOC_HFI_InjectPolIdent                 0x0800149c   Section        0  foc_hfi.o(i.FOC_HFI_InjectPolIdent)
    i.FOC_HFI_Speed_Calc                     0x0800156c   Section        0  foc_hfi.o(i.FOC_HFI_Speed_Calc)
    i.FOC_HFI_alphabeta_HF                   0x080015a8   Section        0  foc_hfi.o(i.FOC_HFI_alphabeta_HF)
    i.FOC_HFI_alphabeta_LF                   0x080015be   Section        0  foc_hfi.o(i.FOC_HFI_alphabeta_LF)
    i.FOC_Hall_Speed_Calc                    0x080015d4   Section        0  foc_hall.o(i.FOC_Hall_Speed_Calc)
    i.FOC_Init                               0x08001614   Section        0  foc_app.o(i.FOC_Init)
    i.FOC_Motor_Init                         0x0800176c   Section        0  foc_motor.o(i.FOC_Motor_Init)
    i.FOC_Motor_Run                          0x08001774   Section        0  foc_motor.o(i.FOC_Motor_Run)
    i.FOC_Motor_Speed_Calc                   0x0800183c   Section        0  foc_motor.o(i.FOC_Motor_Speed_Calc)
    i.FOC_Motor_Speed_Ctrl                   0x0800186c   Section        0  foc_motor.o(i.FOC_Motor_Speed_Ctrl)
    i.FOC_PWM_Init                           0x080018b8   Section        0  foc_pwm.o(i.FOC_PWM_Init)
    i.FOC_PWM_Run                            0x080018d8   Section        0  foc_pwm.o(i.FOC_PWM_Run)
    i.FOC_Port_Pwm_Start                     0x08001944   Section        0  foc_port.o(i.FOC_Port_Pwm_Start)
    i.FOC_Port_Pwm_Stop                      0x08001980   Section        0  foc_port.o(i.FOC_Port_Pwm_Stop)
    i.FOC_Port_Start                         0x080019bc   Section        0  foc_port.o(i.FOC_Port_Start)
    i.FOC_Rev_Clarke                         0x08001a08   Section        0  foc_math.o(i.FOC_Rev_Clarke)
    i.FOC_Rev_Park                           0x08001a34   Section        0  foc_math.o(i.FOC_Rev_Park)
    i.FOC_SL_HFI_SMO_SW                      0x08001a78   Section        0  foc_sensorless.o(i.FOC_SL_HFI_SMO_SW)
    i.FOC_SL_RUN                             0x08001b54   Section        0  foc_sensorless.o(i.FOC_SL_RUN)
    i.FOC_SMO_Angle_Calc                     0x08001cb8   Section        0  foc_smo.o(i.FOC_SMO_Angle_Calc)
    i.FOC_SMO_Init                           0x08001db4   Section        0  foc_smo.o(i.FOC_SMO_Init)
    i.FOC_SMO_Speed_Calc                     0x08001de8   Section        0  foc_smo.o(i.FOC_SMO_Speed_Calc)
    i.FOC_Sensorless_Init                    0x08001e5c   Section        0  foc_sensorless.o(i.FOC_Sensorless_Init)
    i.FOC_Sensorless_Speed_Cale              0x08001edc   Section        0  foc_sensorless.o(i.FOC_Sensorless_Speed_Cale)
    i.FOC_Start                              0x08001f1c   Section        0  foc_app.o(i.FOC_Start)
    i.FOC_VF_Angle_Calc                      0x08001f20   Section        0  foc_vf.o(i.FOC_VF_Angle_Calc)
    i.FOC_VF_Init                            0x08001f52   Section        0  foc_vf.o(i.FOC_VF_Init)
    i.FOC_VF_Speed_Calc                      0x08001f64   Section        0  foc_vf.o(i.FOC_VF_Speed_Calc)
    i.FOC_turnOn_LowSide                     0x08001fbc   Section        0  foc_current.o(i.FOC_turnOn_LowSide)
    i.Foc_Current_Refresh                    0x08001fd4   Section        0  foc_port.o(i.Foc_Current_Refresh)
    i.Foc_Park                               0x08002074   Section        0  foc_math.o(i.Foc_Park)
    i.HAL_ADCEx_EndOfSamplingCallback        0x080020b8   Section        0  stm32g4xx_hal_adc_ex.o(i.HAL_ADCEx_EndOfSamplingCallback)
    i.HAL_ADCEx_InjectedConfigChannel        0x080020bc   Section        0  stm32g4xx_hal_adc_ex.o(i.HAL_ADCEx_InjectedConfigChannel)
    i.HAL_ADCEx_InjectedConvCpltCallback     0x0800261c   Section        0  bsp_irq.o(i.HAL_ADCEx_InjectedConvCpltCallback)
    i.HAL_ADCEx_InjectedGetValue             0x0800266c   Section        0  stm32g4xx_hal_adc_ex.o(i.HAL_ADCEx_InjectedGetValue)
    i.HAL_ADCEx_InjectedQueueOverflowCallback 0x0800269a   Section        0  stm32g4xx_hal_adc_ex.o(i.HAL_ADCEx_InjectedQueueOverflowCallback)
    i.HAL_ADCEx_InjectedStart_IT             0x0800269c   Section        0  stm32g4xx_hal_adc_ex.o(i.HAL_ADCEx_InjectedStart_IT)
    i.HAL_ADCEx_LevelOutOfWindow2Callback    0x080027f4   Section        0  stm32g4xx_hal_adc_ex.o(i.HAL_ADCEx_LevelOutOfWindow2Callback)
    i.HAL_ADCEx_LevelOutOfWindow3Callback    0x080027f6   Section        0  stm32g4xx_hal_adc_ex.o(i.HAL_ADCEx_LevelOutOfWindow3Callback)
    i.HAL_ADCEx_MultiModeConfigChannel       0x080027f8   Section        0  stm32g4xx_hal_adc_ex.o(i.HAL_ADCEx_MultiModeConfigChannel)
    i.HAL_ADC_ConfigChannel                  0x08002958   Section        0  stm32g4xx_hal_adc.o(i.HAL_ADC_ConfigChannel)
    i.HAL_ADC_ConvCpltCallback               0x08002dc4   Section        0  stm32g4xx_hal_adc.o(i.HAL_ADC_ConvCpltCallback)
    i.HAL_ADC_ErrorCallback                  0x08002dc6   Section        0  stm32g4xx_hal_adc.o(i.HAL_ADC_ErrorCallback)
    i.HAL_ADC_IRQHandler                     0x08002dc8   Section        0  stm32g4xx_hal_adc.o(i.HAL_ADC_IRQHandler)
    i.HAL_ADC_Init                           0x08003080   Section        0  stm32g4xx_hal_adc.o(i.HAL_ADC_Init)
    i.HAL_ADC_LevelOutOfWindowCallback       0x080032b0   Section        0  stm32g4xx_hal_adc.o(i.HAL_ADC_LevelOutOfWindowCallback)
    i.HAL_ADC_MspInit                        0x080032b4   Section        0  adc.o(i.HAL_ADC_MspInit)
    i.HAL_DMA_IRQHandler                     0x0800349c   Section        0  stm32g4xx_hal_dma.o(i.HAL_DMA_IRQHandler)
    i.HAL_DMA_Init                           0x08003558   Section        0  stm32g4xx_hal_dma.o(i.HAL_DMA_Init)
    i.HAL_GPIO_Init                          0x08003618   Section        0  stm32g4xx_hal_gpio.o(i.HAL_GPIO_Init)
    i.HAL_GPIO_ReadPin                       0x08003860   Section        0  stm32g4xx_hal_gpio.o(i.HAL_GPIO_ReadPin)
    i.HAL_GPIO_TogglePin                     0x0800386a   Section        0  stm32g4xx_hal_gpio.o(i.HAL_GPIO_TogglePin)
    i.HAL_GPIO_WritePin                      0x0800387a   Section        0  stm32g4xx_hal_gpio.o(i.HAL_GPIO_WritePin)
    i.HAL_GetTick                            0x08003884   Section        0  stm32g4xx_hal.o(i.HAL_GetTick)
    i.HAL_IncTick                            0x08003890   Section        0  stm32g4xx_hal.o(i.HAL_IncTick)
    i.HAL_Init                               0x080038a0   Section        0  stm32g4xx_hal.o(i.HAL_Init)
    i.HAL_InitTick                           0x080038c0   Section        0  stm32g4xx_hal.o(i.HAL_InitTick)
    i.HAL_MspInit                            0x08003904   Section        0  stm32g4xx_hal_msp.o(i.HAL_MspInit)
    i.HAL_NVIC_EnableIRQ                     0x08003940   Section        0  stm32g4xx_hal_cortex.o(i.HAL_NVIC_EnableIRQ)
    i.HAL_NVIC_SetPriority                   0x0800395c   Section        0  stm32g4xx_hal_cortex.o(i.HAL_NVIC_SetPriority)
    i.HAL_NVIC_SetPriorityGrouping           0x0800399c   Section        0  stm32g4xx_hal_cortex.o(i.HAL_NVIC_SetPriorityGrouping)
    i.HAL_PCDEx_ActivateLPM                  0x080039c0   Section        0  stm32g4xx_hal_pcd_ex.o(i.HAL_PCDEx_ActivateLPM)
    i.HAL_PCDEx_LPM_Callback                 0x080039e4   Section        0  stm32g4xx_hal_pcd_ex.o(i.HAL_PCDEx_LPM_Callback)
    i.HAL_PCDEx_PMAConfig                    0x080039e6   Section        0  stm32g4xx_hal_pcd_ex.o(i.HAL_PCDEx_PMAConfig)
    i.HAL_PCD_DataInStageCallback            0x08003a22   Section        0  usbd_conf.o(i.HAL_PCD_DataInStageCallback)
    i.HAL_PCD_DataOutStageCallback           0x08003a34   Section        0  usbd_conf.o(i.HAL_PCD_DataOutStageCallback)
    i.HAL_PCD_EP_Close                       0x08003a48   Section        0  stm32g4xx_hal_pcd.o(i.HAL_PCD_EP_Close)
    i.HAL_PCD_EP_ClrStall                    0x08003a92   Section        0  stm32g4xx_hal_pcd.o(i.HAL_PCD_EP_ClrStall)
    i.HAL_PCD_EP_DB_Receive                  0x08003aec   Section        0  stm32g4xx_hal_pcd.o(i.HAL_PCD_EP_DB_Receive)
    HAL_PCD_EP_DB_Receive                    0x08003aed   Thumb Code   220  stm32g4xx_hal_pcd.o(i.HAL_PCD_EP_DB_Receive)
    i.HAL_PCD_EP_DB_Transmit                 0x08003bc8   Section        0  stm32g4xx_hal_pcd.o(i.HAL_PCD_EP_DB_Transmit)
    HAL_PCD_EP_DB_Transmit                   0x08003bc9   Thumb Code   832  stm32g4xx_hal_pcd.o(i.HAL_PCD_EP_DB_Transmit)
    i.HAL_PCD_EP_GetRxCount                  0x08003f08   Section        0  stm32g4xx_hal_pcd.o(i.HAL_PCD_EP_GetRxCount)
    i.HAL_PCD_EP_Open                        0x08003f1a   Section        0  stm32g4xx_hal_pcd.o(i.HAL_PCD_EP_Open)
    i.HAL_PCD_EP_Receive                     0x08003f72   Section        0  stm32g4xx_hal_pcd.o(i.HAL_PCD_EP_Receive)
    i.HAL_PCD_EP_SetStall                    0x08003fa0   Section        0  stm32g4xx_hal_pcd.o(i.HAL_PCD_EP_SetStall)
    i.HAL_PCD_EP_Transmit                    0x08003ffe   Section        0  stm32g4xx_hal_pcd.o(i.HAL_PCD_EP_Transmit)
    i.HAL_PCD_IRQHandler                     0x0800402c   Section        0  stm32g4xx_hal_pcd.o(i.HAL_PCD_IRQHandler)
    i.HAL_PCD_Init                           0x08004178   Section        0  stm32g4xx_hal_pcd.o(i.HAL_PCD_Init)
    i.HAL_PCD_MspInit                        0x08004214   Section        0  usb.o(i.HAL_PCD_MspInit)
    i.HAL_PCD_ResetCallback                  0x0800426c   Section        0  usbd_conf.o(i.HAL_PCD_ResetCallback)
    i.HAL_PCD_ResumeCallback                 0x080042d0   Section        0  usbd_conf.o(i.HAL_PCD_ResumeCallback)
    i.HAL_PCD_SOFCallback                    0x08004310   Section        0  usbd_conf.o(i.HAL_PCD_SOFCallback)
    i.HAL_PCD_SetAddress                     0x08004318   Section        0  stm32g4xx_hal_pcd.o(i.HAL_PCD_SetAddress)
    i.HAL_PCD_SetupStageCallback             0x0800433e   Section        0  usbd_conf.o(i.HAL_PCD_SetupStageCallback)
    i.HAL_PCD_Start                          0x0800434c   Section        0  stm32g4xx_hal_pcd.o(i.HAL_PCD_Start)
    i.HAL_PCD_SuspendCallback                0x08004378   Section        0  usbd_conf.o(i.HAL_PCD_SuspendCallback)
    i.HAL_PWREx_ControlVoltageScaling        0x080043c8   Section        0  stm32g4xx_hal_pwr_ex.o(i.HAL_PWREx_ControlVoltageScaling)
    i.HAL_PWREx_DisableUCPDDeadBattery       0x08004484   Section        0  stm32g4xx_hal_pwr_ex.o(i.HAL_PWREx_DisableUCPDDeadBattery)
    i.HAL_RCCEx_CRSConfig                    0x08004494   Section        0  stm32g4xx_hal_rcc_ex.o(i.HAL_RCCEx_CRSConfig)
    i.HAL_RCCEx_PeriphCLKConfig              0x080044e0   Section        0  stm32g4xx_hal_rcc_ex.o(i.HAL_RCCEx_PeriphCLKConfig)
    i.HAL_RCC_ClockConfig                    0x080047e0   Section        0  stm32g4xx_hal_rcc.o(i.HAL_RCC_ClockConfig)
    i.HAL_RCC_GetPCLK1Freq                   0x080049bc   Section        0  stm32g4xx_hal_rcc.o(i.HAL_RCC_GetPCLK1Freq)
    i.HAL_RCC_GetPCLK2Freq                   0x080049e0   Section        0  stm32g4xx_hal_rcc.o(i.HAL_RCC_GetPCLK2Freq)
    i.HAL_RCC_GetSysClockFreq                0x08004a04   Section        0  stm32g4xx_hal_rcc.o(i.HAL_RCC_GetSysClockFreq)
    i.HAL_RCC_OscConfig                      0x08004a74   Section        0  stm32g4xx_hal_rcc.o(i.HAL_RCC_OscConfig)
    i.HAL_SYSCFG_DisableVREFBUF              0x08004e78   Section        0  stm32g4xx_hal.o(i.HAL_SYSCFG_DisableVREFBUF)
    i.HAL_SYSCFG_VREFBUF_HighImpedanceConfig 0x08004e88   Section        0  stm32g4xx_hal.o(i.HAL_SYSCFG_VREFBUF_HighImpedanceConfig)
    i.HAL_SYSTICK_CLKSourceConfig            0x08004e9c   Section        0  stm32g4xx_hal_cortex.o(i.HAL_SYSTICK_CLKSourceConfig)
    i.HAL_SYSTICK_Config                     0x08004eb4   Section        0  stm32g4xx_hal_cortex.o(i.HAL_SYSTICK_Config)
    i.HAL_TIMEx_Break2Callback               0x08004edc   Section        0  stm32g4xx_hal_tim_ex.o(i.HAL_TIMEx_Break2Callback)
    i.HAL_TIMEx_BreakCallback                0x08004ede   Section        0  stm32g4xx_hal_tim_ex.o(i.HAL_TIMEx_BreakCallback)
    i.HAL_TIMEx_CommutCallback               0x08004ee0   Section        0  stm32g4xx_hal_tim_ex.o(i.HAL_TIMEx_CommutCallback)
    i.HAL_TIMEx_ConfigBreakDeadTime          0x08004ee4   Section        0  stm32g4xx_hal_tim_ex.o(i.HAL_TIMEx_ConfigBreakDeadTime)
    i.HAL_TIMEx_DirectionChangeCallback      0x08004f8c   Section        0  stm32g4xx_hal_tim_ex.o(i.HAL_TIMEx_DirectionChangeCallback)
    i.HAL_TIMEx_EncoderIndexCallback         0x08004f8e   Section        0  stm32g4xx_hal_tim_ex.o(i.HAL_TIMEx_EncoderIndexCallback)
    i.HAL_TIMEx_HallSensor_Init              0x08004f90   Section        0  stm32g4xx_hal_tim_ex.o(i.HAL_TIMEx_HallSensor_Init)
    i.HAL_TIMEx_HallSensor_MspInit           0x0800506c   Section        0  tim.o(i.HAL_TIMEx_HallSensor_MspInit)
    i.HAL_TIMEx_HallSensor_Start_IT          0x080050dc   Section        0  stm32g4xx_hal_tim_ex.o(i.HAL_TIMEx_HallSensor_Start_IT)
    i.HAL_TIMEx_IndexErrorCallback           0x08005198   Section        0  stm32g4xx_hal_tim_ex.o(i.HAL_TIMEx_IndexErrorCallback)
    i.HAL_TIMEx_MasterConfigSynchronization  0x0800519c   Section        0  stm32g4xx_hal_tim_ex.o(i.HAL_TIMEx_MasterConfigSynchronization)
    i.HAL_TIMEx_PWMN_Start                   0x08005254   Section        0  stm32g4xx_hal_tim_ex.o(i.HAL_TIMEx_PWMN_Start)
    i.HAL_TIMEx_PWMN_Stop                    0x08005320   Section        0  stm32g4xx_hal_tim_ex.o(i.HAL_TIMEx_PWMN_Stop)
    i.HAL_TIMEx_TransitionErrorCallback      0x08005388   Section        0  stm32g4xx_hal_tim_ex.o(i.HAL_TIMEx_TransitionErrorCallback)
    i.HAL_TIM_Base_Init                      0x0800538a   Section        0  stm32g4xx_hal_tim.o(i.HAL_TIM_Base_Init)
    i.HAL_TIM_Base_MspInit                   0x080053ec   Section        0  tim.o(i.HAL_TIM_Base_MspInit)
    i.HAL_TIM_Base_Start_IT                  0x08005428   Section        0  stm32g4xx_hal_tim.o(i.HAL_TIM_Base_Start_IT)
    i.HAL_TIM_Encoder_Init                   0x080054b4   Section        0  stm32g4xx_hal_tim.o(i.HAL_TIM_Encoder_Init)
    i.HAL_TIM_Encoder_MspInit                0x0800555c   Section        0  tim.o(i.HAL_TIM_Encoder_MspInit)
    i.HAL_TIM_Encoder_Start                  0x080055bc   Section        0  stm32g4xx_hal_tim.o(i.HAL_TIM_Encoder_Start)
    i.HAL_TIM_IC_CaptureCallback             0x0800564c   Section        0  bsp_irq.o(i.HAL_TIM_IC_CaptureCallback)
    i.HAL_TIM_IC_ConfigChannel               0x08005680   Section        0  stm32g4xx_hal_tim.o(i.HAL_TIM_IC_ConfigChannel)
    i.HAL_TIM_IC_Init                        0x080057a4   Section        0  stm32g4xx_hal_tim.o(i.HAL_TIM_IC_Init)
    i.HAL_TIM_IC_MspInit                     0x08005808   Section        0  tim.o(i.HAL_TIM_IC_MspInit)
    i.HAL_TIM_IC_Start_IT                    0x08005878   Section        0  stm32g4xx_hal_tim.o(i.HAL_TIM_IC_Start_IT)
    i.HAL_TIM_IRQHandler                     0x080059b8   Section        0  stm32g4xx_hal_tim.o(i.HAL_TIM_IRQHandler)
    i.HAL_TIM_MspPostInit                    0x08005b5c   Section        0  tim.o(i.HAL_TIM_MspPostInit)
    i.HAL_TIM_OC_DelayElapsedCallback        0x08005bf0   Section        0  bsp_irq.o(i.HAL_TIM_OC_DelayElapsedCallback)
    i.HAL_TIM_OC_Start_IT                    0x08005bf4   Section        0  stm32g4xx_hal_tim.o(i.HAL_TIM_OC_Start_IT)
    i.HAL_TIM_OC_Stop_IT                     0x08005d34   Section        0  stm32g4xx_hal_tim.o(i.HAL_TIM_OC_Stop_IT)
    i.HAL_TIM_PWM_ConfigChannel              0x08005e2c   Section        0  stm32g4xx_hal_tim.o(i.HAL_TIM_PWM_ConfigChannel)
    i.HAL_TIM_PWM_Init                       0x08005f50   Section        0  stm32g4xx_hal_tim.o(i.HAL_TIM_PWM_Init)
    i.HAL_TIM_PWM_MspInit                    0x08005fb4   Section        0  tim.o(i.HAL_TIM_PWM_MspInit)
    i.HAL_TIM_PWM_PulseFinishedCallback      0x08005ff0   Section        0  stm32g4xx_hal_tim.o(i.HAL_TIM_PWM_PulseFinishedCallback)
    i.HAL_TIM_PWM_Start                      0x08005ff4   Section        0  stm32g4xx_hal_tim.o(i.HAL_TIM_PWM_Start)
    i.HAL_TIM_PWM_Stop                       0x08006108   Section        0  stm32g4xx_hal_tim.o(i.HAL_TIM_PWM_Stop)
    i.HAL_TIM_PeriodElapsedCallback          0x080061c0   Section        0  bsp_irq.o(i.HAL_TIM_PeriodElapsedCallback)
    i.HAL_TIM_TriggerCallback                0x080061f8   Section        0  stm32g4xx_hal_tim.o(i.HAL_TIM_TriggerCallback)
    i.HAL_UARTEx_DisableFifoMode             0x080061fa   Section        0  stm32g4xx_hal_uart_ex.o(i.HAL_UARTEx_DisableFifoMode)
    i.HAL_UARTEx_SetRxFifoThreshold          0x08006238   Section        0  stm32g4xx_hal_uart_ex.o(i.HAL_UARTEx_SetRxFifoThreshold)
    i.HAL_UARTEx_SetTxFifoThreshold          0x08006284   Section        0  stm32g4xx_hal_uart_ex.o(i.HAL_UARTEx_SetTxFifoThreshold)
    i.HAL_UART_Init                          0x080062d0   Section        0  stm32g4xx_hal_uart.o(i.HAL_UART_Init)
    i.HAL_UART_MspInit                       0x0800633c   Section        0  usart.o(i.HAL_UART_MspInit)
    i.HardFault_Handler                      0x080063b8   Section        0  stm32g4xx_it.o(i.HardFault_Handler)
    i.IntToUnicode                           0x080063bc   Section        0  usbd_desc.o(i.IntToUnicode)
    IntToUnicode                             0x080063bd   Thumb Code    56  usbd_desc.o(i.IntToUnicode)
    i.LL_ADC_GetOffsetChannel                0x080063f4   Section        0  stm32g4xx_hal_adc.o(i.LL_ADC_GetOffsetChannel)
    LL_ADC_GetOffsetChannel                  0x080063f5   Thumb Code    12  stm32g4xx_hal_adc.o(i.LL_ADC_GetOffsetChannel)
    i.LL_ADC_GetOffsetChannel                0x08006400   Section        0  stm32g4xx_hal_adc_ex.o(i.LL_ADC_GetOffsetChannel)
    LL_ADC_GetOffsetChannel                  0x08006401   Thumb Code    12  stm32g4xx_hal_adc_ex.o(i.LL_ADC_GetOffsetChannel)
    i.LL_ADC_INJ_IsConversionOngoing         0x0800640c   Section        0  stm32g4xx_hal_adc.o(i.LL_ADC_INJ_IsConversionOngoing)
    LL_ADC_INJ_IsConversionOngoing           0x0800640d   Thumb Code     8  stm32g4xx_hal_adc.o(i.LL_ADC_INJ_IsConversionOngoing)
    i.LL_ADC_INJ_IsConversionOngoing         0x08006414   Section        0  stm32g4xx_hal_adc_ex.o(i.LL_ADC_INJ_IsConversionOngoing)
    LL_ADC_INJ_IsConversionOngoing           0x08006415   Thumb Code     8  stm32g4xx_hal_adc_ex.o(i.LL_ADC_INJ_IsConversionOngoing)
    i.LL_ADC_REG_IsConversionOngoing         0x0800641c   Section        0  stm32g4xx_hal_adc.o(i.LL_ADC_REG_IsConversionOngoing)
    LL_ADC_REG_IsConversionOngoing           0x0800641d   Thumb Code     8  stm32g4xx_hal_adc.o(i.LL_ADC_REG_IsConversionOngoing)
    i.LL_ADC_REG_IsConversionOngoing         0x08006424   Section        0  stm32g4xx_hal_adc_ex.o(i.LL_ADC_REG_IsConversionOngoing)
    LL_ADC_REG_IsConversionOngoing           0x08006425   Thumb Code     8  stm32g4xx_hal_adc_ex.o(i.LL_ADC_REG_IsConversionOngoing)
    i.LL_ADC_REG_IsTriggerSourceSWStart      0x0800642c   Section        0  stm32g4xx_hal_adc.o(i.LL_ADC_REG_IsTriggerSourceSWStart)
    LL_ADC_REG_IsTriggerSourceSWStart        0x0800642d   Thumb Code    16  stm32g4xx_hal_adc.o(i.LL_ADC_REG_IsTriggerSourceSWStart)
    i.LL_ADC_SetChannelSamplingTime          0x0800643c   Section        0  stm32g4xx_hal_adc.o(i.LL_ADC_SetChannelSamplingTime)
    LL_ADC_SetChannelSamplingTime            0x0800643d   Thumb Code    30  stm32g4xx_hal_adc.o(i.LL_ADC_SetChannelSamplingTime)
    i.LL_ADC_SetChannelSamplingTime          0x0800645a   Section        0  stm32g4xx_hal_adc_ex.o(i.LL_ADC_SetChannelSamplingTime)
    LL_ADC_SetChannelSamplingTime            0x0800645b   Thumb Code    30  stm32g4xx_hal_adc_ex.o(i.LL_ADC_SetChannelSamplingTime)
    i.LL_ADC_SetOffsetState                  0x08006478   Section        0  stm32g4xx_hal_adc.o(i.LL_ADC_SetOffsetState)
    LL_ADC_SetOffsetState                    0x08006479   Thumb Code    16  stm32g4xx_hal_adc.o(i.LL_ADC_SetOffsetState)
    i.LL_ADC_SetOffsetState                  0x08006488   Section        0  stm32g4xx_hal_adc_ex.o(i.LL_ADC_SetOffsetState)
    LL_ADC_SetOffsetState                    0x08006489   Thumb Code    16  stm32g4xx_hal_adc_ex.o(i.LL_ADC_SetOffsetState)
    i.Limit_Angle                            0x08006498   Section        0  foc_math.o(i.Limit_Angle)
    i.MX_ADC1_Init                           0x080064c4   Section        0  adc.o(i.MX_ADC1_Init)
    i.MX_ADC2_Init                           0x080065a8   Section        0  adc.o(i.MX_ADC2_Init)
    i.MX_ADC3_Init                           0x08006670   Section        0  adc.o(i.MX_ADC3_Init)
    i.MX_DMA_Init                            0x08006758   Section        0  dma.o(i.MX_DMA_Init)
    i.MX_GPIO_Init                           0x080067b4   Section        0  gpio.o(i.MX_GPIO_Init)
    i.MX_TIM1_Init                           0x08006820   Section        0  tim.o(i.MX_TIM1_Init)
    i.MX_TIM2_Init                           0x0800692c   Section        0  tim.o(i.MX_TIM2_Init)
    i.MX_TIM3_Init                           0x08006998   Section        0  tim.o(i.MX_TIM3_Init)
    i.MX_TIM5_Init                           0x08006a08   Section        0  tim.o(i.MX_TIM5_Init)
    i.MX_TIM6_Init                           0x08006a64   Section        0  tim.o(i.MX_TIM6_Init)
    i.MX_USART1_UART_Init                    0x08006aac   Section        0  usart.o(i.MX_USART1_UART_Init)
    i.MX_USB_Device_Init                     0x08006b14   Section        0  usb_device.o(i.MX_USB_Device_Init)
    i.MX_USB_PCD_Init                        0x08006b50   Section        0  usb.o(i.MX_USB_PCD_Init)
    i.MemManage_Handler                      0x08006b88   Section        0  stm32g4xx_it.o(i.MemManage_Handler)
    i.Motor_ABZ_ENC_RUN                      0x08006b8a   Section        0  foc_motor.o(i.Motor_ABZ_ENC_RUN)
    i.Motor_HALL_RUN                         0x08006c66   Section        0  foc_motor.o(i.Motor_HALL_RUN)
    i.Motor_Run_Open                         0x08006d42   Section        0  foc_motor.o(i.Motor_Run_Open)
    i.Motor_SL_RUN                           0x08006dcc   Section        0  foc_motor.o(i.Motor_SL_RUN)
    i.Move_Filter_Clear                      0x08006f48   Section        0  foc_filter.o(i.Move_Filter_Clear)
    i.Move_Filter_Init                       0x08006f78   Section        0  foc_filter.o(i.Move_Filter_Init)
    i.Move_Filter_calculate                  0x08006f9c   Section        0  foc_filter.o(i.Move_Filter_calculate)
    i.Move_Filter_fill                       0x08006fdc   Section        0  foc_filter.o(i.Move_Filter_fill)
    i.NMI_Handler                            0x08007026   Section        0  stm32g4xx_it.o(i.NMI_Handler)
    i.PCD_EP_ISR_Handler                     0x08007028   Section        0  stm32g4xx_hal_pcd.o(i.PCD_EP_ISR_Handler)
    PCD_EP_ISR_Handler                       0x08007029   Thumb Code   918  stm32g4xx_hal_pcd.o(i.PCD_EP_ISR_Handler)
    i.PID_Clear                              0x080073c0   Section        0  foc_pid.o(i.PID_Clear)
    i.PID_Init                               0x080073fc   Section        0  foc_pid.o(i.PID_Init)
    i.PID_Position_ctrl                      0x08007428   Section        0  foc_pid.o(i.PID_Position_ctrl)
    i.PLL_Cale_HFI                           0x08007680   Section        0  foc_filter.o(i.PLL_Cale_HFI)
    i.PLL_Cale_SMO                           0x08007728   Section        0  foc_filter.o(i.PLL_Cale_SMO)
    i.PLL_Clear                              0x080077d4   Section        0  foc_filter.o(i.PLL_Clear)
    i.PLL_Init                               0x080077f8   Section        0  foc_filter.o(i.PLL_Init)
    i.PendSV_Handler                         0x08007804   Section        0  stm32g4xx_it.o(i.PendSV_Handler)
    i.SVC_Handler                            0x08007806   Section        0  stm32g4xx_it.o(i.SVC_Handler)
    i.SWAPBYTE                               0x08007808   Section        0  usbd_ctlreq.o(i.SWAPBYTE)
    SWAPBYTE                                 0x08007809   Thumb Code    10  usbd_ctlreq.o(i.SWAPBYTE)
    i.Sat                                    0x08007812   Section        0  foc_smo.o(i.Sat)
    Sat                                      0x08007813   Thumb Code    46  foc_smo.o(i.Sat)
    i.Sector_Judgment                        0x08007840   Section        0  foc_pwm.o(i.Sector_Judgment)
    Sector_Judgment                          0x08007841   Thumb Code   116  foc_pwm.o(i.Sector_Judgment)
    i.SysTick_Handler                        0x080078b8   Section        0  stm32g4xx_it.o(i.SysTick_Handler)
    i.SystemClock_Config                     0x080078e4   Section        0  main.o(i.SystemClock_Config)
    i.SystemInit                             0x08007954   Section        0  system_stm32g4xx.o(i.SystemInit)
    i.TIM1_UP_TIM16_IRQHandler               0x08007964   Section        0  stm32g4xx_it.o(i.TIM1_UP_TIM16_IRQHandler)
    i.TIM2_IRQHandler                        0x08007970   Section        0  stm32g4xx_it.o(i.TIM2_IRQHandler)
    i.TIM5_IRQHandler                        0x0800797c   Section        0  stm32g4xx_it.o(i.TIM5_IRQHandler)
    i.TIM6_DAC_IRQHandler                    0x08007988   Section        0  stm32g4xx_it.o(i.TIM6_DAC_IRQHandler)
    i.TIM_Base_SetConfig                     0x08007994   Section        0  stm32g4xx_hal_tim.o(i.TIM_Base_SetConfig)
    i.TIM_CCxChannelCmd                      0x08007a78   Section        0  stm32g4xx_hal_tim.o(i.TIM_CCxChannelCmd)
    i.TIM_CCxNChannelCmd                     0x08007a92   Section        0  stm32g4xx_hal_tim_ex.o(i.TIM_CCxNChannelCmd)
    TIM_CCxNChannelCmd                       0x08007a93   Thumb Code    26  stm32g4xx_hal_tim_ex.o(i.TIM_CCxNChannelCmd)
    i.TIM_OC1_SetConfig                      0x08007aac   Section        0  stm32g4xx_hal_tim.o(i.TIM_OC1_SetConfig)
    TIM_OC1_SetConfig                        0x08007aad   Thumb Code   144  stm32g4xx_hal_tim.o(i.TIM_OC1_SetConfig)
    i.TIM_OC2_SetConfig                      0x08007b58   Section        0  stm32g4xx_hal_tim.o(i.TIM_OC2_SetConfig)
    i.TIM_OC3_SetConfig                      0x08007bf8   Section        0  stm32g4xx_hal_tim.o(i.TIM_OC3_SetConfig)
    TIM_OC3_SetConfig                        0x08007bf9   Thumb Code   130  stm32g4xx_hal_tim.o(i.TIM_OC3_SetConfig)
    i.TIM_OC4_SetConfig                      0x08007c98   Section        0  stm32g4xx_hal_tim.o(i.TIM_OC4_SetConfig)
    TIM_OC4_SetConfig                        0x08007c99   Thumb Code   132  stm32g4xx_hal_tim.o(i.TIM_OC4_SetConfig)
    i.TIM_OC5_SetConfig                      0x08007d38   Section        0  stm32g4xx_hal_tim.o(i.TIM_OC5_SetConfig)
    TIM_OC5_SetConfig                        0x08007d39   Thumb Code    92  stm32g4xx_hal_tim.o(i.TIM_OC5_SetConfig)
    i.TIM_OC6_SetConfig                      0x08007db0   Section        0  stm32g4xx_hal_tim.o(i.TIM_OC6_SetConfig)
    TIM_OC6_SetConfig                        0x08007db1   Thumb Code    94  stm32g4xx_hal_tim.o(i.TIM_OC6_SetConfig)
    i.TIM_TI1_SetConfig                      0x08007e2c   Section        0  stm32g4xx_hal_tim.o(i.TIM_TI1_SetConfig)
    i.TIM_TI2_SetConfig                      0x08007eac   Section        0  stm32g4xx_hal_tim.o(i.TIM_TI2_SetConfig)
    TIM_TI2_SetConfig                        0x08007ead   Thumb Code    54  stm32g4xx_hal_tim.o(i.TIM_TI2_SetConfig)
    i.UARTEx_SetNbDataToProcess              0x08007ee4   Section        0  stm32g4xx_hal_uart_ex.o(i.UARTEx_SetNbDataToProcess)
    UARTEx_SetNbDataToProcess                0x08007ee5   Thumb Code    62  stm32g4xx_hal_uart_ex.o(i.UARTEx_SetNbDataToProcess)
    i.UART_AdvFeatureConfig                  0x08007f28   Section        0  stm32g4xx_hal_uart.o(i.UART_AdvFeatureConfig)
    i.UART_CheckIdleState                    0x08007ff0   Section        0  stm32g4xx_hal_uart.o(i.UART_CheckIdleState)
    i.UART_EndRxTransfer                     0x0800809c   Section        0  stm32g4xx_hal_uart.o(i.UART_EndRxTransfer)
    UART_EndRxTransfer                       0x0800809d   Thumb Code    78  stm32g4xx_hal_uart.o(i.UART_EndRxTransfer)
    i.UART_SetConfig                         0x080080f0   Section        0  stm32g4xx_hal_uart.o(i.UART_SetConfig)
    i.UART_WaitOnFlagUntilTimeout            0x08008388   Section        0  stm32g4xx_hal_uart.o(i.UART_WaitOnFlagUntilTimeout)
    i.USBD_CDC_ConfigStrDescriptor           0x0800841c   Section        0  usbd_desc.o(i.USBD_CDC_ConfigStrDescriptor)
    i.USBD_CDC_DataIn                        0x0800843c   Section        0  usbd_cdc.o(i.USBD_CDC_DataIn)
    USBD_CDC_DataIn                          0x0800843d   Thumb Code    94  usbd_cdc.o(i.USBD_CDC_DataIn)
    i.USBD_CDC_DataOut                       0x0800849a   Section        0  usbd_cdc.o(i.USBD_CDC_DataOut)
    USBD_CDC_DataOut                         0x0800849b   Thumb Code    42  usbd_cdc.o(i.USBD_CDC_DataOut)
    i.USBD_CDC_DeInit                        0x080084c4   Section        0  usbd_cdc.o(i.USBD_CDC_DeInit)
    USBD_CDC_DeInit                          0x080084c5   Thumb Code    64  usbd_cdc.o(i.USBD_CDC_DeInit)
    i.USBD_CDC_DeviceDescriptor              0x08008504   Section        0  usbd_desc.o(i.USBD_CDC_DeviceDescriptor)
    i.USBD_CDC_EP0_RxReady                   0x08008510   Section        0  usbd_cdc.o(i.USBD_CDC_EP0_RxReady)
    USBD_CDC_EP0_RxReady                     0x08008511   Thumb Code    46  usbd_cdc.o(i.USBD_CDC_EP0_RxReady)
    i.USBD_CDC_GetDeviceQualifierDescriptor  0x08008540   Section        0  usbd_cdc.o(i.USBD_CDC_GetDeviceQualifierDescriptor)
    i.USBD_CDC_GetFSCfgDesc                  0x0800854c   Section        0  usbd_cdc.o(i.USBD_CDC_GetFSCfgDesc)
    USBD_CDC_GetFSCfgDesc                    0x0800854d   Thumb Code     8  usbd_cdc.o(i.USBD_CDC_GetFSCfgDesc)
    i.USBD_CDC_GetHSCfgDesc                  0x08008558   Section        0  usbd_cdc.o(i.USBD_CDC_GetHSCfgDesc)
    USBD_CDC_GetHSCfgDesc                    0x08008559   Thumb Code     8  usbd_cdc.o(i.USBD_CDC_GetHSCfgDesc)
    i.USBD_CDC_GetOtherSpeedCfgDesc          0x08008564   Section        0  usbd_cdc.o(i.USBD_CDC_GetOtherSpeedCfgDesc)
    USBD_CDC_GetOtherSpeedCfgDesc            0x08008565   Thumb Code     8  usbd_cdc.o(i.USBD_CDC_GetOtherSpeedCfgDesc)
    i.USBD_CDC_Init                          0x08008570   Section        0  usbd_cdc.o(i.USBD_CDC_Init)
    USBD_CDC_Init                            0x08008571   Thumb Code   138  usbd_cdc.o(i.USBD_CDC_Init)
    i.USBD_CDC_InterfaceStrDescriptor        0x08008600   Section        0  usbd_desc.o(i.USBD_CDC_InterfaceStrDescriptor)
    i.USBD_CDC_LangIDStrDescriptor           0x08008624   Section        0  usbd_desc.o(i.USBD_CDC_LangIDStrDescriptor)
    i.USBD_CDC_ManufacturerStrDescriptor     0x08008630   Section        0  usbd_desc.o(i.USBD_CDC_ManufacturerStrDescriptor)
    i.USBD_CDC_ProductStrDescriptor          0x08008658   Section        0  usbd_desc.o(i.USBD_CDC_ProductStrDescriptor)
    i.USBD_CDC_ReceivePacket                 0x08008690   Section        0  usbd_cdc.o(i.USBD_CDC_ReceivePacket)
    i.USBD_CDC_RegisterInterface             0x080086b8   Section        0  usbd_cdc.o(i.USBD_CDC_RegisterInterface)
    i.USBD_CDC_SerialStrDescriptor           0x080086c8   Section        0  usbd_desc.o(i.USBD_CDC_SerialStrDescriptor)
    i.USBD_CDC_SetRxBuffer                   0x08008700   Section        0  usbd_cdc.o(i.USBD_CDC_SetRxBuffer)
    i.USBD_CDC_SetTxBuffer                   0x08008712   Section        0  usbd_cdc.o(i.USBD_CDC_SetTxBuffer)
    i.USBD_CDC_Setup                         0x08008728   Section        0  usbd_cdc.o(i.USBD_CDC_Setup)
    USBD_CDC_Setup                           0x08008729   Thumb Code   190  usbd_cdc.o(i.USBD_CDC_Setup)
    i.USBD_CDC_TransmitPacket                0x080087e6   Section        0  usbd_cdc.o(i.USBD_CDC_TransmitPacket)
    i.USBD_Clock_Config                      0x0800881c   Section        0  usb_device.o(i.USBD_Clock_Config)
    i.USBD_ClrClassConfig                    0x08008878   Section        0  usbd_core.o(i.USBD_ClrClassConfig)
    i.USBD_CtlContinueRx                     0x08008888   Section        0  usbd_ioreq.o(i.USBD_CtlContinueRx)
    i.USBD_CtlContinueSendData               0x08008898   Section        0  usbd_ioreq.o(i.USBD_CtlContinueSendData)
    i.USBD_CtlError                          0x080088a8   Section        0  usbd_ctlreq.o(i.USBD_CtlError)
    i.USBD_CtlPrepareRx                      0x080088be   Section        0  usbd_ioreq.o(i.USBD_CtlPrepareRx)
    i.USBD_CtlReceiveStatus                  0x080088dc   Section        0  usbd_ioreq.o(i.USBD_CtlReceiveStatus)
    i.USBD_CtlSendData                       0x080088f2   Section        0  usbd_ioreq.o(i.USBD_CtlSendData)
    i.USBD_CtlSendStatus                     0x0800890c   Section        0  usbd_ioreq.o(i.USBD_CtlSendStatus)
    i.USBD_GetDescriptor                     0x08008922   Section        0  usbd_ctlreq.o(i.USBD_GetDescriptor)
    USBD_GetDescriptor                       0x08008923   Thumb Code   230  usbd_ctlreq.o(i.USBD_GetDescriptor)
    i.USBD_GetString                         0x08008a08   Section        0  usbd_ctlreq.o(i.USBD_GetString)
    i.USBD_Get_USB_Status                    0x08008a50   Section        0  usbd_conf.o(i.USBD_Get_USB_Status)
    USBD_Get_USB_Status                      0x08008a51   Thumb Code    24  usbd_conf.o(i.USBD_Get_USB_Status)
    i.USBD_Init                              0x08008a68   Section        0  usbd_core.o(i.USBD_Init)
    i.USBD_LL_ClearStallEP                   0x08008a8e   Section        0  usbd_conf.o(i.USBD_LL_ClearStallEP)
    i.USBD_LL_CloseEP                        0x08008aa0   Section        0  usbd_conf.o(i.USBD_LL_CloseEP)
    i.USBD_LL_DataInStage                    0x08008ab2   Section        0  usbd_core.o(i.USBD_LL_DataInStage)
    i.USBD_LL_DataOutStage                   0x08008b5a   Section        0  usbd_core.o(i.USBD_LL_DataOutStage)
    i.USBD_LL_GetRxDataSize                  0x08008bc6   Section        0  usbd_conf.o(i.USBD_LL_GetRxDataSize)
    i.USBD_LL_Init                           0x08008bd0   Section        0  usbd_conf.o(i.USBD_LL_Init)
    i.USBD_LL_IsStallEP                      0x08008c44   Section        0  usbd_conf.o(i.USBD_LL_IsStallEP)
    i.USBD_LL_OpenEP                         0x08008c62   Section        0  usbd_conf.o(i.USBD_LL_OpenEP)
    i.USBD_LL_PrepareReceive                 0x08008c7a   Section        0  usbd_conf.o(i.USBD_LL_PrepareReceive)
    i.USBD_LL_Reset                          0x08008c8c   Section        0  usbd_core.o(i.USBD_LL_Reset)
    i.USBD_LL_Resume                         0x08008ce6   Section        0  usbd_core.o(i.USBD_LL_Resume)
    i.USBD_LL_SOF                            0x08008cfa   Section        0  usbd_core.o(i.USBD_LL_SOF)
    i.USBD_LL_SetSpeed                       0x08008d1a   Section        0  usbd_core.o(i.USBD_LL_SetSpeed)
    i.USBD_LL_SetUSBAddress                  0x08008d20   Section        0  usbd_conf.o(i.USBD_LL_SetUSBAddress)
    i.USBD_LL_SetupStage                     0x08008d3c   Section        0  usbd_core.o(i.USBD_LL_SetupStage)
    i.USBD_LL_StallEP                        0x08008d9c   Section        0  usbd_conf.o(i.USBD_LL_StallEP)
    i.USBD_LL_Start                          0x08008dae   Section        0  usbd_conf.o(i.USBD_LL_Start)
    i.USBD_LL_Suspend                        0x08008dc0   Section        0  usbd_core.o(i.USBD_LL_Suspend)
    i.USBD_LL_Transmit                       0x08008dd2   Section        0  usbd_conf.o(i.USBD_LL_Transmit)
    i.USBD_ParseSetupRequest                 0x08008de4   Section        0  usbd_ctlreq.o(i.USBD_ParseSetupRequest)
    i.USBD_RegisterClass                     0x08008e10   Section        0  usbd_core.o(i.USBD_RegisterClass)
    i.USBD_SetClassConfig                    0x08008e34   Section        0  usbd_core.o(i.USBD_SetClassConfig)
    i.USBD_SetConfig                         0x08008e48   Section        0  usbd_ctlreq.o(i.USBD_SetConfig)
    USBD_SetConfig                           0x08008e49   Thumb Code   182  usbd_ctlreq.o(i.USBD_SetConfig)
    i.USBD_Start                             0x08008f04   Section        0  usbd_core.o(i.USBD_Start)
    i.USBD_StdDevReq                         0x08008f08   Section        0  usbd_ctlreq.o(i.USBD_StdDevReq)
    i.USBD_StdEPReq                          0x0800901c   Section        0  usbd_ctlreq.o(i.USBD_StdEPReq)
    i.USBD_StdItfReq                         0x0800915c   Section        0  usbd_ctlreq.o(i.USBD_StdItfReq)
    i.USB_ActivateEndpoint                   0x080091ae   Section        0  stm32g4xx_ll_usb.o(i.USB_ActivateEndpoint)
    i.USB_DeactivateEndpoint                 0x0800944a   Section        0  stm32g4xx_ll_usb.o(i.USB_DeactivateEndpoint)
    i.USB_DevConnect                         0x08009558   Section        0  stm32g4xx_ll_usb.o(i.USB_DevConnect)
    i.USB_DevInit                            0x08009566   Section        0  stm32g4xx_ll_usb.o(i.USB_DevInit)
    i.USB_DisableGlobalInt                   0x08009578   Section        0  stm32g4xx_ll_usb.o(i.USB_DisableGlobalInt)
    i.USB_EPClearStall                       0x08009588   Section        0  stm32g4xx_ll_usb.o(i.USB_EPClearStall)
    i.USB_EPSetStall                         0x08009600   Section        0  stm32g4xx_ll_usb.o(i.USB_EPSetStall)
    i.USB_EPStartXfer                        0x08009632   Section        0  stm32g4xx_ll_usb.o(i.USB_EPStartXfer)
    i.USB_EnableGlobalInt                    0x08009b14   Section        0  stm32g4xx_ll_usb.o(i.USB_EnableGlobalInt)
    i.USB_LP_IRQHandler                      0x08009b28   Section        0  stm32g4xx_it.o(i.USB_LP_IRQHandler)
    i.USB_ReadInterrupts                     0x08009b34   Section        0  stm32g4xx_ll_usb.o(i.USB_ReadInterrupts)
    i.USB_ReadPMA                            0x08009b3a   Section        0  stm32g4xx_ll_usb.o(i.USB_ReadPMA)
    i.USB_SetDevAddress                      0x08009b62   Section        0  stm32g4xx_ll_usb.o(i.USB_SetDevAddress)
    i.USB_WritePMA                           0x08009b70   Section        0  stm32g4xx_ll_usb.o(i.USB_WritePMA)
    i.UsageFault_Handler                     0x08009b96   Section        0  stm32g4xx_it.o(i.UsageFault_Handler)
    i.VectorActionTime                       0x08009b98   Section        0  foc_pwm.o(i.VectorActionTime)
    VectorActionTime                         0x08009b99   Thumb Code   346  foc_pwm.o(i.VectorActionTime)
    i._MecAngle_to_ElAngle                   0x08009d00   Section        0  foc_math.o(i._MecAngle_to_ElAngle)
    i.__ARM_isinff                           0x08009d0e   Section        0  foc_pid.o(i.__ARM_isinff)
    __ARM_isinff                             0x08009d0f   Thumb Code    18  foc_pid.o(i.__ARM_isinff)
    i.__ARM_isnanf                           0x08009d20   Section        0  foc_pid.o(i.__ARM_isnanf)
    __ARM_isnanf                             0x08009d21   Thumb Code    12  foc_pid.o(i.__ARM_isnanf)
    i.__NVIC_SetPriority                     0x08009d2c   Section        0  stm32g4xx_hal_cortex.o(i.__NVIC_SetPriority)
    __NVIC_SetPriority                       0x08009d2d   Thumb Code    32  stm32g4xx_hal_cortex.o(i.__NVIC_SetPriority)
    i.__hardfp_fmodf                         0x08009d4c   Section        0  fmodf.o(i.__hardfp_fmodf)
    i.__mathlib_flt_invalid                  0x08009dfc   Section        0  funder.o(i.__mathlib_flt_invalid)
    i._is_digit                              0x08009e0c   Section        0  __printf_wp.o(i._is_digit)
    i._sys_exit                              0x08009e1a   Section        0  my_usart.o(i._sys_exit)
    i.cdc_vcp_data_rx                        0x08009e1c   Section        0  usbd_cdc_if.o(i.cdc_vcp_data_rx)
    i.cdc_vcp_data_tx                        0x08009e74   Section        0  usbd_cdc_if.o(i.cdc_vcp_data_tx)
    i.delay_init                             0x08009e94   Section        0  delay.o(i.delay_init)
    i.delay_ms                               0x08009ec4   Section        0  delay.o(i.delay_ms)
    i.delay_us                               0x08009ee0   Section        0  delay.o(i.delay_us)
    i.fputc                                  0x08009f14   Section        0  my_usart.o(i.fputc)
    i.main                                   0x08009f2c   Section        0  main.o(i.main)
    i.uart_init                              0x08009f70   Section        0  my_usart.o(i.uart_init)
    x$fpl$fnaninf                            0x08009f94   Section      140  fnaninf.o(x$fpl$fnaninf)
    $v0                                      0x08009f94   Number         0  fnaninf.o(x$fpl$fnaninf)
    x$fpl$fpinit                             0x0800a020   Section       10  fpinit.o(x$fpl$fpinit)
    $v0                                      0x0800a020   Number         0  fpinit.o(x$fpl$fpinit)
    x$fpl$frem                               0x0800a02c   Section      244  frem_clz.o(x$fpl$frem)
    $v0                                      0x0800a02c   Number         0  frem_clz.o(x$fpl$frem)
    x$fpl$llsfromf                           0x0800a120   Section      134  ffixll.o(x$fpl$llsfromf)
    $v0                                      0x0800a120   Number         0  ffixll.o(x$fpl$llsfromf)
    .constdata                               0x0800a1a6   Section       24  stm32g4xx_hal_uart.o(.constdata)
    x$fpl$usenofp                            0x0800a1a6   Section        0  usenofp.o(x$fpl$usenofp)
    .constdata                               0x0800a1be   Section       16  stm32g4xx_hal_uart_ex.o(.constdata)
    numerator                                0x0800a1be   Data           8  stm32g4xx_hal_uart_ex.o(.constdata)
    denominator                              0x0800a1c6   Data           8  stm32g4xx_hal_uart_ex.o(.constdata)
    .constdata                               0x0800a1ce   Section       16  system_stm32g4xx.o(.constdata)
    .constdata                               0x0800a1de   Section        8  system_stm32g4xx.o(.constdata)
    .constdata                               0x0800a1e6   Section       17  __printf_flags_ss_wp.o(.constdata)
    maptable                                 0x0800a1e6   Data          17  __printf_flags_ss_wp.o(.constdata)
    .conststring                             0x0800a1f8   Section      159  foc_pid.o(.conststring)
    .data                                    0x20000000   Section        4  adc.o(.data)
    HAL_RCC_ADC12_CLK_ENABLED                0x20000000   Data           4  adc.o(.data)
    .data                                    0x20000004   Section        4  stm32g4xx_it.o(.data)
    .data                                    0x20000008   Section       12  stm32g4xx_hal.o(.data)
    .data                                    0x20000014   Section        4  system_stm32g4xx.o(.data)
    .data                                    0x20000018   Section        8  delay.o(.data)
    g_fac_us                                 0x20000018   Data           4  delay.o(.data)
    .data                                    0x20000020   Section        4  my_usart.o(.data)
    .data                                    0x20000024   Section        3  bsp_irq.o(.data)
    .data                                    0x20000027   Section        1  usbd_ctlreq.o(.data)
    cfgidx                                   0x20000027   Data           1  usbd_ctlreq.o(.data)
    .data                                    0x20000028   Section      215  usbd_cdc.o(.data)
    USBD_CDC_DeviceQualifierDesc             0x20000028   Data          10  usbd_cdc.o(.data)
    USBD_CDC_CfgHSDesc                       0x20000034   Data          67  usbd_cdc.o(.data)
    USBD_CDC_CfgFSDesc                       0x20000078   Data          67  usbd_cdc.o(.data)
    USBD_CDC_OtherSpeedCfgDesc               0x200000bc   Data          67  usbd_cdc.o(.data)
    .data                                    0x20000100   Section       56  usbd_cdc.o(.data)
    .data                                    0x20000138   Section       12  usbd_cdc_if.o(.data)
    .data                                    0x20000144   Section       20  usbd_cdc_if.o(.data)
    .data                                    0x20000158   Section        1  usbd_conf.o(.data)
    .data                                    0x2000015c   Section       28  usbd_desc.o(.data)
    .data                                    0x20000178   Section       50  usbd_desc.o(.data)
    .data                                    0x200001ac   Section       84  debug.o(.data)
    .data                                    0x20000200   Section    13492  foc_app.o(.data)
    .bss                                     0x200036b4   Section      612  adc.o(.bss)
    .bss                                     0x20003918   Section      380  tim.o(.bss)
    .bss                                     0x20003a94   Section      148  usart.o(.bss)
    .bss                                     0x20003b28   Section      732  usb.o(.bss)
    .bss                                     0x20003e04   Section      540  usbd_cdc.o(.bss)
    .bss                                     0x20004020   Section      720  usb_device.o(.bss)
    .bss                                     0x200042f0   Section      600  usbd_cdc_if.o(.bss)
    .bss                                     0x20004548   Section      256  usbd_desc.o(.bss)
    .bss                                     0x20004648   Section       96  libspace.o(.bss)
    HEAP                                     0x200046a8   Section        0  startup_stm32g473xx.o(HEAP)
    STACK                                    0x200046a8   Section     1024  startup_stm32g473xx.o(STACK)
    Heap_Mem                                 0x200046a8   Data           0  startup_stm32g473xx.o(HEAP)
    Stack_Mem                                0x200046a8   Data        1024  startup_stm32g473xx.o(STACK)
    __initial_sp                             0x20004aa8   Data           0  startup_stm32g473xx.o(STACK)

    Global Symbols

    Symbol Name                              Value     Ov Type        Size  Object(Section)

    BuildAttributes$$THM_ISAv4$E$P$D$K$B$S$7EM$VFPi3$EXTD16$VFPS$VFMA$PE$A:L22UL41UL21$X:L11$S22US41US21$IEEE1$IW$USESV6$~STKCKD$USESV7$~SHL$OTIME$ROPI$IEEEX$EBA8$UX$STANDARDLIB$REQ8$PRES8$EABIv2 0x00000000   Number         0  anon$$obj.o ABSOLUTE
    __ARM_use_no_argv                        0x00000000   Number         0  main.o ABSOLUTE
    _printf_flags                            0x00000000   Number         0  printf_stubs.o ABSOLUTE
    _printf_return_value                     0x00000000   Number         0  printf_stubs.o ABSOLUTE
    _printf_sizespec                         0x00000000   Number         0  printf_stubs.o ABSOLUTE
    _printf_widthprec                        0x00000000   Number         0  printf_stubs.o ABSOLUTE
    __ARM_exceptions_init                     - Undefined Weak Reference
    __alloca_initialize                       - Undefined Weak Reference
    __arm_preinit_                            - Undefined Weak Reference
    __cpp_initialize__aeabi_                  - Undefined Weak Reference
    __cxa_finalize                            - Undefined Weak Reference
    __sigvec_lookup                           - Undefined Weak Reference
    _atexit_init                              - Undefined Weak Reference
    _call_atexit_fns                          - Undefined Weak Reference
    _clock_init                               - Undefined Weak Reference
    _fp_trap_init                             - Undefined Weak Reference
    _fp_trap_shutdown                         - Undefined Weak Reference
    _get_lc_collate                           - Undefined Weak Reference
    _get_lc_monetary                          - Undefined Weak Reference
    _get_lc_time                              - Undefined Weak Reference
    _getenv_init                              - Undefined Weak Reference
    _handle_redirection                       - Undefined Weak Reference
    _init_alloc                               - Undefined Weak Reference
    _init_user_alloc                          - Undefined Weak Reference
    _initio                                   - Undefined Weak Reference
    _mutex_acquire                            - Undefined Weak Reference
    _mutex_release                            - Undefined Weak Reference
    _printf_mbtowc                            - Undefined Weak Reference
    _printf_wc                                - Undefined Weak Reference
    _rand_init                                - Undefined Weak Reference
    _signal_finish                            - Undefined Weak Reference
    _signal_init                              - Undefined Weak Reference
    _terminate_alloc                          - Undefined Weak Reference
    _terminate_user_alloc                     - Undefined Weak Reference
    _terminateio                              - Undefined Weak Reference
    __Vectors_Size                           0x000001d8   Number         0  startup_stm32g473xx.o ABSOLUTE
    __Vectors                                0x08000000   Data           4  startup_stm32g473xx.o(RESET)
    __Vectors_End                            0x080001d8   Data           0  startup_stm32g473xx.o(RESET)
    __main                                   0x080001d9   Thumb Code     8  __main.o(!!!main)
    __scatterload                            0x080001e1   Thumb Code     0  __scatter.o(!!!scatter)
    __scatterload_rt2                        0x080001e1   Thumb Code    44  __scatter.o(!!!scatter)
    __scatterload_rt2_thumb_only             0x080001e1   Thumb Code     0  __scatter.o(!!!scatter)
    __scatterload_null                       0x080001ef   Thumb Code     0  __scatter.o(!!!scatter)
    __decompress                             0x08000215   Thumb Code    90  __dczerorl2.o(!!dczerorl2)
    __decompress1                            0x08000215   Thumb Code     0  __dczerorl2.o(!!dczerorl2)
    __scatterload_zeroinit                   0x08000271   Thumb Code    28  __scatter_zi.o(!!handler_zi)
    _printf_d                                0x0800028d   Thumb Code     0  _printf_d.o(.ARM.Collect$$_printf_percent$$00000009)
    _printf_percent                          0x0800028d   Thumb Code     0  _printf_percent.o(.ARM.Collect$$_printf_percent$$00000000)
    _printf_percent_end                      0x08000293   Thumb Code     0  _printf_percent_end.o(.ARM.Collect$$_printf_percent$$00000017)
    __rt_lib_init                            0x08000297   Thumb Code     0  libinit.o(.ARM.Collect$$libinit$$00000000)
    __rt_lib_init_fp_1                       0x08000299   Thumb Code     0  libinit2.o(.ARM.Collect$$libinit$$00000001)
    __rt_lib_init_alloca_1                   0x0800029d   Thumb Code     0  libinit2.o(.ARM.Collect$$libinit$$0000002E)
    __rt_lib_init_argv_1                     0x0800029d   Thumb Code     0  libinit2.o(.ARM.Collect$$libinit$$0000002C)
    __rt_lib_init_atexit_1                   0x0800029d   Thumb Code     0  libinit2.o(.ARM.Collect$$libinit$$0000001B)
    __rt_lib_init_clock_1                    0x0800029d   Thumb Code     0  libinit2.o(.ARM.Collect$$libinit$$00000021)
    __rt_lib_init_cpp_1                      0x0800029d   Thumb Code     0  libinit2.o(.ARM.Collect$$libinit$$00000032)
    __rt_lib_init_exceptions_1               0x0800029d   Thumb Code     0  libinit2.o(.ARM.Collect$$libinit$$00000030)
    __rt_lib_init_fp_trap_1                  0x0800029d   Thumb Code     0  libinit2.o(.ARM.Collect$$libinit$$0000001F)
    __rt_lib_init_getenv_1                   0x0800029d   Thumb Code     0  libinit2.o(.ARM.Collect$$libinit$$00000023)
    __rt_lib_init_heap_1                     0x0800029d   Thumb Code     0  libinit2.o(.ARM.Collect$$libinit$$0000000A)
    __rt_lib_init_lc_collate_1               0x0800029d   Thumb Code     0  libinit2.o(.ARM.Collect$$libinit$$00000011)
    __rt_lib_init_lc_ctype_1                 0x0800029d   Thumb Code     0  libinit2.o(.ARM.Collect$$libinit$$00000013)
    __rt_lib_init_lc_monetary_1              0x0800029d   Thumb Code     0  libinit2.o(.ARM.Collect$$libinit$$00000015)
    __rt_lib_init_lc_numeric_1               0x0800029d   Thumb Code     0  libinit2.o(.ARM.Collect$$libinit$$00000017)
    __rt_lib_init_lc_time_1                  0x0800029d   Thumb Code     0  libinit2.o(.ARM.Collect$$libinit$$00000019)
    __rt_lib_init_preinit_1                  0x0800029d   Thumb Code     0  libinit2.o(.ARM.Collect$$libinit$$00000004)
    __rt_lib_init_rand_1                     0x0800029d   Thumb Code     0  libinit2.o(.ARM.Collect$$libinit$$0000000E)
    __rt_lib_init_return                     0x0800029d   Thumb Code     0  libinit2.o(.ARM.Collect$$libinit$$00000033)
    __rt_lib_init_signal_1                   0x0800029d   Thumb Code     0  libinit2.o(.ARM.Collect$$libinit$$0000001D)
    __rt_lib_init_stdio_1                    0x0800029d   Thumb Code     0  libinit2.o(.ARM.Collect$$libinit$$00000025)
    __rt_lib_init_user_alloc_1               0x0800029d   Thumb Code     0  libinit2.o(.ARM.Collect$$libinit$$0000000C)
    __rt_lib_shutdown                        0x0800029f   Thumb Code     0  libshutdown.o(.ARM.Collect$$libshutdown$$00000000)
    __rt_lib_shutdown_cpp_1                  0x080002a1   Thumb Code     0  libshutdown2.o(.ARM.Collect$$libshutdown$$00000002)
    __rt_lib_shutdown_fp_trap_1              0x080002a1   Thumb Code     0  libshutdown2.o(.ARM.Collect$$libshutdown$$00000007)
    __rt_lib_shutdown_heap_1                 0x080002a1   Thumb Code     0  libshutdown2.o(.ARM.Collect$$libshutdown$$0000000F)
    __rt_lib_shutdown_return                 0x080002a1   Thumb Code     0  libshutdown2.o(.ARM.Collect$$libshutdown$$00000010)
    __rt_lib_shutdown_signal_1               0x080002a1   Thumb Code     0  libshutdown2.o(.ARM.Collect$$libshutdown$$0000000A)
    __rt_lib_shutdown_stdio_1                0x080002a1   Thumb Code     0  libshutdown2.o(.ARM.Collect$$libshutdown$$00000004)
    __rt_lib_shutdown_user_alloc_1           0x080002a1   Thumb Code     0  libshutdown2.o(.ARM.Collect$$libshutdown$$0000000C)
    __rt_entry                               0x080002a3   Thumb Code     0  __rtentry.o(.ARM.Collect$$rtentry$$00000000)
    __rt_entry_presh_1                       0x080002a3   Thumb Code     0  __rtentry2.o(.ARM.Collect$$rtentry$$00000002)
    __rt_entry_sh                            0x080002a3   Thumb Code     0  __rtentry4.o(.ARM.Collect$$rtentry$$00000004)
    __rt_entry_li                            0x080002a9   Thumb Code     0  __rtentry2.o(.ARM.Collect$$rtentry$$0000000A)
    __rt_entry_postsh_1                      0x080002a9   Thumb Code     0  __rtentry2.o(.ARM.Collect$$rtentry$$00000009)
    __rt_entry_main                          0x080002ad   Thumb Code     0  __rtentry2.o(.ARM.Collect$$rtentry$$0000000D)
    __rt_entry_postli_1                      0x080002ad   Thumb Code     0  __rtentry2.o(.ARM.Collect$$rtentry$$0000000C)
    __rt_exit                                0x080002b5   Thumb Code     0  rtexit.o(.ARM.Collect$$rtexit$$00000000)
    __rt_exit_ls                             0x080002b7   Thumb Code     0  rtexit2.o(.ARM.Collect$$rtexit$$00000003)
    __rt_exit_prels_1                        0x080002b7   Thumb Code     0  rtexit2.o(.ARM.Collect$$rtexit$$00000002)
    __rt_exit_exit                           0x080002bb   Thumb Code     0  rtexit2.o(.ARM.Collect$$rtexit$$00000004)
    Reset_Handler                            0x080002c1   Thumb Code     8  startup_stm32g473xx.o(.text)
    ADC4_IRQHandler                          0x080002db   Thumb Code     0  startup_stm32g473xx.o(.text)
    ADC5_IRQHandler                          0x080002db   Thumb Code     0  startup_stm32g473xx.o(.text)
    COMP1_2_3_IRQHandler                     0x080002db   Thumb Code     0  startup_stm32g473xx.o(.text)
    COMP4_5_6_IRQHandler                     0x080002db   Thumb Code     0  startup_stm32g473xx.o(.text)
    COMP7_IRQHandler                         0x080002db   Thumb Code     0  startup_stm32g473xx.o(.text)
    CORDIC_IRQHandler                        0x080002db   Thumb Code     0  startup_stm32g473xx.o(.text)
    CRS_IRQHandler                           0x080002db   Thumb Code     0  startup_stm32g473xx.o(.text)
    DMA1_Channel4_IRQHandler                 0x080002db   Thumb Code     0  startup_stm32g473xx.o(.text)
    DMA1_Channel5_IRQHandler                 0x080002db   Thumb Code     0  startup_stm32g473xx.o(.text)
    DMA1_Channel6_IRQHandler                 0x080002db   Thumb Code     0  startup_stm32g473xx.o(.text)
    DMA1_Channel7_IRQHandler                 0x080002db   Thumb Code     0  startup_stm32g473xx.o(.text)
    DMA1_Channel8_IRQHandler                 0x080002db   Thumb Code     0  startup_stm32g473xx.o(.text)
    DMA2_Channel1_IRQHandler                 0x080002db   Thumb Code     0  startup_stm32g473xx.o(.text)
    DMA2_Channel2_IRQHandler                 0x080002db   Thumb Code     0  startup_stm32g473xx.o(.text)
    DMA2_Channel3_IRQHandler                 0x080002db   Thumb Code     0  startup_stm32g473xx.o(.text)
    DMA2_Channel4_IRQHandler                 0x080002db   Thumb Code     0  startup_stm32g473xx.o(.text)
    DMA2_Channel5_IRQHandler                 0x080002db   Thumb Code     0  startup_stm32g473xx.o(.text)
    DMA2_Channel6_IRQHandler                 0x080002db   Thumb Code     0  startup_stm32g473xx.o(.text)
    DMA2_Channel7_IRQHandler                 0x080002db   Thumb Code     0  startup_stm32g473xx.o(.text)
    DMA2_Channel8_IRQHandler                 0x080002db   Thumb Code     0  startup_stm32g473xx.o(.text)
    DMAMUX_OVR_IRQHandler                    0x080002db   Thumb Code     0  startup_stm32g473xx.o(.text)
    EXTI0_IRQHandler                         0x080002db   Thumb Code     0  startup_stm32g473xx.o(.text)
    EXTI15_10_IRQHandler                     0x080002db   Thumb Code     0  startup_stm32g473xx.o(.text)
    EXTI1_IRQHandler                         0x080002db   Thumb Code     0  startup_stm32g473xx.o(.text)
    EXTI2_IRQHandler                         0x080002db   Thumb Code     0  startup_stm32g473xx.o(.text)
    EXTI3_IRQHandler                         0x080002db   Thumb Code     0  startup_stm32g473xx.o(.text)
    EXTI4_IRQHandler                         0x080002db   Thumb Code     0  startup_stm32g473xx.o(.text)
    EXTI9_5_IRQHandler                       0x080002db   Thumb Code     0  startup_stm32g473xx.o(.text)
    FDCAN1_IT0_IRQHandler                    0x080002db   Thumb Code     0  startup_stm32g473xx.o(.text)
    FDCAN1_IT1_IRQHandler                    0x080002db   Thumb Code     0  startup_stm32g473xx.o(.text)
    FDCAN2_IT0_IRQHandler                    0x080002db   Thumb Code     0  startup_stm32g473xx.o(.text)
    FDCAN2_IT1_IRQHandler                    0x080002db   Thumb Code     0  startup_stm32g473xx.o(.text)
    FDCAN3_IT0_IRQHandler                    0x080002db   Thumb Code     0  startup_stm32g473xx.o(.text)
    FDCAN3_IT1_IRQHandler                    0x080002db   Thumb Code     0  startup_stm32g473xx.o(.text)
    FLASH_IRQHandler                         0x080002db   Thumb Code     0  startup_stm32g473xx.o(.text)
    FMAC_IRQHandler                          0x080002db   Thumb Code     0  startup_stm32g473xx.o(.text)
    FMC_IRQHandler                           0x080002db   Thumb Code     0  startup_stm32g473xx.o(.text)
    FPU_IRQHandler                           0x080002db   Thumb Code     0  startup_stm32g473xx.o(.text)
    I2C1_ER_IRQHandler                       0x080002db   Thumb Code     0  startup_stm32g473xx.o(.text)
    I2C1_EV_IRQHandler                       0x080002db   Thumb Code     0  startup_stm32g473xx.o(.text)
    I2C2_ER_IRQHandler                       0x080002db   Thumb Code     0  startup_stm32g473xx.o(.text)
    I2C2_EV_IRQHandler                       0x080002db   Thumb Code     0  startup_stm32g473xx.o(.text)
    I2C3_ER_IRQHandler                       0x080002db   Thumb Code     0  startup_stm32g473xx.o(.text)
    I2C3_EV_IRQHandler                       0x080002db   Thumb Code     0  startup_stm32g473xx.o(.text)
    I2C4_ER_IRQHandler                       0x080002db   Thumb Code     0  startup_stm32g473xx.o(.text)
    I2C4_EV_IRQHandler                       0x080002db   Thumb Code     0  startup_stm32g473xx.o(.text)
    LPTIM1_IRQHandler                        0x080002db   Thumb Code     0  startup_stm32g473xx.o(.text)
    LPUART1_IRQHandler                       0x080002db   Thumb Code     0  startup_stm32g473xx.o(.text)
    PVD_PVM_IRQHandler                       0x080002db   Thumb Code     0  startup_stm32g473xx.o(.text)
    QUADSPI_IRQHandler                       0x080002db   Thumb Code     0  startup_stm32g473xx.o(.text)
    RCC_IRQHandler                           0x080002db   Thumb Code     0  startup_stm32g473xx.o(.text)
    RNG_IRQHandler                           0x080002db   Thumb Code     0  startup_stm32g473xx.o(.text)
    RTC_Alarm_IRQHandler                     0x080002db   Thumb Code     0  startup_stm32g473xx.o(.text)
    RTC_TAMP_LSECSS_IRQHandler               0x080002db   Thumb Code     0  startup_stm32g473xx.o(.text)
    RTC_WKUP_IRQHandler                      0x080002db   Thumb Code     0  startup_stm32g473xx.o(.text)
    SAI1_IRQHandler                          0x080002db   Thumb Code     0  startup_stm32g473xx.o(.text)
    SPI1_IRQHandler                          0x080002db   Thumb Code     0  startup_stm32g473xx.o(.text)
    SPI2_IRQHandler                          0x080002db   Thumb Code     0  startup_stm32g473xx.o(.text)
    SPI3_IRQHandler                          0x080002db   Thumb Code     0  startup_stm32g473xx.o(.text)
    SPI4_IRQHandler                          0x080002db   Thumb Code     0  startup_stm32g473xx.o(.text)
    TIM1_BRK_TIM15_IRQHandler                0x080002db   Thumb Code     0  startup_stm32g473xx.o(.text)
    TIM1_CC_IRQHandler                       0x080002db   Thumb Code     0  startup_stm32g473xx.o(.text)
    TIM1_TRG_COM_TIM17_IRQHandler            0x080002db   Thumb Code     0  startup_stm32g473xx.o(.text)
    TIM20_BRK_IRQHandler                     0x080002db   Thumb Code     0  startup_stm32g473xx.o(.text)
    TIM20_CC_IRQHandler                      0x080002db   Thumb Code     0  startup_stm32g473xx.o(.text)
    TIM20_TRG_COM_IRQHandler                 0x080002db   Thumb Code     0  startup_stm32g473xx.o(.text)
    TIM20_UP_IRQHandler                      0x080002db   Thumb Code     0  startup_stm32g473xx.o(.text)
    TIM3_IRQHandler                          0x080002db   Thumb Code     0  startup_stm32g473xx.o(.text)
    TIM4_IRQHandler                          0x080002db   Thumb Code     0  startup_stm32g473xx.o(.text)
    TIM7_DAC_IRQHandler                      0x080002db   Thumb Code     0  startup_stm32g473xx.o(.text)
    TIM8_BRK_IRQHandler                      0x080002db   Thumb Code     0  startup_stm32g473xx.o(.text)
    TIM8_CC_IRQHandler                       0x080002db   Thumb Code     0  startup_stm32g473xx.o(.text)
    TIM8_TRG_COM_IRQHandler                  0x080002db   Thumb Code     0  startup_stm32g473xx.o(.text)
    TIM8_UP_IRQHandler                       0x080002db   Thumb Code     0  startup_stm32g473xx.o(.text)
    UART4_IRQHandler                         0x080002db   Thumb Code     0  startup_stm32g473xx.o(.text)
    UART5_IRQHandler                         0x080002db   Thumb Code     0  startup_stm32g473xx.o(.text)
    UCPD1_IRQHandler                         0x080002db   Thumb Code     0  startup_stm32g473xx.o(.text)
    USART1_IRQHandler                        0x080002db   Thumb Code     0  startup_stm32g473xx.o(.text)
    USART2_IRQHandler                        0x080002db   Thumb Code     0  startup_stm32g473xx.o(.text)
    USART3_IRQHandler                        0x080002db   Thumb Code     0  startup_stm32g473xx.o(.text)
    USBWakeUp_IRQHandler                     0x080002db   Thumb Code     0  startup_stm32g473xx.o(.text)
    USB_HP_IRQHandler                        0x080002db   Thumb Code     0  startup_stm32g473xx.o(.text)
    WWDG_IRQHandler                          0x080002db   Thumb Code     0  startup_stm32g473xx.o(.text)
    __user_initial_stackheap                 0x080002dd   Thumb Code     0  startup_stm32g473xx.o(.text)
    __use_no_semihosting                     0x080002fd   Thumb Code     2  use_no_semi_2.o(.text)
    __aeabi_uldivmod                         0x080002ff   Thumb Code     0  lludivv7m.o(.text)
    _ll_udiv                                 0x080002ff   Thumb Code   238  lludivv7m.o(.text)
    __2printf                                0x080003ed   Thumb Code    20  __2printf.o(.text)
    _printf_int_dec                          0x08000405   Thumb Code   104  _printf_dec.o(.text)
    __printf                                 0x0800047d   Thumb Code   388  __printf_flags_ss_wp.o(.text)
    __aeabi_memcpy4                          0x08000605   Thumb Code     0  rt_memcpy_w.o(.text)
    __aeabi_memcpy8                          0x08000605   Thumb Code     0  rt_memcpy_w.o(.text)
    __rt_memcpy_w                            0x08000605   Thumb Code   100  rt_memcpy_w.o(.text)
    _memcpy_lastbytes_aligned                0x0800064d   Thumb Code     0  rt_memcpy_w.o(.text)
    __aeabi_memclr4                          0x08000669   Thumb Code     0  rt_memclr_w.o(.text)
    __aeabi_memclr8                          0x08000669   Thumb Code     0  rt_memclr_w.o(.text)
    __rt_memclr_w                            0x08000669   Thumb Code    78  rt_memclr_w.o(.text)
    _memset_w                                0x0800066d   Thumb Code     0  rt_memclr_w.o(.text)
    __use_two_region_memory                  0x080006b7   Thumb Code     2  heapauxi.o(.text)
    __rt_heap_escrow$2region                 0x080006b9   Thumb Code     2  heapauxi.o(.text)
    __rt_heap_expand$2region                 0x080006bb   Thumb Code     2  heapauxi.o(.text)
    __semihosting$guard                      0x080006bd   Thumb Code     0  use_no_semi.o(.text)
    __use_no_semihosting_swi                 0x080006bd   Thumb Code     2  use_no_semi.o(.text)
    __read_errno                             0x080006bf   Thumb Code    10  _rserrno.o(.text)
    __set_errno                              0x080006c9   Thumb Code    12  _rserrno.o(.text)
    _printf_int_common                       0x080006d5   Thumb Code   178  _printf_intcommon.o(.text)
    _printf_char_common                      0x08000793   Thumb Code    32  _printf_char_common.o(.text)
    _printf_char_file                        0x080007b9   Thumb Code    32  _printf_char_file.o(.text)
    __aeabi_errno_addr                       0x080007dd   Thumb Code     8  rt_errno_addr_intlibspace.o(.text)
    __errno$intlibspace                      0x080007dd   Thumb Code     0  rt_errno_addr_intlibspace.o(.text)
    __rt_errno_addr$intlibspace              0x080007dd   Thumb Code     0  rt_errno_addr_intlibspace.o(.text)
    ferror                                   0x080007e5   Thumb Code     8  ferror.o(.text)
    __user_libspace                          0x080007ed   Thumb Code     8  libspace.o(.text)
    __user_perproc_libspace                  0x080007ed   Thumb Code     0  libspace.o(.text)
    __user_perthread_libspace                0x080007ed   Thumb Code     0  libspace.o(.text)
    __user_setup_stackheap                   0x080007f5   Thumb Code    74  sys_stackheap_outer.o(.text)
    exit                                     0x0800083f   Thumb Code    18  exit.o(.text)
    arm_cos_f32                              0x08000851   Thumb Code   152  arm_cos_f32.o(.text.arm_cos_f32)
    arm_sin_f32                              0x080008e9   Thumb Code   144  arm_sin_f32.o(.text.arm_sin_f32)
    ADC1_2_IRQHandler                        0x08000979   Thumb Code    18  stm32g4xx_it.o(i.ADC1_2_IRQHandler)
    ADC3_IRQHandler                          0x08000995   Thumb Code     6  stm32g4xx_it.o(i.ADC3_IRQHandler)
    ADC_Enable                               0x080009a1   Thumb Code   172  stm32g4xx_hal_adc.o(i.ADC_Enable)
    BSP_Init                                 0x08000a65   Thumb Code    48  bsp.o(i.BSP_Init)
    BusFault_Handler                         0x08000aa5   Thumb Code     2  stm32g4xx_it.o(i.BusFault_Handler)
    CC6920SO_CalcCur                         0x08000aa9   Thumb Code    68  cc6920so.o(i.CC6920SO_CalcCur)
    CC6920SO_Init                            0x08000afd   Thumb Code    54  cc6920so.o(i.CC6920SO_Init)
    DMA1_Channel1_IRQHandler                 0x08000bf1   Thumb Code     6  stm32g4xx_it.o(i.DMA1_Channel1_IRQHandler)
    DMA1_Channel2_IRQHandler                 0x08000bfd   Thumb Code     6  stm32g4xx_it.o(i.DMA1_Channel2_IRQHandler)
    DMA1_Channel3_IRQHandler                 0x08000c09   Thumb Code     6  stm32g4xx_it.o(i.DMA1_Channel3_IRQHandler)
    DebugMon_Handler                         0x08000c79   Thumb Code     2  stm32g4xx_it.o(i.DebugMon_Handler)
    Debug_Task                               0x08000c7d   Thumb Code   210  debug.o(i.Debug_Task)
    Error_Handler                            0x08000d5d   Thumb Code     4  main.o(i.Error_Handler)
    FOC_App_Run                              0x08000d61   Thumb Code    34  foc_app.o(i.FOC_App_Run)
    FOC_Clarke                               0x08000d8d   Thumb Code    22  foc_math.o(i.FOC_Clarke)
    FOC_Current_Calib                        0x08000da9   Thumb Code   170  foc_current.o(i.FOC_Current_Calib)
    FOC_ENC_Angle_Calc                       0x08000e95   Thumb Code    86  foc_encoder.o(i.FOC_ENC_Angle_Calc)
    FOC_ENC_IRQHandler                       0x08000ef1   Thumb Code    32  foc_encoder.o(i.FOC_ENC_IRQHandler)
    FOC_ENC_Init                             0x08000f2d   Thumb Code    18  foc_encoder.o(i.FOC_ENC_Init)
    FOC_ENC_Speed_Calc_M                     0x08000f41   Thumb Code   166  foc_encoder.o(i.FOC_ENC_Speed_Calc_M)
    FOC_Get_ENC_Count                        0x08000ff1   Thumb Code     8  foc_encoder.o(i.FOC_Get_ENC_Count)
    FOC_Get_ENC_Dir                          0x08000ffd   Thumb Code    16  foc_encoder.o(i.FOC_Get_ENC_Dir)
    FOC_HALL_Angle_Calc                      0x08001011   Thumb Code   160  foc_hall.o(i.FOC_HALL_Angle_Calc)
    FOC_HALL_CC_IRQ_Handler                  0x080010b9   Thumb Code   374  foc_hall.o(i.FOC_HALL_CC_IRQ_Handler)
    FOC_HALL_Init                            0x0800123d   Thumb Code   230  foc_hall.o(i.FOC_HALL_Init)
    FOC_HFI_Angle_Calc                       0x08001379   Thumb Code   180  foc_hfi.o(i.FOC_HFI_Angle_Calc)
    FOC_HFI_Init                             0x0800142d   Thumb Code    58  foc_hfi.o(i.FOC_HFI_Init)
    FOC_HFI_Inject                           0x08001467   Thumb Code    52  foc_hfi.o(i.FOC_HFI_Inject)
    FOC_HFI_InjectPolIdent                   0x0800149d   Thumb Code   198  foc_hfi.o(i.FOC_HFI_InjectPolIdent)
    FOC_HFI_Speed_Calc                       0x0800156d   Thumb Code    52  foc_hfi.o(i.FOC_HFI_Speed_Calc)
    FOC_HFI_alphabeta_HF                     0x080015a9   Thumb Code    22  foc_hfi.o(i.FOC_HFI_alphabeta_HF)
    FOC_HFI_alphabeta_LF                     0x080015bf   Thumb Code    22  foc_hfi.o(i.FOC_HFI_alphabeta_LF)
    FOC_Hall_Speed_Calc                      0x080015d5   Thumb Code    54  foc_hall.o(i.FOC_Hall_Speed_Calc)
    FOC_Init                                 0x08001615   Thumb Code   232  foc_app.o(i.FOC_Init)
    FOC_Motor_Init                           0x0800176d   Thumb Code     6  foc_motor.o(i.FOC_Motor_Init)
    FOC_Motor_Run                            0x08001775   Thumb Code   160  foc_motor.o(i.FOC_Motor_Run)
    FOC_Motor_Speed_Calc                     0x0800183d   Thumb Code    48  foc_motor.o(i.FOC_Motor_Speed_Calc)
    FOC_Motor_Speed_Ctrl                     0x0800186d   Thumb Code    68  foc_motor.o(i.FOC_Motor_Speed_Ctrl)
    FOC_PWM_Init                             0x080018b9   Thumb Code    26  foc_pwm.o(i.FOC_PWM_Init)
    FOC_PWM_Run                              0x080018d9   Thumb Code   106  foc_pwm.o(i.FOC_PWM_Run)
    FOC_Port_Pwm_Start                       0x08001945   Thumb Code    54  foc_port.o(i.FOC_Port_Pwm_Start)
    FOC_Port_Pwm_Stop                        0x08001981   Thumb Code    54  foc_port.o(i.FOC_Port_Pwm_Stop)
    FOC_Port_Start                           0x080019bd   Thumb Code    54  foc_port.o(i.FOC_Port_Start)
    FOC_Rev_Clarke                           0x08001a09   Thumb Code    38  foc_math.o(i.FOC_Rev_Clarke)
    FOC_Rev_Park                             0x08001a35   Thumb Code    68  foc_math.o(i.FOC_Rev_Park)
    FOC_SL_HFI_SMO_SW                        0x08001a79   Thumb Code   208  foc_sensorless.o(i.FOC_SL_HFI_SMO_SW)
    FOC_SL_RUN                               0x08001b55   Thumb Code   342  foc_sensorless.o(i.FOC_SL_RUN)
    FOC_SMO_Angle_Calc                       0x08001cb9   Thumb Code   242  foc_smo.o(i.FOC_SMO_Angle_Calc)
    FOC_SMO_Init                             0x08001db5   Thumb Code    52  foc_smo.o(i.FOC_SMO_Init)
    FOC_SMO_Speed_Calc                       0x08001de9   Thumb Code    86  foc_smo.o(i.FOC_SMO_Speed_Calc)
    FOC_Sensorless_Init                      0x08001e5d   Thumb Code   124  foc_sensorless.o(i.FOC_Sensorless_Init)
    FOC_Sensorless_Speed_Cale                0x08001edd   Thumb Code    64  foc_sensorless.o(i.FOC_Sensorless_Speed_Cale)
    FOC_Start                                0x08001f1d   Thumb Code     4  foc_app.o(i.FOC_Start)
    FOC_VF_Angle_Calc                        0x08001f21   Thumb Code    50  foc_vf.o(i.FOC_VF_Angle_Calc)
    FOC_VF_Init                              0x08001f53   Thumb Code    18  foc_vf.o(i.FOC_VF_Init)
    FOC_VF_Speed_Calc                        0x08001f65   Thumb Code    80  foc_vf.o(i.FOC_VF_Speed_Calc)
    FOC_turnOn_LowSide                       0x08001fbd   Thumb Code    18  foc_current.o(i.FOC_turnOn_LowSide)
    Foc_Current_Refresh                      0x08001fd5   Thumb Code   148  foc_port.o(i.Foc_Current_Refresh)
    Foc_Park                                 0x08002075   Thumb Code    68  foc_math.o(i.Foc_Park)
    HAL_ADCEx_EndOfSamplingCallback          0x080020b9   Thumb Code     2  stm32g4xx_hal_adc_ex.o(i.HAL_ADCEx_EndOfSamplingCallback)
    HAL_ADCEx_InjectedConfigChannel          0x080020bd   Thumb Code  1324  stm32g4xx_hal_adc_ex.o(i.HAL_ADCEx_InjectedConfigChannel)
    HAL_ADCEx_InjectedConvCpltCallback       0x0800261d   Thumb Code    64  bsp_irq.o(i.HAL_ADCEx_InjectedConvCpltCallback)
    HAL_ADCEx_InjectedGetValue               0x0800266d   Thumb Code    46  stm32g4xx_hal_adc_ex.o(i.HAL_ADCEx_InjectedGetValue)
    HAL_ADCEx_InjectedQueueOverflowCallback  0x0800269b   Thumb Code     2  stm32g4xx_hal_adc_ex.o(i.HAL_ADCEx_InjectedQueueOverflowCallback)
    HAL_ADCEx_InjectedStart_IT               0x0800269d   Thumb Code   320  stm32g4xx_hal_adc_ex.o(i.HAL_ADCEx_InjectedStart_IT)
    HAL_ADCEx_LevelOutOfWindow2Callback      0x080027f5   Thumb Code     2  stm32g4xx_hal_adc_ex.o(i.HAL_ADCEx_LevelOutOfWindow2Callback)
    HAL_ADCEx_LevelOutOfWindow3Callback      0x080027f7   Thumb Code     2  stm32g4xx_hal_adc_ex.o(i.HAL_ADCEx_LevelOutOfWindow3Callback)
    HAL_ADCEx_MultiModeConfigChannel         0x080027f9   Thumb Code   326  stm32g4xx_hal_adc_ex.o(i.HAL_ADCEx_MultiModeConfigChannel)
    HAL_ADC_ConfigChannel                    0x08002959   Thumb Code  1066  stm32g4xx_hal_adc.o(i.HAL_ADC_ConfigChannel)
    HAL_ADC_ConvCpltCallback                 0x08002dc5   Thumb Code     2  stm32g4xx_hal_adc.o(i.HAL_ADC_ConvCpltCallback)
    HAL_ADC_ErrorCallback                    0x08002dc7   Thumb Code     2  stm32g4xx_hal_adc.o(i.HAL_ADC_ErrorCallback)
    HAL_ADC_IRQHandler                       0x08002dc9   Thumb Code   674  stm32g4xx_hal_adc.o(i.HAL_ADC_IRQHandler)
    HAL_ADC_Init                             0x08003081   Thumb Code   510  stm32g4xx_hal_adc.o(i.HAL_ADC_Init)
    HAL_ADC_LevelOutOfWindowCallback         0x080032b1   Thumb Code     2  stm32g4xx_hal_adc.o(i.HAL_ADC_LevelOutOfWindowCallback)
    HAL_ADC_MspInit                          0x080032b5   Thumb Code   460  adc.o(i.HAL_ADC_MspInit)
    HAL_DMA_IRQHandler                       0x0800349d   Thumb Code   186  stm32g4xx_hal_dma.o(i.HAL_DMA_IRQHandler)
    HAL_DMA_Init                             0x08003559   Thumb Code   178  stm32g4xx_hal_dma.o(i.HAL_DMA_Init)
    HAL_GPIO_Init                            0x08003619   Thumb Code   550  stm32g4xx_hal_gpio.o(i.HAL_GPIO_Init)
    HAL_GPIO_ReadPin                         0x08003861   Thumb Code    10  stm32g4xx_hal_gpio.o(i.HAL_GPIO_ReadPin)
    HAL_GPIO_TogglePin                       0x0800386b   Thumb Code    16  stm32g4xx_hal_gpio.o(i.HAL_GPIO_TogglePin)
    HAL_GPIO_WritePin                        0x0800387b   Thumb Code    10  stm32g4xx_hal_gpio.o(i.HAL_GPIO_WritePin)
    HAL_GetTick                              0x08003885   Thumb Code     6  stm32g4xx_hal.o(i.HAL_GetTick)
    HAL_IncTick                              0x08003891   Thumb Code    12  stm32g4xx_hal.o(i.HAL_IncTick)
    HAL_Init                                 0x080038a1   Thumb Code    30  stm32g4xx_hal.o(i.HAL_Init)
    HAL_InitTick                             0x080038c1   Thumb Code    58  stm32g4xx_hal.o(i.HAL_InitTick)
    HAL_MspInit                              0x08003905   Thumb Code    54  stm32g4xx_hal_msp.o(i.HAL_MspInit)
    HAL_NVIC_EnableIRQ                       0x08003941   Thumb Code    26  stm32g4xx_hal_cortex.o(i.HAL_NVIC_EnableIRQ)
    HAL_NVIC_SetPriority                     0x0800395d   Thumb Code    60  stm32g4xx_hal_cortex.o(i.HAL_NVIC_SetPriority)
    HAL_NVIC_SetPriorityGrouping             0x0800399d   Thumb Code    26  stm32g4xx_hal_cortex.o(i.HAL_NVIC_SetPriorityGrouping)
    HAL_PCDEx_ActivateLPM                    0x080039c1   Thumb Code    36  stm32g4xx_hal_pcd_ex.o(i.HAL_PCDEx_ActivateLPM)
    HAL_PCDEx_LPM_Callback                   0x080039e5   Thumb Code     2  stm32g4xx_hal_pcd_ex.o(i.HAL_PCDEx_LPM_Callback)
    HAL_PCDEx_PMAConfig                      0x080039e7   Thumb Code    60  stm32g4xx_hal_pcd_ex.o(i.HAL_PCDEx_PMAConfig)
    HAL_PCD_DataInStageCallback              0x08003a23   Thumb Code    18  usbd_conf.o(i.HAL_PCD_DataInStageCallback)
    HAL_PCD_DataOutStageCallback             0x08003a35   Thumb Code    20  usbd_conf.o(i.HAL_PCD_DataOutStageCallback)
    HAL_PCD_EP_Close                         0x08003a49   Thumb Code    74  stm32g4xx_hal_pcd.o(i.HAL_PCD_EP_Close)
    HAL_PCD_EP_ClrStall                      0x08003a93   Thumb Code    90  stm32g4xx_hal_pcd.o(i.HAL_PCD_EP_ClrStall)
    HAL_PCD_EP_GetRxCount                    0x08003f09   Thumb Code    18  stm32g4xx_hal_pcd.o(i.HAL_PCD_EP_GetRxCount)
    HAL_PCD_EP_Open                          0x08003f1b   Thumb Code    88  stm32g4xx_hal_pcd.o(i.HAL_PCD_EP_Open)
    HAL_PCD_EP_Receive                       0x08003f73   Thumb Code    46  stm32g4xx_hal_pcd.o(i.HAL_PCD_EP_Receive)
    HAL_PCD_EP_SetStall                      0x08003fa1   Thumb Code    94  stm32g4xx_hal_pcd.o(i.HAL_PCD_EP_SetStall)
    HAL_PCD_EP_Transmit                      0x08003fff   Thumb Code    46  stm32g4xx_hal_pcd.o(i.HAL_PCD_EP_Transmit)
    HAL_PCD_IRQHandler                       0x0800402d   Thumb Code   330  stm32g4xx_hal_pcd.o(i.HAL_PCD_IRQHandler)
    HAL_PCD_Init                             0x08004179   Thumb Code   156  stm32g4xx_hal_pcd.o(i.HAL_PCD_Init)
    HAL_PCD_MspInit                          0x08004215   Thumb Code    80  usb.o(i.HAL_PCD_MspInit)
    HAL_PCD_ResetCallback                    0x0800426d   Thumb Code    44  usbd_conf.o(i.HAL_PCD_ResetCallback)
    HAL_PCD_ResumeCallback                   0x080042d1   Thumb Code    40  usbd_conf.o(i.HAL_PCD_ResumeCallback)
    HAL_PCD_SOFCallback                      0x08004311   Thumb Code     8  usbd_conf.o(i.HAL_PCD_SOFCallback)
    HAL_PCD_SetAddress                       0x08004319   Thumb Code    38  stm32g4xx_hal_pcd.o(i.HAL_PCD_SetAddress)
    HAL_PCD_SetupStageCallback               0x0800433f   Thumb Code    14  usbd_conf.o(i.HAL_PCD_SetupStageCallback)
    HAL_PCD_Start                            0x0800434d   Thumb Code    42  stm32g4xx_hal_pcd.o(i.HAL_PCD_Start)
    HAL_PCD_SuspendCallback                  0x08004379   Thumb Code    42  usbd_conf.o(i.HAL_PCD_SuspendCallback)
    HAL_PWREx_ControlVoltageScaling          0x080043c9   Thumb Code   174  stm32g4xx_hal_pwr_ex.o(i.HAL_PWREx_ControlVoltageScaling)
    HAL_PWREx_DisableUCPDDeadBattery         0x08004485   Thumb Code    12  stm32g4xx_hal_pwr_ex.o(i.HAL_PWREx_DisableUCPDDeadBattery)
    HAL_RCCEx_CRSConfig                      0x08004495   Thumb Code    66  stm32g4xx_hal_rcc_ex.o(i.HAL_RCCEx_CRSConfig)
    HAL_RCCEx_PeriphCLKConfig                0x080044e1   Thumb Code   758  stm32g4xx_hal_rcc_ex.o(i.HAL_RCCEx_PeriphCLKConfig)
    HAL_RCC_ClockConfig                      0x080047e1   Thumb Code   444  stm32g4xx_hal_rcc.o(i.HAL_RCC_ClockConfig)
    HAL_RCC_GetPCLK1Freq                     0x080049bd   Thumb Code    24  stm32g4xx_hal_rcc.o(i.HAL_RCC_GetPCLK1Freq)
    HAL_RCC_GetPCLK2Freq                     0x080049e1   Thumb Code    24  stm32g4xx_hal_rcc.o(i.HAL_RCC_GetPCLK2Freq)
    HAL_RCC_GetSysClockFreq                  0x08004a05   Thumb Code    98  stm32g4xx_hal_rcc.o(i.HAL_RCC_GetSysClockFreq)
    HAL_RCC_OscConfig                        0x08004a75   Thumb Code  1028  stm32g4xx_hal_rcc.o(i.HAL_RCC_OscConfig)
    HAL_SYSCFG_DisableVREFBUF                0x08004e79   Thumb Code    12  stm32g4xx_hal.o(i.HAL_SYSCFG_DisableVREFBUF)
    HAL_SYSCFG_VREFBUF_HighImpedanceConfig   0x08004e89   Thumb Code    14  stm32g4xx_hal.o(i.HAL_SYSCFG_VREFBUF_HighImpedanceConfig)
    HAL_SYSTICK_CLKSourceConfig              0x08004e9d   Thumb Code    24  stm32g4xx_hal_cortex.o(i.HAL_SYSTICK_CLKSourceConfig)
    HAL_SYSTICK_Config                       0x08004eb5   Thumb Code    40  stm32g4xx_hal_cortex.o(i.HAL_SYSTICK_Config)
    HAL_TIMEx_Break2Callback                 0x08004edd   Thumb Code     2  stm32g4xx_hal_tim_ex.o(i.HAL_TIMEx_Break2Callback)
    HAL_TIMEx_BreakCallback                  0x08004edf   Thumb Code     2  stm32g4xx_hal_tim_ex.o(i.HAL_TIMEx_BreakCallback)
    HAL_TIMEx_CommutCallback                 0x08004ee1   Thumb Code     2  stm32g4xx_hal_tim_ex.o(i.HAL_TIMEx_CommutCallback)
    HAL_TIMEx_ConfigBreakDeadTime            0x08004ee5   Thumb Code   154  stm32g4xx_hal_tim_ex.o(i.HAL_TIMEx_ConfigBreakDeadTime)
    HAL_TIMEx_DirectionChangeCallback        0x08004f8d   Thumb Code     2  stm32g4xx_hal_tim_ex.o(i.HAL_TIMEx_DirectionChangeCallback)
    HAL_TIMEx_EncoderIndexCallback           0x08004f8f   Thumb Code     2  stm32g4xx_hal_tim_ex.o(i.HAL_TIMEx_EncoderIndexCallback)
    HAL_TIMEx_HallSensor_Init                0x08004f91   Thumb Code   208  stm32g4xx_hal_tim_ex.o(i.HAL_TIMEx_HallSensor_Init)
    HAL_TIMEx_HallSensor_MspInit             0x0800506d   Thumb Code   102  tim.o(i.HAL_TIMEx_HallSensor_MspInit)
    HAL_TIMEx_HallSensor_Start_IT            0x080050dd   Thumb Code   156  stm32g4xx_hal_tim_ex.o(i.HAL_TIMEx_HallSensor_Start_IT)
    HAL_TIMEx_IndexErrorCallback             0x08005199   Thumb Code     2  stm32g4xx_hal_tim_ex.o(i.HAL_TIMEx_IndexErrorCallback)
    HAL_TIMEx_MasterConfigSynchronization    0x0800519d   Thumb Code   150  stm32g4xx_hal_tim_ex.o(i.HAL_TIMEx_MasterConfigSynchronization)
    HAL_TIMEx_PWMN_Start                     0x08005255   Thumb Code   170  stm32g4xx_hal_tim_ex.o(i.HAL_TIMEx_PWMN_Start)
    HAL_TIMEx_PWMN_Stop                      0x08005321   Thumb Code   104  stm32g4xx_hal_tim_ex.o(i.HAL_TIMEx_PWMN_Stop)
    HAL_TIMEx_TransitionErrorCallback        0x08005389   Thumb Code     2  stm32g4xx_hal_tim_ex.o(i.HAL_TIMEx_TransitionErrorCallback)
    HAL_TIM_Base_Init                        0x0800538b   Thumb Code    98  stm32g4xx_hal_tim.o(i.HAL_TIM_Base_Init)
    HAL_TIM_Base_MspInit                     0x080053ed   Thumb Code    50  tim.o(i.HAL_TIM_Base_MspInit)
    HAL_TIM_Base_Start_IT                    0x08005429   Thumb Code   106  stm32g4xx_hal_tim.o(i.HAL_TIM_Base_Start_IT)
    HAL_TIM_Encoder_Init                     0x080054b5   Thumb Code   162  stm32g4xx_hal_tim.o(i.HAL_TIM_Encoder_Init)
    HAL_TIM_Encoder_MspInit                  0x0800555d   Thumb Code    84  tim.o(i.HAL_TIM_Encoder_MspInit)
    HAL_TIM_Encoder_Start                    0x080055bd   Thumb Code   142  stm32g4xx_hal_tim.o(i.HAL_TIM_Encoder_Start)
    HAL_TIM_IC_CaptureCallback               0x0800564d   Thumb Code    38  bsp_irq.o(i.HAL_TIM_IC_CaptureCallback)
    HAL_TIM_IC_ConfigChannel                 0x08005681   Thumb Code   292  stm32g4xx_hal_tim.o(i.HAL_TIM_IC_ConfigChannel)
    HAL_TIM_IC_Init                          0x080057a5   Thumb Code    98  stm32g4xx_hal_tim.o(i.HAL_TIM_IC_Init)
    HAL_TIM_IC_MspInit                       0x08005809   Thumb Code   102  tim.o(i.HAL_TIM_IC_MspInit)
    HAL_TIM_IC_Start_IT                      0x08005879   Thumb Code   286  stm32g4xx_hal_tim.o(i.HAL_TIM_IC_Start_IT)
    HAL_TIM_IRQHandler                       0x080059b9   Thumb Code   418  stm32g4xx_hal_tim.o(i.HAL_TIM_IRQHandler)
    HAL_TIM_MspPostInit                      0x08005b5d   Thumb Code   136  tim.o(i.HAL_TIM_MspPostInit)
    HAL_TIM_OC_DelayElapsedCallback          0x08005bf1   Thumb Code     2  bsp_irq.o(i.HAL_TIM_OC_DelayElapsedCallback)
    HAL_TIM_OC_Start_IT                      0x08005bf5   Thumb Code   278  stm32g4xx_hal_tim.o(i.HAL_TIM_OC_Start_IT)
    HAL_TIM_OC_Stop_IT                       0x08005d35   Thumb Code   222  stm32g4xx_hal_tim.o(i.HAL_TIM_OC_Stop_IT)
    HAL_TIM_PWM_ConfigChannel                0x08005e2d   Thumb Code   292  stm32g4xx_hal_tim.o(i.HAL_TIM_PWM_ConfigChannel)
    HAL_TIM_PWM_Init                         0x08005f51   Thumb Code    98  stm32g4xx_hal_tim.o(i.HAL_TIM_PWM_Init)
    HAL_TIM_PWM_MspInit                      0x08005fb5   Thumb Code    50  tim.o(i.HAL_TIM_PWM_MspInit)
    HAL_TIM_PWM_PulseFinishedCallback        0x08005ff1   Thumb Code     2  stm32g4xx_hal_tim.o(i.HAL_TIM_PWM_PulseFinishedCallback)
    HAL_TIM_PWM_Start                        0x08005ff5   Thumb Code   234  stm32g4xx_hal_tim.o(i.HAL_TIM_PWM_Start)
    HAL_TIM_PWM_Stop                         0x08006109   Thumb Code   158  stm32g4xx_hal_tim.o(i.HAL_TIM_PWM_Stop)
    HAL_TIM_PeriodElapsedCallback            0x080061c1   Thumb Code    38  bsp_irq.o(i.HAL_TIM_PeriodElapsedCallback)
    HAL_TIM_TriggerCallback                  0x080061f9   Thumb Code     2  stm32g4xx_hal_tim.o(i.HAL_TIM_TriggerCallback)
    HAL_UARTEx_DisableFifoMode               0x080061fb   Thumb Code    62  stm32g4xx_hal_uart_ex.o(i.HAL_UARTEx_DisableFifoMode)
    HAL_UARTEx_SetRxFifoThreshold            0x08006239   Thumb Code    76  stm32g4xx_hal_uart_ex.o(i.HAL_UARTEx_SetRxFifoThreshold)
    HAL_UARTEx_SetTxFifoThreshold            0x08006285   Thumb Code    76  stm32g4xx_hal_uart_ex.o(i.HAL_UARTEx_SetTxFifoThreshold)
    HAL_UART_Init                            0x080062d1   Thumb Code   106  stm32g4xx_hal_uart.o(i.HAL_UART_Init)
    HAL_UART_MspInit                         0x0800633d   Thumb Code   112  usart.o(i.HAL_UART_MspInit)
    HardFault_Handler                        0x080063b9   Thumb Code     2  stm32g4xx_it.o(i.HardFault_Handler)
    Limit_Angle                              0x08006499   Thumb Code    36  foc_math.o(i.Limit_Angle)
    MX_ADC1_Init                             0x080064c5   Thumb Code   220  adc.o(i.MX_ADC1_Init)
    MX_ADC2_Init                             0x080065a9   Thumb Code   186  adc.o(i.MX_ADC2_Init)
    MX_ADC3_Init                             0x08006671   Thumb Code   218  adc.o(i.MX_ADC3_Init)
    MX_DMA_Init                              0x08006759   Thumb Code    88  dma.o(i.MX_DMA_Init)
    MX_GPIO_Init                             0x080067b5   Thumb Code   104  gpio.o(i.MX_GPIO_Init)
    MX_TIM1_Init                             0x08006821   Thumb Code   260  tim.o(i.MX_TIM1_Init)
    MX_TIM2_Init                             0x0800692d   Thumb Code   102  tim.o(i.MX_TIM2_Init)
    MX_TIM3_Init                             0x08006999   Thumb Code   102  tim.o(i.MX_TIM3_Init)
    MX_TIM5_Init                             0x08006a09   Thumb Code    80  tim.o(i.MX_TIM5_Init)
    MX_TIM6_Init                             0x08006a65   Thumb Code    64  tim.o(i.MX_TIM6_Init)
    MX_USART1_UART_Init                      0x08006aad   Thumb Code    94  usart.o(i.MX_USART1_UART_Init)
    MX_USB_Device_Init                       0x08006b15   Thumb Code    42  usb_device.o(i.MX_USB_Device_Init)
    MX_USB_PCD_Init                          0x08006b51   Thumb Code    46  usb.o(i.MX_USB_PCD_Init)
    MemManage_Handler                        0x08006b89   Thumb Code     2  stm32g4xx_it.o(i.MemManage_Handler)
    Motor_ABZ_ENC_RUN                        0x08006b8b   Thumb Code   220  foc_motor.o(i.Motor_ABZ_ENC_RUN)
    Motor_HALL_RUN                           0x08006c67   Thumb Code   220  foc_motor.o(i.Motor_HALL_RUN)
    Motor_Run_Open                           0x08006d43   Thumb Code   136  foc_motor.o(i.Motor_Run_Open)
    Motor_SL_RUN                             0x08006dcd   Thumb Code   374  foc_motor.o(i.Motor_SL_RUN)
    Move_Filter_Clear                        0x08006f49   Thumb Code    44  foc_filter.o(i.Move_Filter_Clear)
    Move_Filter_Init                         0x08006f79   Thumb Code    34  foc_filter.o(i.Move_Filter_Init)
    Move_Filter_calculate                    0x08006f9d   Thumb Code    60  foc_filter.o(i.Move_Filter_calculate)
    Move_Filter_fill                         0x08006fdd   Thumb Code    74  foc_filter.o(i.Move_Filter_fill)
    NMI_Handler                              0x08007027   Thumb Code     2  stm32g4xx_it.o(i.NMI_Handler)
    PID_Clear                                0x080073c1   Thumb Code    54  foc_pid.o(i.PID_Clear)
    PID_Init                                 0x080073fd   Thumb Code    38  foc_pid.o(i.PID_Init)
    PID_Position_ctrl                        0x08007429   Thumb Code   588  foc_pid.o(i.PID_Position_ctrl)
    PLL_Cale_HFI                             0x08007681   Thumb Code   158  foc_filter.o(i.PLL_Cale_HFI)
    PLL_Cale_SMO                             0x08007729   Thumb Code   162  foc_filter.o(i.PLL_Cale_SMO)
    PLL_Clear                                0x080077d5   Thumb Code    30  foc_filter.o(i.PLL_Clear)
    PLL_Init                                 0x080077f9   Thumb Code    12  foc_filter.o(i.PLL_Init)
    PendSV_Handler                           0x08007805   Thumb Code     2  stm32g4xx_it.o(i.PendSV_Handler)
    SVC_Handler                              0x08007807   Thumb Code     2  stm32g4xx_it.o(i.SVC_Handler)
    SysTick_Handler                          0x080078b9   Thumb Code    38  stm32g4xx_it.o(i.SysTick_Handler)
    SystemClock_Config                       0x080078e5   Thumb Code   110  main.o(i.SystemClock_Config)
    SystemInit                               0x08007955   Thumb Code    12  system_stm32g4xx.o(i.SystemInit)
    TIM1_UP_TIM16_IRQHandler                 0x08007965   Thumb Code     6  stm32g4xx_it.o(i.TIM1_UP_TIM16_IRQHandler)
    TIM2_IRQHandler                          0x08007971   Thumb Code     6  stm32g4xx_it.o(i.TIM2_IRQHandler)
    TIM5_IRQHandler                          0x0800797d   Thumb Code     6  stm32g4xx_it.o(i.TIM5_IRQHandler)
    TIM6_DAC_IRQHandler                      0x08007989   Thumb Code     6  stm32g4xx_it.o(i.TIM6_DAC_IRQHandler)
    TIM_Base_SetConfig                       0x08007995   Thumb Code   190  stm32g4xx_hal_tim.o(i.TIM_Base_SetConfig)
    TIM_CCxChannelCmd                        0x08007a79   Thumb Code    26  stm32g4xx_hal_tim.o(i.TIM_CCxChannelCmd)
    TIM_OC2_SetConfig                        0x08007b59   Thumb Code   132  stm32g4xx_hal_tim.o(i.TIM_OC2_SetConfig)
    TIM_TI1_SetConfig                        0x08007e2d   Thumb Code   100  stm32g4xx_hal_tim.o(i.TIM_TI1_SetConfig)
    UART_AdvFeatureConfig                    0x08007f29   Thumb Code   200  stm32g4xx_hal_uart.o(i.UART_AdvFeatureConfig)
    UART_CheckIdleState                      0x08007ff1   Thumb Code   172  stm32g4xx_hal_uart.o(i.UART_CheckIdleState)
    UART_SetConfig                           0x080080f1   Thumb Code   614  stm32g4xx_hal_uart.o(i.UART_SetConfig)
    UART_WaitOnFlagUntilTimeout              0x08008389   Thumb Code   148  stm32g4xx_hal_uart.o(i.UART_WaitOnFlagUntilTimeout)
    USBD_CDC_ConfigStrDescriptor             0x0800841d   Thumb Code    16  usbd_desc.o(i.USBD_CDC_ConfigStrDescriptor)
    USBD_CDC_DeviceDescriptor                0x08008505   Thumb Code     8  usbd_desc.o(i.USBD_CDC_DeviceDescriptor)
    USBD_CDC_GetDeviceQualifierDescriptor    0x08008541   Thumb Code     8  usbd_cdc.o(i.USBD_CDC_GetDeviceQualifierDescriptor)
    USBD_CDC_InterfaceStrDescriptor          0x08008601   Thumb Code    16  usbd_desc.o(i.USBD_CDC_InterfaceStrDescriptor)
    USBD_CDC_LangIDStrDescriptor             0x08008625   Thumb Code     8  usbd_desc.o(i.USBD_CDC_LangIDStrDescriptor)
    USBD_CDC_ManufacturerStrDescriptor       0x08008631   Thumb Code    16  usbd_desc.o(i.USBD_CDC_ManufacturerStrDescriptor)
    USBD_CDC_ProductStrDescriptor            0x08008659   Thumb Code    16  usbd_desc.o(i.USBD_CDC_ProductStrDescriptor)
    USBD_CDC_ReceivePacket                   0x08008691   Thumb Code    40  usbd_cdc.o(i.USBD_CDC_ReceivePacket)
    USBD_CDC_RegisterInterface               0x080086b9   Thumb Code    14  usbd_cdc.o(i.USBD_CDC_RegisterInterface)
    USBD_CDC_SerialStrDescriptor             0x080086c9   Thumb Code    48  usbd_desc.o(i.USBD_CDC_SerialStrDescriptor)
    USBD_CDC_SetRxBuffer                     0x08008701   Thumb Code    18  usbd_cdc.o(i.USBD_CDC_SetRxBuffer)
    USBD_CDC_SetTxBuffer                     0x08008713   Thumb Code    22  usbd_cdc.o(i.USBD_CDC_SetTxBuffer)
    USBD_CDC_TransmitPacket                  0x080087e7   Thumb Code    54  usbd_cdc.o(i.USBD_CDC_TransmitPacket)
    USBD_Clock_Config                        0x0800881d   Thumb Code    88  usb_device.o(i.USBD_Clock_Config)
    USBD_ClrClassConfig                      0x08008879   Thumb Code    16  usbd_core.o(i.USBD_ClrClassConfig)
    USBD_CtlContinueRx                       0x08008889   Thumb Code    16  usbd_ioreq.o(i.USBD_CtlContinueRx)
    USBD_CtlContinueSendData                 0x08008899   Thumb Code    16  usbd_ioreq.o(i.USBD_CtlContinueSendData)
    USBD_CtlError                            0x080088a9   Thumb Code    22  usbd_ctlreq.o(i.USBD_CtlError)
    USBD_CtlPrepareRx                        0x080088bf   Thumb Code    30  usbd_ioreq.o(i.USBD_CtlPrepareRx)
    USBD_CtlReceiveStatus                    0x080088dd   Thumb Code    22  usbd_ioreq.o(i.USBD_CtlReceiveStatus)
    USBD_CtlSendData                         0x080088f3   Thumb Code    26  usbd_ioreq.o(i.USBD_CtlSendData)
    USBD_CtlSendStatus                       0x0800890d   Thumb Code    22  usbd_ioreq.o(i.USBD_CtlSendStatus)
    USBD_GetString                           0x08008a09   Thumb Code    72  usbd_ctlreq.o(i.USBD_GetString)
    USBD_Init                                0x08008a69   Thumb Code    38  usbd_core.o(i.USBD_Init)
    USBD_LL_ClearStallEP                     0x08008a8f   Thumb Code    18  usbd_conf.o(i.USBD_LL_ClearStallEP)
    USBD_LL_CloseEP                          0x08008aa1   Thumb Code    18  usbd_conf.o(i.USBD_LL_CloseEP)
    USBD_LL_DataInStage                      0x08008ab3   Thumb Code   168  usbd_core.o(i.USBD_LL_DataInStage)
    USBD_LL_DataOutStage                     0x08008b5b   Thumb Code   108  usbd_core.o(i.USBD_LL_DataOutStage)
    USBD_LL_GetRxDataSize                    0x08008bc7   Thumb Code     8  usbd_conf.o(i.USBD_LL_GetRxDataSize)
    USBD_LL_Init                             0x08008bd1   Thumb Code   108  usbd_conf.o(i.USBD_LL_Init)
    USBD_LL_IsStallEP                        0x08008c45   Thumb Code    30  usbd_conf.o(i.USBD_LL_IsStallEP)
    USBD_LL_OpenEP                           0x08008c63   Thumb Code    24  usbd_conf.o(i.USBD_LL_OpenEP)
    USBD_LL_PrepareReceive                   0x08008c7b   Thumb Code    18  usbd_conf.o(i.USBD_LL_PrepareReceive)
    USBD_LL_Reset                            0x08008c8d   Thumb Code    90  usbd_core.o(i.USBD_LL_Reset)
    USBD_LL_Resume                           0x08008ce7   Thumb Code    20  usbd_core.o(i.USBD_LL_Resume)
    USBD_LL_SOF                              0x08008cfb   Thumb Code    32  usbd_core.o(i.USBD_LL_SOF)
    USBD_LL_SetSpeed                         0x08008d1b   Thumb Code     6  usbd_core.o(i.USBD_LL_SetSpeed)
    USBD_LL_SetUSBAddress                    0x08008d21   Thumb Code    24  usbd_conf.o(i.USBD_LL_SetUSBAddress)
    USBD_LL_SetupStage                       0x08008d3d   Thumb Code    96  usbd_core.o(i.USBD_LL_SetupStage)
    USBD_LL_StallEP                          0x08008d9d   Thumb Code    18  usbd_conf.o(i.USBD_LL_StallEP)
    USBD_LL_Start                            0x08008daf   Thumb Code    18  usbd_conf.o(i.USBD_LL_Start)
    USBD_LL_Suspend                          0x08008dc1   Thumb Code    18  usbd_core.o(i.USBD_LL_Suspend)
    USBD_LL_Transmit                         0x08008dd3   Thumb Code    18  usbd_conf.o(i.USBD_LL_Transmit)
    USBD_ParseSetupRequest                   0x08008de5   Thumb Code    44  usbd_ctlreq.o(i.USBD_ParseSetupRequest)
    USBD_RegisterClass                       0x08008e11   Thumb Code    36  usbd_core.o(i.USBD_RegisterClass)
    USBD_SetClassConfig                      0x08008e35   Thumb Code    20  usbd_core.o(i.USBD_SetClassConfig)
    USBD_Start                               0x08008f05   Thumb Code     4  usbd_core.o(i.USBD_Start)
    USBD_StdDevReq                           0x08008f09   Thumb Code   276  usbd_ctlreq.o(i.USBD_StdDevReq)
    USBD_StdEPReq                            0x0800901d   Thumb Code   320  usbd_ctlreq.o(i.USBD_StdEPReq)
    USBD_StdItfReq                           0x0800915d   Thumb Code    82  usbd_ctlreq.o(i.USBD_StdItfReq)
    USB_ActivateEndpoint                     0x080091af   Thumb Code   668  stm32g4xx_ll_usb.o(i.USB_ActivateEndpoint)
    USB_DeactivateEndpoint                   0x0800944b   Thumb Code   270  stm32g4xx_ll_usb.o(i.USB_DeactivateEndpoint)
    USB_DevConnect                           0x08009559   Thumb Code    14  stm32g4xx_ll_usb.o(i.USB_DevConnect)
    USB_DevInit                              0x08009567   Thumb Code    18  stm32g4xx_ll_usb.o(i.USB_DevInit)
    USB_DisableGlobalInt                     0x08009579   Thumb Code    16  stm32g4xx_ll_usb.o(i.USB_DisableGlobalInt)
    USB_EPClearStall                         0x08009589   Thumb Code   120  stm32g4xx_ll_usb.o(i.USB_EPClearStall)
    USB_EPSetStall                           0x08009601   Thumb Code    50  stm32g4xx_ll_usb.o(i.USB_EPSetStall)
    USB_EPStartXfer                          0x08009633   Thumb Code  1250  stm32g4xx_ll_usb.o(i.USB_EPStartXfer)
    USB_EnableGlobalInt                      0x08009b15   Thumb Code    18  stm32g4xx_ll_usb.o(i.USB_EnableGlobalInt)
    USB_LP_IRQHandler                        0x08009b29   Thumb Code     6  stm32g4xx_it.o(i.USB_LP_IRQHandler)
    USB_ReadInterrupts                       0x08009b35   Thumb Code     6  stm32g4xx_ll_usb.o(i.USB_ReadInterrupts)
    USB_ReadPMA                              0x08009b3b   Thumb Code    40  stm32g4xx_ll_usb.o(i.USB_ReadPMA)
    USB_SetDevAddress                        0x08009b63   Thumb Code    12  stm32g4xx_ll_usb.o(i.USB_SetDevAddress)
    USB_WritePMA                             0x08009b71   Thumb Code    38  stm32g4xx_ll_usb.o(i.USB_WritePMA)
    UsageFault_Handler                       0x08009b97   Thumb Code     2  stm32g4xx_it.o(i.UsageFault_Handler)
    _MecAngle_to_ElAngle                     0x08009d01   Thumb Code    14  foc_math.o(i._MecAngle_to_ElAngle)
    __hardfp_fmodf                           0x08009d4d   Thumb Code   176  fmodf.o(i.__hardfp_fmodf)
    __mathlib_flt_invalid                    0x08009dfd   Thumb Code    10  funder.o(i.__mathlib_flt_invalid)
    _is_digit                                0x08009e0d   Thumb Code    14  __printf_wp.o(i._is_digit)
    _sys_exit                                0x08009e1b   Thumb Code     2  my_usart.o(i._sys_exit)
    cdc_vcp_data_rx                          0x08009e1d   Thumb Code    78  usbd_cdc_if.o(i.cdc_vcp_data_rx)
    cdc_vcp_data_tx                          0x08009e75   Thumb Code    28  usbd_cdc_if.o(i.cdc_vcp_data_tx)
    delay_init                               0x08009e95   Thumb Code    44  delay.o(i.delay_init)
    delay_ms                                 0x08009ec5   Thumb Code    26  delay.o(i.delay_ms)
    delay_us                                 0x08009ee1   Thumb Code    48  delay.o(i.delay_us)
    fputc                                    0x08009f15   Thumb Code    18  my_usart.o(i.fputc)
    main                                     0x08009f2d   Thumb Code    66  main.o(i.main)
    uart_init                                0x08009f71   Thumb Code    28  my_usart.o(i.uart_init)
    __fpl_fnaninf                            0x08009f95   Thumb Code   140  fnaninf.o(x$fpl$fnaninf)
    _fp_init                                 0x0800a021   Thumb Code    10  fpinit.o(x$fpl$fpinit)
    __fplib_config_fpu_vfp                   0x0800a029   Thumb Code     0  fpinit.o(x$fpl$fpinit)
    __fplib_config_pureend_doubles           0x0800a029   Thumb Code     0  fpinit.o(x$fpl$fpinit)
    _frem                                    0x0800a02d   Thumb Code   240  frem_clz.o(x$fpl$frem)
    __aeabi_f2lz                             0x0800a121   Thumb Code     0  ffixll.o(x$fpl$llsfromf)
    _ll_sfrom_f                              0x0800a121   Thumb Code   134  ffixll.o(x$fpl$llsfromf)
    UARTPrescTable                           0x0800a1a6   Data          24  stm32g4xx_hal_uart.o(.constdata)
    __I$use$fp                               0x0800a1a6   Number         0  usenofp.o(x$fpl$usenofp)
    AHBPrescTable                            0x0800a1ce   Data          16  system_stm32g4xx.o(.constdata)
    APBPrescTable                            0x0800a1de   Data           8  system_stm32g4xx.o(.constdata)
    sinTable_f32                             0x0800a298   Data        2052  arm_common_tables.o(.rodata.sinTable_f32)
    Region$$Table$$Base                      0x0800aa9c   Number         0  anon$$obj.o(Region$$Table)
    Region$$Table$$Limit                     0x0800aabc   Number         0  anon$$obj.o(Region$$Table)
    SysTick_count                            0x20000004   Data           4  stm32g4xx_it.o(.data)
    uwTickPrio                               0x20000008   Data           4  stm32g4xx_hal.o(.data)
    uwTickFreq                               0x2000000c   Data           4  stm32g4xx_hal.o(.data)
    uwTick                                   0x20000010   Data           4  stm32g4xx_hal.o(.data)
    SystemCoreClock                          0x20000014   Data           4  system_stm32g4xx.o(.data)
    u32SysTickCount                          0x2000001c   Data           4  delay.o(.data)
    __stdout                                 0x20000020   Data           4  my_usart.o(.data)
    adc_flag                                 0x20000024   Data           3  bsp_irq.o(.data)
    USBD_CDC                                 0x20000100   Data          56  usbd_cdc.o(.data)
    g_usb_usart_rx_sta                       0x20000138   Data           2  usbd_cdc_if.o(.data)
    LineCoding                               0x2000013c   Data           8  usbd_cdc_if.o(.data)
    USBD_Interface_fops_FS                   0x20000144   Data          20  usbd_cdc_if.o(.data)
    g_device_state                           0x20000158   Data           1  usbd_conf.o(.data)
    CDC_Desc                                 0x2000015c   Data          28  usbd_desc.o(.data)
    USBD_LangIDDesc                          0x20000178   Data           4  usbd_desc.o(.data)
    USBD_CDC_DeviceDesc                      0x2000017c   Data          18  usbd_desc.o(.data)
    USBD_StringSerial                        0x20000190   Data          26  usbd_desc.o(.data)
    VOFA_Handle                              0x200001ac   Data          84  debug.o(.data)
    FOC_MOTOR                                0x20000200   Data       13492  foc_app.o(.data)
    hadc1                                    0x200036b4   Data         108  adc.o(.bss)
    hadc2                                    0x20003720   Data         108  adc.o(.bss)
    hadc3                                    0x2000378c   Data         108  adc.o(.bss)
    hdma_adc1                                0x200037f8   Data          96  adc.o(.bss)
    hdma_adc2                                0x20003858   Data          96  adc.o(.bss)
    hdma_adc3                                0x200038b8   Data          96  adc.o(.bss)
    htim1                                    0x20003918   Data          76  tim.o(.bss)
    htim2                                    0x20003964   Data          76  tim.o(.bss)
    htim3                                    0x200039b0   Data          76  tim.o(.bss)
    htim5                                    0x200039fc   Data          76  tim.o(.bss)
    htim6                                    0x20003a48   Data          76  tim.o(.bss)
    huart1                                   0x20003a94   Data         148  usart.o(.bss)
    hpcd_USB_FS                              0x20003b28   Data         732  usb.o(.bss)
    USBD_CDC_Handle                          0x20003e04   Data         540  usbd_cdc.o(.bss)
    hUsbDeviceFS                             0x20004020   Data         720  usb_device.o(.bss)
    g_usb_usart_printf_buffer                0x200042f0   Data         200  usbd_cdc_if.o(.bss)
    g_usb_rx_buffer                          0x200043b8   Data         200  usbd_cdc_if.o(.bss)
    g_usb_usart_rx_buffer                    0x20004480   Data         200  usbd_cdc_if.o(.bss)
    USBD_StrDesc                             0x20004548   Data         256  usbd_desc.o(.bss)
    __libspace_start                         0x20004648   Data          96  libspace.o(.bss)
    __temporary_stack_top$libspace           0x200046a8   Data           0  libspace.o(.bss)



==============================================================================

Memory Map of the image

  Image Entry point : 0x080001d9

  Load Region LR_IROM1 (Base: 0x08000000, Size: 0x0000e170, Max: 0x00020000, ABSOLUTE, COMPRESSED[0x0000ac78])

    Execution Region ER_IROM1 (Base: 0x08000000, Size: 0x0000aabc, Max: 0x00020000, ABSOLUTE)

    Base Addr    Size         Type   Attr      Idx    E Section Name        Object

    0x08000000   0x000001d8   Data   RO            3    RESET               startup_stm32g473xx.o
    0x080001d8   0x00000008   Code   RO         7026  * !!!main             c_w.l(__main.o)
    0x080001e0   0x00000034   Code   RO         7373    !!!scatter          c_w.l(__scatter.o)
    0x08000214   0x0000005a   Code   RO         7371    !!dczerorl2         c_w.l(__dczerorl2.o)
    0x0800026e   0x00000002   PAD
    0x08000270   0x0000001c   Code   RO         7375    !!handler_zi        c_w.l(__scatter_zi.o)
    0x0800028c   0x00000000   Code   RO         7017    .ARM.Collect$$_printf_percent$$00000000  c_w.l(_printf_percent.o)
    0x0800028c   0x00000006   Code   RO         7016    .ARM.Collect$$_printf_percent$$00000009  c_w.l(_printf_d.o)
    0x08000292   0x00000004   Code   RO         7113    .ARM.Collect$$_printf_percent$$00000017  c_w.l(_printf_percent_end.o)
    0x08000296   0x00000002   Code   RO         7244    .ARM.Collect$$libinit$$00000000  c_w.l(libinit.o)
    0x08000298   0x00000004   Code   RO         7262    .ARM.Collect$$libinit$$00000001  c_w.l(libinit2.o)
    0x0800029c   0x00000000   Code   RO         7265    .ARM.Collect$$libinit$$00000004  c_w.l(libinit2.o)
    0x0800029c   0x00000000   Code   RO         7268    .ARM.Collect$$libinit$$0000000A  c_w.l(libinit2.o)
    0x0800029c   0x00000000   Code   RO         7270    .ARM.Collect$$libinit$$0000000C  c_w.l(libinit2.o)
    0x0800029c   0x00000000   Code   RO         7272    .ARM.Collect$$libinit$$0000000E  c_w.l(libinit2.o)
    0x0800029c   0x00000000   Code   RO         7275    .ARM.Collect$$libinit$$00000011  c_w.l(libinit2.o)
    0x0800029c   0x00000000   Code   RO         7277    .ARM.Collect$$libinit$$00000013  c_w.l(libinit2.o)
    0x0800029c   0x00000000   Code   RO         7279    .ARM.Collect$$libinit$$00000015  c_w.l(libinit2.o)
    0x0800029c   0x00000000   Code   RO         7281    .ARM.Collect$$libinit$$00000017  c_w.l(libinit2.o)
    0x0800029c   0x00000000   Code   RO         7283    .ARM.Collect$$libinit$$00000019  c_w.l(libinit2.o)
    0x0800029c   0x00000000   Code   RO         7285    .ARM.Collect$$libinit$$0000001B  c_w.l(libinit2.o)
    0x0800029c   0x00000000   Code   RO         7287    .ARM.Collect$$libinit$$0000001D  c_w.l(libinit2.o)
    0x0800029c   0x00000000   Code   RO         7289    .ARM.Collect$$libinit$$0000001F  c_w.l(libinit2.o)
    0x0800029c   0x00000000   Code   RO         7291    .ARM.Collect$$libinit$$00000021  c_w.l(libinit2.o)
    0x0800029c   0x00000000   Code   RO         7293    .ARM.Collect$$libinit$$00000023  c_w.l(libinit2.o)
    0x0800029c   0x00000000   Code   RO         7295    .ARM.Collect$$libinit$$00000025  c_w.l(libinit2.o)
    0x0800029c   0x00000000   Code   RO         7299    .ARM.Collect$$libinit$$0000002C  c_w.l(libinit2.o)
    0x0800029c   0x00000000   Code   RO         7301    .ARM.Collect$$libinit$$0000002E  c_w.l(libinit2.o)
    0x0800029c   0x00000000   Code   RO         7303    .ARM.Collect$$libinit$$00000030  c_w.l(libinit2.o)
    0x0800029c   0x00000000   Code   RO         7305    .ARM.Collect$$libinit$$00000032  c_w.l(libinit2.o)
    0x0800029c   0x00000002   Code   RO         7306    .ARM.Collect$$libinit$$00000033  c_w.l(libinit2.o)
    0x0800029e   0x00000002   Code   RO         7330    .ARM.Collect$$libshutdown$$00000000  c_w.l(libshutdown.o)
    0x080002a0   0x00000000   Code   RO         7354    .ARM.Collect$$libshutdown$$00000002  c_w.l(libshutdown2.o)
    0x080002a0   0x00000000   Code   RO         7356    .ARM.Collect$$libshutdown$$00000004  c_w.l(libshutdown2.o)
    0x080002a0   0x00000000   Code   RO         7359    .ARM.Collect$$libshutdown$$00000007  c_w.l(libshutdown2.o)
    0x080002a0   0x00000000   Code   RO         7362    .ARM.Collect$$libshutdown$$0000000A  c_w.l(libshutdown2.o)
    0x080002a0   0x00000000   Code   RO         7364    .ARM.Collect$$libshutdown$$0000000C  c_w.l(libshutdown2.o)
    0x080002a0   0x00000000   Code   RO         7367    .ARM.Collect$$libshutdown$$0000000F  c_w.l(libshutdown2.o)
    0x080002a0   0x00000002   Code   RO         7368    .ARM.Collect$$libshutdown$$00000010  c_w.l(libshutdown2.o)
    0x080002a2   0x00000000   Code   RO         7046    .ARM.Collect$$rtentry$$00000000  c_w.l(__rtentry.o)
    0x080002a2   0x00000000   Code   RO         7151    .ARM.Collect$$rtentry$$00000002  c_w.l(__rtentry2.o)
    0x080002a2   0x00000006   Code   RO         7163    .ARM.Collect$$rtentry$$00000004  c_w.l(__rtentry4.o)
    0x080002a8   0x00000000   Code   RO         7153    .ARM.Collect$$rtentry$$00000009  c_w.l(__rtentry2.o)
    0x080002a8   0x00000004   Code   RO         7154    .ARM.Collect$$rtentry$$0000000A  c_w.l(__rtentry2.o)
    0x080002ac   0x00000000   Code   RO         7156    .ARM.Collect$$rtentry$$0000000C  c_w.l(__rtentry2.o)
    0x080002ac   0x00000008   Code   RO         7157    .ARM.Collect$$rtentry$$0000000D  c_w.l(__rtentry2.o)
    0x080002b4   0x00000002   Code   RO         7249    .ARM.Collect$$rtexit$$00000000  c_w.l(rtexit.o)
    0x080002b6   0x00000000   Code   RO         7308    .ARM.Collect$$rtexit$$00000002  c_w.l(rtexit2.o)
    0x080002b6   0x00000004   Code   RO         7309    .ARM.Collect$$rtexit$$00000003  c_w.l(rtexit2.o)
    0x080002ba   0x00000006   Code   RO         7310    .ARM.Collect$$rtexit$$00000004  c_w.l(rtexit2.o)
    0x080002c0   0x0000003c   Code   RO            4    .text               startup_stm32g473xx.o
    0x080002fc   0x00000002   Code   RO         6982    .text               c_w.l(use_no_semi_2.o)
    0x080002fe   0x000000ee   Code   RO         6984    .text               c_w.l(lludivv7m.o)
    0x080003ec   0x00000018   Code   RO         6988    .text               c_w.l(__2printf.o)
    0x08000404   0x00000078   Code   RO         6994    .text               c_w.l(_printf_dec.o)
    0x0800047c   0x00000188   Code   RO         7013    .text               c_w.l(__printf_flags_ss_wp.o)
    0x08000604   0x00000064   Code   RO         7020    .text               c_w.l(rt_memcpy_w.o)
    0x08000668   0x0000004e   Code   RO         7022    .text               c_w.l(rt_memclr_w.o)
    0x080006b6   0x00000006   Code   RO         7024    .text               c_w.l(heapauxi.o)
    0x080006bc   0x00000002   Code   RO         7044    .text               c_w.l(use_no_semi.o)
    0x080006be   0x00000016   Code   RO         7051    .text               c_w.l(_rserrno.o)
    0x080006d4   0x000000b2   Code   RO         7059    .text               c_w.l(_printf_intcommon.o)
    0x08000786   0x00000002   PAD
    0x08000788   0x00000030   Code   RO         7063    .text               c_w.l(_printf_char_common.o)
    0x080007b8   0x00000024   Code   RO         7067    .text               c_w.l(_printf_char_file.o)
    0x080007dc   0x00000008   Code   RO         7170    .text               c_w.l(rt_errno_addr_intlibspace.o)
    0x080007e4   0x00000008   Code   RO         7185    .text               c_w.l(ferror.o)
    0x080007ec   0x00000008   Code   RO         7191    .text               c_w.l(libspace.o)
    0x080007f4   0x0000004a   Code   RO         7194    .text               c_w.l(sys_stackheap_outer.o)
    0x0800083e   0x00000012   Code   RO         7233    .text               c_w.l(exit.o)
    0x08000850   0x00000098   Code   RO         6843    .text.arm_cos_f32   arm_cortexM4lf_math.lib(arm_cos_f32.o)
    0x080008e8   0x00000090   Code   RO         6852    .text.arm_sin_f32   arm_cortexM4lf_math.lib(arm_sin_f32.o)
    0x08000978   0x0000001c   Code   RO          536    i.ADC1_2_IRQHandler  stm32g4xx_it.o
    0x08000994   0x0000000c   Code   RO          537    i.ADC3_IRQHandler   stm32g4xx_it.o
    0x080009a0   0x000000c4   Code   RO          704    i.ADC_Enable        stm32g4xx_hal_adc.o
    0x08000a64   0x00000040   Code   RO         5019    i.BSP_Init          bsp.o
    0x08000aa4   0x00000002   Code   RO          538    i.BusFault_Handler  stm32g4xx_it.o
    0x08000aa6   0x00000002   PAD
    0x08000aa8   0x00000054   Code   RO         5108    i.CC6920SO_CalcCur  cc6920so.o
    0x08000afc   0x00000068   Code   RO         5109    i.CC6920SO_Init     cc6920so.o
    0x08000b64   0x00000054   Code   RO         5635    i.CDC_Control_FS    usbd_cdc_if.o
    0x08000bb8   0x00000004   Code   RO         5636    i.CDC_DeInit_FS     usbd_cdc_if.o
    0x08000bbc   0x00000018   Code   RO         5637    i.CDC_Init_FS       usbd_cdc_if.o
    0x08000bd4   0x0000001c   Code   RO         5638    i.CDC_Receive_FS    usbd_cdc_if.o
    0x08000bf0   0x0000000c   Code   RO          539    i.DMA1_Channel1_IRQHandler  stm32g4xx_it.o
    0x08000bfc   0x0000000c   Code   RO          540    i.DMA1_Channel2_IRQHandler  stm32g4xx_it.o
    0x08000c08   0x0000000c   Code   RO          541    i.DMA1_Channel3_IRQHandler  stm32g4xx_it.o
    0x08000c14   0x00000040   Code   RO         2013    i.DMA_CalcDMAMUXChannelBaseAndMask  stm32g4xx_hal_dma.o
    0x08000c54   0x00000024   Code   RO         2014    i.DMA_CalcDMAMUXRequestGenBaseAndMask  stm32g4xx_hal_dma.o
    0x08000c78   0x00000002   Code   RO          542    i.DebugMon_Handler  stm32g4xx_it.o
    0x08000c7a   0x00000002   PAD
    0x08000c7c   0x000000e0   Code   RO         5962    i.Debug_Task        debug.o
    0x08000d5c   0x00000004   Code   RO           13    i.Error_Handler     main.o
    0x08000d60   0x0000002c   Code   RO         6169    i.FOC_App_Run       foc_app.o
    0x08000d8c   0x0000001c   Code   RO         6440    i.FOC_Clarke        foc_math.o
    0x08000da8   0x000000ec   Code   RO         6217    i.FOC_Current_Calib  foc_current.o
    0x08000e94   0x0000005c   Code   RO         6735    i.FOC_ENC_Angle_Calc  foc_encoder.o
    0x08000ef0   0x0000003c   Code   RO         6737    i.FOC_ENC_IRQHandler  foc_encoder.o
    0x08000f2c   0x00000012   Code   RO         6738    i.FOC_ENC_Init      foc_encoder.o
    0x08000f3e   0x00000002   PAD
    0x08000f40   0x000000b0   Code   RO         6739    i.FOC_ENC_Speed_Calc_M  foc_encoder.o
    0x08000ff0   0x0000000c   Code   RO         6741    i.FOC_Get_ENC_Count  foc_encoder.o
    0x08000ffc   0x00000014   Code   RO         6742    i.FOC_Get_ENC_Dir   foc_encoder.o
    0x08001010   0x000000a8   Code   RO         6800    i.FOC_HALL_Angle_Calc  foc_hall.o
    0x080010b8   0x00000184   Code   RO         6801    i.FOC_HALL_CC_IRQ_Handler  foc_hall.o
    0x0800123c   0x0000013c   Code   RO         6802    i.FOC_HALL_Init     foc_hall.o
    0x08001378   0x000000b4   Code   RO         6360    i.FOC_HFI_Angle_Calc  foc_hfi.o
    0x0800142c   0x0000003a   Code   RO         6364    i.FOC_HFI_Init      foc_hfi.o
    0x08001466   0x00000034   Code   RO         6365    i.FOC_HFI_Inject    foc_hfi.o
    0x0800149a   0x00000002   PAD
    0x0800149c   0x000000d0   Code   RO         6366    i.FOC_HFI_InjectPolIdent  foc_hfi.o
    0x0800156c   0x0000003c   Code   RO         6367    i.FOC_HFI_Speed_Calc  foc_hfi.o
    0x080015a8   0x00000016   Code   RO         6368    i.FOC_HFI_alphabeta_HF  foc_hfi.o
    0x080015be   0x00000016   Code   RO         6369    i.FOC_HFI_alphabeta_LF  foc_hfi.o
    0x080015d4   0x00000040   Code   RO         6803    i.FOC_Hall_Speed_Calc  foc_hall.o
    0x08001614   0x00000158   Code   RO         6170    i.FOC_Init          foc_app.o
    0x0800176c   0x00000006   Code   RO         6090    i.FOC_Motor_Init    foc_motor.o
    0x08001772   0x00000002   PAD
    0x08001774   0x000000c8   Code   RO         6092    i.FOC_Motor_Run     foc_motor.o
    0x0800183c   0x00000030   Code   RO         6093    i.FOC_Motor_Speed_Calc  foc_motor.o
    0x0800186c   0x0000004c   Code   RO         6094    i.FOC_Motor_Speed_Ctrl  foc_motor.o
    0x080018b8   0x00000020   Code   RO         6560    i.FOC_PWM_Init      foc_pwm.o
    0x080018d8   0x0000006a   Code   RO         6561    i.FOC_PWM_Run       foc_pwm.o
    0x08001942   0x00000002   PAD
    0x08001944   0x0000003c   Code   RO         5999    i.FOC_Port_Pwm_Start  foc_port.o
    0x08001980   0x0000003c   Code   RO         6000    i.FOC_Port_Pwm_Stop  foc_port.o
    0x080019bc   0x0000004c   Code   RO         6001    i.FOC_Port_Start    foc_port.o
    0x08001a08   0x0000002c   Code   RO         6441    i.FOC_Rev_Clarke    foc_math.o
    0x08001a34   0x00000044   Code   RO         6442    i.FOC_Rev_Park      foc_math.o
    0x08001a78   0x000000dc   Code   RO         6600    i.FOC_SL_HFI_SMO_SW  foc_sensorless.o
    0x08001b54   0x00000164   Code   RO         6601    i.FOC_SL_RUN        foc_sensorless.o
    0x08001cb8   0x000000fc   Code   RO         6652    i.FOC_SMO_Angle_Calc  foc_smo.o
    0x08001db4   0x00000034   Code   RO         6654    i.FOC_SMO_Init      foc_smo.o
    0x08001de8   0x00000074   Code   RO         6655    i.FOC_SMO_Speed_Calc  foc_smo.o
    0x08001e5c   0x00000080   Code   RO         6603    i.FOC_Sensorless_Init  foc_sensorless.o
    0x08001edc   0x00000040   Code   RO         6604    i.FOC_Sensorless_Speed_Cale  foc_sensorless.o
    0x08001f1c   0x00000004   Code   RO         6171    i.FOC_Start         foc_app.o
    0x08001f20   0x00000032   Code   RO         6699    i.FOC_VF_Angle_Calc  foc_vf.o
    0x08001f52   0x00000012   Code   RO         6700    i.FOC_VF_Init       foc_vf.o
    0x08001f64   0x00000058   Code   RO         6701    i.FOC_VF_Speed_Calc  foc_vf.o
    0x08001fbc   0x00000018   Code   RO         6219    i.FOC_turnOn_LowSide  foc_current.o
    0x08001fd4   0x000000a0   Code   RO         6003    i.Foc_Current_Refresh  foc_port.o
    0x08002074   0x00000044   Code   RO         6444    i.Foc_Park          foc_math.o
    0x080020b8   0x00000002   Code   RO          941    i.HAL_ADCEx_EndOfSamplingCallback  stm32g4xx_hal_adc_ex.o
    0x080020ba   0x00000002   PAD
    0x080020bc   0x00000560   Code   RO          943    i.HAL_ADCEx_InjectedConfigChannel  stm32g4xx_hal_adc_ex.o
    0x0800261c   0x00000050   Code   RO         5141    i.HAL_ADCEx_InjectedConvCpltCallback  bsp_irq.o
    0x0800266c   0x0000002e   Code   RO          945    i.HAL_ADCEx_InjectedGetValue  stm32g4xx_hal_adc_ex.o
    0x0800269a   0x00000002   Code   RO          947    i.HAL_ADCEx_InjectedQueueOverflowCallback  stm32g4xx_hal_adc_ex.o
    0x0800269c   0x00000158   Code   RO          949    i.HAL_ADCEx_InjectedStart_IT  stm32g4xx_hal_adc_ex.o
    0x080027f4   0x00000002   Code   RO          952    i.HAL_ADCEx_LevelOutOfWindow2Callback  stm32g4xx_hal_adc_ex.o
    0x080027f6   0x00000002   Code   RO          953    i.HAL_ADCEx_LevelOutOfWindow3Callback  stm32g4xx_hal_adc_ex.o
    0x080027f8   0x00000160   Code   RO          954    i.HAL_ADCEx_MultiModeConfigChannel  stm32g4xx_hal_adc_ex.o
    0x08002958   0x0000046c   Code   RO          706    i.HAL_ADC_ConfigChannel  stm32g4xx_hal_adc.o
    0x08002dc4   0x00000002   Code   RO          707    i.HAL_ADC_ConvCpltCallback  stm32g4xx_hal_adc.o
    0x08002dc6   0x00000002   Code   RO          710    i.HAL_ADC_ErrorCallback  stm32g4xx_hal_adc.o
    0x08002dc8   0x000002b8   Code   RO          714    i.HAL_ADC_IRQHandler  stm32g4xx_hal_adc.o
    0x08003080   0x00000230   Code   RO          715    i.HAL_ADC_Init      stm32g4xx_hal_adc.o
    0x080032b0   0x00000002   Code   RO          716    i.HAL_ADC_LevelOutOfWindowCallback  stm32g4xx_hal_adc.o
    0x080032b2   0x00000002   PAD
    0x080032b4   0x000001e8   Code   RO          254    i.HAL_ADC_MspInit   adc.o
    0x0800349c   0x000000ba   Code   RO         2021    i.HAL_DMA_IRQHandler  stm32g4xx_hal_dma.o
    0x08003556   0x00000002   PAD
    0x08003558   0x000000c0   Code   RO         2022    i.HAL_DMA_Init      stm32g4xx_hal_dma.o
    0x08003618   0x00000248   Code   RO         1878    i.HAL_GPIO_Init     stm32g4xx_hal_gpio.o
    0x08003860   0x0000000a   Code   RO         1880    i.HAL_GPIO_ReadPin  stm32g4xx_hal_gpio.o
    0x0800386a   0x00000010   Code   RO         1881    i.HAL_GPIO_TogglePin  stm32g4xx_hal_gpio.o
    0x0800387a   0x0000000a   Code   RO         1882    i.HAL_GPIO_WritePin  stm32g4xx_hal_gpio.o
    0x08003884   0x0000000c   Code   RO         1157    i.HAL_GetTick       stm32g4xx_hal.o
    0x08003890   0x00000010   Code   RO         1163    i.HAL_IncTick       stm32g4xx_hal.o
    0x080038a0   0x0000001e   Code   RO         1164    i.HAL_Init          stm32g4xx_hal.o
    0x080038be   0x00000002   PAD
    0x080038c0   0x00000044   Code   RO         1165    i.HAL_InitTick      stm32g4xx_hal.o
    0x08003904   0x0000003c   Code   RO          675    i.HAL_MspInit       stm32g4xx_hal_msp.o
    0x08003940   0x0000001a   Code   RO         2525    i.HAL_NVIC_EnableIRQ  stm32g4xx_hal_cortex.o
    0x0800395a   0x00000002   PAD
    0x0800395c   0x00000040   Code   RO         2531    i.HAL_NVIC_SetPriority  stm32g4xx_hal_cortex.o
    0x0800399c   0x00000024   Code   RO         2532    i.HAL_NVIC_SetPriorityGrouping  stm32g4xx_hal_cortex.o
    0x080039c0   0x00000024   Code   RO         4570    i.HAL_PCDEx_ActivateLPM  stm32g4xx_hal_pcd_ex.o
    0x080039e4   0x00000002   Code   RO         4575    i.HAL_PCDEx_LPM_Callback  stm32g4xx_hal_pcd_ex.o
    0x080039e6   0x0000003c   Code   RO         4576    i.HAL_PCDEx_PMAConfig  stm32g4xx_hal_pcd_ex.o
    0x08003a22   0x00000012   Code   RO         5707    i.HAL_PCD_DataInStageCallback  usbd_conf.o
    0x08003a34   0x00000014   Code   RO         5708    i.HAL_PCD_DataOutStageCallback  usbd_conf.o
    0x08003a48   0x0000004a   Code   RO         4348    i.HAL_PCD_EP_Close  stm32g4xx_hal_pcd.o
    0x08003a92   0x0000005a   Code   RO         4349    i.HAL_PCD_EP_ClrStall  stm32g4xx_hal_pcd.o
    0x08003aec   0x000000dc   Code   RO         4350    i.HAL_PCD_EP_DB_Receive  stm32g4xx_hal_pcd.o
    0x08003bc8   0x00000340   Code   RO         4351    i.HAL_PCD_EP_DB_Transmit  stm32g4xx_hal_pcd.o
    0x08003f08   0x00000012   Code   RO         4353    i.HAL_PCD_EP_GetRxCount  stm32g4xx_hal_pcd.o
    0x08003f1a   0x00000058   Code   RO         4354    i.HAL_PCD_EP_Open   stm32g4xx_hal_pcd.o
    0x08003f72   0x0000002e   Code   RO         4355    i.HAL_PCD_EP_Receive  stm32g4xx_hal_pcd.o
    0x08003fa0   0x0000005e   Code   RO         4356    i.HAL_PCD_EP_SetStall  stm32g4xx_hal_pcd.o
    0x08003ffe   0x0000002e   Code   RO         4357    i.HAL_PCD_EP_Transmit  stm32g4xx_hal_pcd.o
    0x0800402c   0x0000014a   Code   RO         4359    i.HAL_PCD_IRQHandler  stm32g4xx_hal_pcd.o
    0x08004176   0x00000002   PAD
    0x08004178   0x0000009c   Code   RO         4362    i.HAL_PCD_Init      stm32g4xx_hal_pcd.o
    0x08004214   0x00000058   Code   RO          495    i.HAL_PCD_MspInit   usb.o
    0x0800426c   0x00000064   Code   RO         5712    i.HAL_PCD_ResetCallback  usbd_conf.o
    0x080042d0   0x00000040   Code   RO         5713    i.HAL_PCD_ResumeCallback  usbd_conf.o
    0x08004310   0x00000008   Code   RO         5714    i.HAL_PCD_SOFCallback  usbd_conf.o
    0x08004318   0x00000026   Code   RO         4368    i.HAL_PCD_SetAddress  stm32g4xx_hal_pcd.o
    0x0800433e   0x0000000e   Code   RO         5715    i.HAL_PCD_SetupStageCallback  usbd_conf.o
    0x0800434c   0x0000002a   Code   RO         4370    i.HAL_PCD_Start     stm32g4xx_hal_pcd.o
    0x08004376   0x00000002   PAD
    0x08004378   0x00000050   Code   RO         5716    i.HAL_PCD_SuspendCallback  usbd_conf.o
    0x080043c8   0x000000bc   Code   RO         2281    i.HAL_PWREx_ControlVoltageScaling  stm32g4xx_hal_pwr_ex.o
    0x08004484   0x00000010   Code   RO         2293    i.HAL_PWREx_DisableUCPDDeadBattery  stm32g4xx_hal_pwr_ex.o
    0x08004494   0x0000004c   Code   RO         1506    i.HAL_RCCEx_CRSConfig  stm32g4xx_hal_rcc_ex.o
    0x080044e0   0x00000300   Code   RO         1524    i.HAL_RCCEx_PeriphCLKConfig  stm32g4xx_hal_rcc_ex.o
    0x080047e0   0x000001dc   Code   RO         1399    i.HAL_RCC_ClockConfig  stm32g4xx_hal_rcc.o
    0x080049bc   0x00000024   Code   RO         1407    i.HAL_RCC_GetPCLK1Freq  stm32g4xx_hal_rcc.o
    0x080049e0   0x00000024   Code   RO         1408    i.HAL_RCC_GetPCLK2Freq  stm32g4xx_hal_rcc.o
    0x08004a04   0x00000070   Code   RO         1409    i.HAL_RCC_GetSysClockFreq  stm32g4xx_hal_rcc.o
    0x08004a74   0x00000404   Code   RO         1412    i.HAL_RCC_OscConfig  stm32g4xx_hal_rcc.o
    0x08004e78   0x00000010   Code   RO         1174    i.HAL_SYSCFG_DisableVREFBUF  stm32g4xx_hal.o
    0x08004e88   0x00000014   Code   RO         1179    i.HAL_SYSCFG_VREFBUF_HighImpedanceConfig  stm32g4xx_hal.o
    0x08004e9c   0x00000018   Code   RO         2534    i.HAL_SYSTICK_CLKSourceConfig  stm32g4xx_hal_cortex.o
    0x08004eb4   0x00000028   Code   RO         2536    i.HAL_SYSTICK_Config  stm32g4xx_hal_cortex.o
    0x08004edc   0x00000002   Code   RO         3371    i.HAL_TIMEx_Break2Callback  stm32g4xx_hal_tim_ex.o
    0x08004ede   0x00000002   Code   RO         3372    i.HAL_TIMEx_BreakCallback  stm32g4xx_hal_tim_ex.o
    0x08004ee0   0x00000002   Code   RO         3373    i.HAL_TIMEx_CommutCallback  stm32g4xx_hal_tim_ex.o
    0x08004ee2   0x00000002   PAD
    0x08004ee4   0x000000a8   Code   RO         3376    i.HAL_TIMEx_ConfigBreakDeadTime  stm32g4xx_hal_tim_ex.o
    0x08004f8c   0x00000002   Code   RO         3384    i.HAL_TIMEx_DirectionChangeCallback  stm32g4xx_hal_tim_ex.o
    0x08004f8e   0x00000002   Code   RO         3398    i.HAL_TIMEx_EncoderIndexCallback  stm32g4xx_hal_tim_ex.o
    0x08004f90   0x000000dc   Code   RO         3403    i.HAL_TIMEx_HallSensor_Init  stm32g4xx_hal_tim_ex.o
    0x0800506c   0x00000070   Code   RO          333    i.HAL_TIMEx_HallSensor_MspInit  tim.o
    0x080050dc   0x000000bc   Code   RO         3408    i.HAL_TIMEx_HallSensor_Start_IT  stm32g4xx_hal_tim_ex.o
    0x08005198   0x00000002   Code   RO         3412    i.HAL_TIMEx_IndexErrorCallback  stm32g4xx_hal_tim_ex.o
    0x0800519a   0x00000002   PAD
    0x0800519c   0x000000b8   Code   RO         3413    i.HAL_TIMEx_MasterConfigSynchronization  stm32g4xx_hal_tim_ex.o
    0x08005254   0x000000cc   Code   RO         3425    i.HAL_TIMEx_PWMN_Start  stm32g4xx_hal_tim_ex.o
    0x08005320   0x00000068   Code   RO         3428    i.HAL_TIMEx_PWMN_Stop  stm32g4xx_hal_tim_ex.o
    0x08005388   0x00000002   Code   RO         3434    i.HAL_TIMEx_TransitionErrorCallback  stm32g4xx_hal_tim_ex.o
    0x0800538a   0x00000062   Code   RO         2657    i.HAL_TIM_Base_Init  stm32g4xx_hal_tim.o
    0x080053ec   0x0000003c   Code   RO          335    i.HAL_TIM_Base_MspInit  tim.o
    0x08005428   0x0000008c   Code   RO         2662    i.HAL_TIM_Base_Start_IT  stm32g4xx_hal_tim.o
    0x080054b4   0x000000a8   Code   RO         2678    i.HAL_TIM_Encoder_Init  stm32g4xx_hal_tim.o
    0x0800555c   0x00000060   Code   RO          337    i.HAL_TIM_Encoder_MspInit  tim.o
    0x080055bc   0x0000008e   Code   RO         2681    i.HAL_TIM_Encoder_Start  stm32g4xx_hal_tim.o
    0x0800564a   0x00000002   PAD
    0x0800564c   0x00000034   Code   RO         5142    i.HAL_TIM_IC_CaptureCallback  bsp_irq.o
    0x08005680   0x00000124   Code   RO         2693    i.HAL_TIM_IC_ConfigChannel  stm32g4xx_hal_tim.o
    0x080057a4   0x00000062   Code   RO         2696    i.HAL_TIM_IC_Init   stm32g4xx_hal_tim.o
    0x08005806   0x00000002   PAD
    0x08005808   0x00000070   Code   RO          339    i.HAL_TIM_IC_MspInit  tim.o
    0x08005878   0x00000140   Code   RO         2701    i.HAL_TIM_IC_Start_IT  stm32g4xx_hal_tim.o
    0x080059b8   0x000001a2   Code   RO         2705    i.HAL_TIM_IRQHandler  stm32g4xx_hal_tim.o
    0x08005b5a   0x00000002   PAD
    0x08005b5c   0x00000094   Code   RO          340    i.HAL_TIM_MspPostInit  tim.o
    0x08005bf0   0x00000002   Code   RO         5143    i.HAL_TIM_OC_DelayElapsedCallback  bsp_irq.o
    0x08005bf2   0x00000002   PAD
    0x08005bf4   0x00000140   Code   RO         2715    i.HAL_TIM_OC_Start_IT  stm32g4xx_hal_tim.o
    0x08005d34   0x000000f8   Code   RO         2718    i.HAL_TIM_OC_Stop_IT  stm32g4xx_hal_tim.o
    0x08005e2c   0x00000124   Code   RO         2729    i.HAL_TIM_PWM_ConfigChannel  stm32g4xx_hal_tim.o
    0x08005f50   0x00000062   Code   RO         2732    i.HAL_TIM_PWM_Init  stm32g4xx_hal_tim.o
    0x08005fb2   0x00000002   PAD
    0x08005fb4   0x0000003c   Code   RO          342    i.HAL_TIM_PWM_MspInit  tim.o
    0x08005ff0   0x00000002   Code   RO         2735    i.HAL_TIM_PWM_PulseFinishedCallback  stm32g4xx_hal_tim.o
    0x08005ff2   0x00000002   PAD
    0x08005ff4   0x00000114   Code   RO         2737    i.HAL_TIM_PWM_Start  stm32g4xx_hal_tim.o
    0x08006108   0x000000b8   Code   RO         2740    i.HAL_TIM_PWM_Stop  stm32g4xx_hal_tim.o
    0x080061c0   0x00000038   Code   RO         5144    i.HAL_TIM_PeriodElapsedCallback  bsp_irq.o
    0x080061f8   0x00000002   Code   RO         2748    i.HAL_TIM_TriggerCallback  stm32g4xx_hal_tim.o
    0x080061fa   0x0000003e   Code   RO         4220    i.HAL_UARTEx_DisableFifoMode  stm32g4xx_hal_uart_ex.o
    0x08006238   0x0000004c   Code   RO         4229    i.HAL_UARTEx_SetRxFifoThreshold  stm32g4xx_hal_uart_ex.o
    0x08006284   0x0000004c   Code   RO         4230    i.HAL_UARTEx_SetTxFifoThreshold  stm32g4xx_hal_uart_ex.o
    0x080062d0   0x0000006a   Code   RO         3829    i.HAL_UART_Init     stm32g4xx_hal_uart.o
    0x0800633a   0x00000002   PAD
    0x0800633c   0x0000007c   Code   RO          453    i.HAL_UART_MspInit  usart.o
    0x080063b8   0x00000002   Code   RO          543    i.HardFault_Handler  stm32g4xx_it.o
    0x080063ba   0x00000002   PAD
    0x080063bc   0x00000038   Code   RO         5889    i.IntToUnicode      usbd_desc.o
    0x080063f4   0x0000000c   Code   RO          729    i.LL_ADC_GetOffsetChannel  stm32g4xx_hal_adc.o
    0x08006400   0x0000000c   Code   RO          962    i.LL_ADC_GetOffsetChannel  stm32g4xx_hal_adc_ex.o
    0x0800640c   0x00000008   Code   RO          730    i.LL_ADC_INJ_IsConversionOngoing  stm32g4xx_hal_adc.o
    0x08006414   0x00000008   Code   RO          963    i.LL_ADC_INJ_IsConversionOngoing  stm32g4xx_hal_adc_ex.o
    0x0800641c   0x00000008   Code   RO          731    i.LL_ADC_REG_IsConversionOngoing  stm32g4xx_hal_adc.o
    0x08006424   0x00000008   Code   RO          964    i.LL_ADC_REG_IsConversionOngoing  stm32g4xx_hal_adc_ex.o
    0x0800642c   0x00000010   Code   RO          732    i.LL_ADC_REG_IsTriggerSourceSWStart  stm32g4xx_hal_adc.o
    0x0800643c   0x0000001e   Code   RO          734    i.LL_ADC_SetChannelSamplingTime  stm32g4xx_hal_adc.o
    0x0800645a   0x0000001e   Code   RO          965    i.LL_ADC_SetChannelSamplingTime  stm32g4xx_hal_adc_ex.o
    0x08006478   0x00000010   Code   RO          735    i.LL_ADC_SetOffsetState  stm32g4xx_hal_adc.o
    0x08006488   0x00000010   Code   RO          966    i.LL_ADC_SetOffsetState  stm32g4xx_hal_adc_ex.o
    0x08006498   0x0000002c   Code   RO         6445    i.Limit_Angle       foc_math.o
    0x080064c4   0x000000e4   Code   RO          255    i.MX_ADC1_Init      adc.o
    0x080065a8   0x000000c8   Code   RO          256    i.MX_ADC2_Init      adc.o
    0x08006670   0x000000e8   Code   RO          257    i.MX_ADC3_Init      adc.o
    0x08006758   0x0000005c   Code   RO          308    i.MX_DMA_Init       dma.o
    0x080067b4   0x0000006c   Code   RO          229    i.MX_GPIO_Init      gpio.o
    0x08006820   0x0000010c   Code   RO          343    i.MX_TIM1_Init      tim.o
    0x0800692c   0x0000006c   Code   RO          344    i.MX_TIM2_Init      tim.o
    0x08006998   0x00000070   Code   RO          345    i.MX_TIM3_Init      tim.o
    0x08006a08   0x0000005c   Code   RO          346    i.MX_TIM5_Init      tim.o
    0x08006a64   0x00000048   Code   RO          347    i.MX_TIM6_Init      tim.o
    0x08006aac   0x00000068   Code   RO          454    i.MX_USART1_UART_Init  usart.o
    0x08006b14   0x0000003c   Code   RO         5586    i.MX_USB_Device_Init  usb_device.o
    0x08006b50   0x00000038   Code   RO          496    i.MX_USB_PCD_Init   usb.o
    0x08006b88   0x00000002   Code   RO          544    i.MemManage_Handler  stm32g4xx_it.o
    0x08006b8a   0x000000dc   Code   RO         6095    i.Motor_ABZ_ENC_RUN  foc_motor.o
    0x08006c66   0x000000dc   Code   RO         6096    i.Motor_HALL_RUN    foc_motor.o
    0x08006d42   0x00000088   Code   RO         6097    i.Motor_Run_Open    foc_motor.o
    0x08006dca   0x00000002   PAD
    0x08006dcc   0x0000017c   Code   RO         6098    i.Motor_SL_RUN      foc_motor.o
    0x08006f48   0x00000030   Code   RO         6280    i.Move_Filter_Clear  foc_filter.o
    0x08006f78   0x00000022   Code   RO         6281    i.Move_Filter_Init  foc_filter.o
    0x08006f9a   0x00000002   PAD
    0x08006f9c   0x00000040   Code   RO         6282    i.Move_Filter_calculate  foc_filter.o
    0x08006fdc   0x0000004a   Code   RO         6283    i.Move_Filter_fill  foc_filter.o
    0x08007026   0x00000002   Code   RO          545    i.NMI_Handler       stm32g4xx_it.o
    0x08007028   0x00000396   Code   RO         4373    i.PCD_EP_ISR_Handler  stm32g4xx_hal_pcd.o
    0x080073be   0x00000002   PAD
    0x080073c0   0x0000003c   Code   RO         6503    i.PID_Clear         foc_pid.o
    0x080073fc   0x0000002c   Code   RO         6505    i.PID_Init          foc_pid.o
    0x08007428   0x00000258   Code   RO         6506    i.PID_Position_ctrl  foc_pid.o
    0x08007680   0x000000a8   Code   RO         6285    i.PLL_Cale_HFI      foc_filter.o
    0x08007728   0x000000ac   Code   RO         6286    i.PLL_Cale_SMO      foc_filter.o
    0x080077d4   0x00000024   Code   RO         6287    i.PLL_Clear         foc_filter.o
    0x080077f8   0x0000000c   Code   RO         6288    i.PLL_Init          foc_filter.o
    0x08007804   0x00000002   Code   RO          546    i.PendSV_Handler    stm32g4xx_it.o
    0x08007806   0x00000002   Code   RO          547    i.SVC_Handler       stm32g4xx_it.o
    0x08007808   0x0000000a   Code   RO         5346    i.SWAPBYTE          usbd_ctlreq.o
    0x08007812   0x0000002e   Code   RO         6656    i.Sat               foc_smo.o
    0x08007840   0x00000078   Code   RO         6562    i.Sector_Judgment   foc_pwm.o
    0x080078b8   0x0000002c   Code   RO          548    i.SysTick_Handler   stm32g4xx_it.o
    0x080078e4   0x0000006e   Code   RO           14    i.SystemClock_Config  main.o
    0x08007952   0x00000002   PAD
    0x08007954   0x00000010   Code   RO         4786    i.SystemInit        system_stm32g4xx.o
    0x08007964   0x0000000c   Code   RO          549    i.TIM1_UP_TIM16_IRQHandler  stm32g4xx_it.o
    0x08007970   0x0000000c   Code   RO          550    i.TIM2_IRQHandler   stm32g4xx_it.o
    0x0800797c   0x0000000c   Code   RO          551    i.TIM5_IRQHandler   stm32g4xx_it.o
    0x08007988   0x0000000c   Code   RO          552    i.TIM6_DAC_IRQHandler  stm32g4xx_it.o
    0x08007994   0x000000e4   Code   RO         2750    i.TIM_Base_SetConfig  stm32g4xx_hal_tim.o
    0x08007a78   0x0000001a   Code   RO         2751    i.TIM_CCxChannelCmd  stm32g4xx_hal_tim.o
    0x08007a92   0x0000001a   Code   RO         3437    i.TIM_CCxNChannelCmd  stm32g4xx_hal_tim_ex.o
    0x08007aac   0x000000ac   Code   RO         2763    i.TIM_OC1_SetConfig  stm32g4xx_hal_tim.o
    0x08007b58   0x000000a0   Code   RO         2764    i.TIM_OC2_SetConfig  stm32g4xx_hal_tim.o
    0x08007bf8   0x000000a0   Code   RO         2765    i.TIM_OC3_SetConfig  stm32g4xx_hal_tim.o
    0x08007c98   0x000000a0   Code   RO         2766    i.TIM_OC4_SetConfig  stm32g4xx_hal_tim.o
    0x08007d38   0x00000078   Code   RO         2767    i.TIM_OC5_SetConfig  stm32g4xx_hal_tim.o
    0x08007db0   0x0000007c   Code   RO         2768    i.TIM_OC6_SetConfig  stm32g4xx_hal_tim.o
    0x08007e2c   0x00000080   Code   RO         2771    i.TIM_TI1_SetConfig  stm32g4xx_hal_tim.o
    0x08007eac   0x00000036   Code   RO         2773    i.TIM_TI2_SetConfig  stm32g4xx_hal_tim.o
    0x08007ee2   0x00000002   PAD
    0x08007ee4   0x00000044   Code   RO         4234    i.UARTEx_SetNbDataToProcess  stm32g4xx_hal_uart_ex.o
    0x08007f28   0x000000c8   Code   RO         3843    i.UART_AdvFeatureConfig  stm32g4xx_hal_uart.o
    0x08007ff0   0x000000ac   Code   RO         3844    i.UART_CheckIdleState  stm32g4xx_hal_uart.o
    0x0800809c   0x00000054   Code   RO         3855    i.UART_EndRxTransfer  stm32g4xx_hal_uart.o
    0x080080f0   0x00000298   Code   RO         3861    i.UART_SetConfig    stm32g4xx_hal_uart.o
    0x08008388   0x00000094   Code   RO         3868    i.UART_WaitOnFlagUntilTimeout  stm32g4xx_hal_uart.o
    0x0800841c   0x00000020   Code   RO         5890    i.USBD_CDC_ConfigStrDescriptor  usbd_desc.o
    0x0800843c   0x0000005e   Code   RO         5479    i.USBD_CDC_DataIn   usbd_cdc.o
    0x0800849a   0x0000002a   Code   RO         5480    i.USBD_CDC_DataOut  usbd_cdc.o
    0x080084c4   0x00000040   Code   RO         5481    i.USBD_CDC_DeInit   usbd_cdc.o
    0x08008504   0x0000000c   Code   RO         5891    i.USBD_CDC_DeviceDescriptor  usbd_desc.o
    0x08008510   0x0000002e   Code   RO         5482    i.USBD_CDC_EP0_RxReady  usbd_cdc.o
    0x0800853e   0x00000002   PAD
    0x08008540   0x0000000c   Code   RO         5483    i.USBD_CDC_GetDeviceQualifierDescriptor  usbd_cdc.o
    0x0800854c   0x0000000c   Code   RO         5484    i.USBD_CDC_GetFSCfgDesc  usbd_cdc.o
    0x08008558   0x0000000c   Code   RO         5485    i.USBD_CDC_GetHSCfgDesc  usbd_cdc.o
    0x08008564   0x0000000c   Code   RO         5486    i.USBD_CDC_GetOtherSpeedCfgDesc  usbd_cdc.o
    0x08008570   0x00000090   Code   RO         5487    i.USBD_CDC_Init     usbd_cdc.o
    0x08008600   0x00000024   Code   RO         5892    i.USBD_CDC_InterfaceStrDescriptor  usbd_desc.o
    0x08008624   0x0000000c   Code   RO         5893    i.USBD_CDC_LangIDStrDescriptor  usbd_desc.o
    0x08008630   0x00000028   Code   RO         5894    i.USBD_CDC_ManufacturerStrDescriptor  usbd_desc.o
    0x08008658   0x00000038   Code   RO         5895    i.USBD_CDC_ProductStrDescriptor  usbd_desc.o
    0x08008690   0x00000028   Code   RO         5488    i.USBD_CDC_ReceivePacket  usbd_cdc.o
    0x080086b8   0x0000000e   Code   RO         5489    i.USBD_CDC_RegisterInterface  usbd_cdc.o
    0x080086c6   0x00000002   PAD
    0x080086c8   0x00000038   Code   RO         5896    i.USBD_CDC_SerialStrDescriptor  usbd_desc.o
    0x08008700   0x00000012   Code   RO         5490    i.USBD_CDC_SetRxBuffer  usbd_cdc.o
    0x08008712   0x00000016   Code   RO         5491    i.USBD_CDC_SetTxBuffer  usbd_cdc.o
    0x08008728   0x000000be   Code   RO         5492    i.USBD_CDC_Setup    usbd_cdc.o
    0x080087e6   0x00000036   Code   RO         5493    i.USBD_CDC_TransmitPacket  usbd_cdc.o
    0x0800881c   0x0000005c   Code   RO         5587    i.USBD_Clock_Config  usb_device.o
    0x08008878   0x00000010   Code   RO         5186    i.USBD_ClrClassConfig  usbd_core.o
    0x08008888   0x00000010   Code   RO         5419    i.USBD_CtlContinueRx  usbd_ioreq.o
    0x08008898   0x00000010   Code   RO         5420    i.USBD_CtlContinueSendData  usbd_ioreq.o
    0x080088a8   0x00000016   Code   RO         5347    i.USBD_CtlError     usbd_ctlreq.o
    0x080088be   0x0000001e   Code   RO         5421    i.USBD_CtlPrepareRx  usbd_ioreq.o
    0x080088dc   0x00000016   Code   RO         5422    i.USBD_CtlReceiveStatus  usbd_ioreq.o
    0x080088f2   0x0000001a   Code   RO         5423    i.USBD_CtlSendData  usbd_ioreq.o
    0x0800890c   0x00000016   Code   RO         5424    i.USBD_CtlSendStatus  usbd_ioreq.o
    0x08008922   0x000000e6   Code   RO         5348    i.USBD_GetDescriptor  usbd_ctlreq.o
    0x08008a08   0x00000048   Code   RO         5349    i.USBD_GetString    usbd_ctlreq.o
    0x08008a50   0x00000018   Code   RO         5717    i.USBD_Get_USB_Status  usbd_conf.o
    0x08008a68   0x00000026   Code   RO         5188    i.USBD_Init         usbd_core.o
    0x08008a8e   0x00000012   Code   RO         5718    i.USBD_LL_ClearStallEP  usbd_conf.o
    0x08008aa0   0x00000012   Code   RO         5719    i.USBD_LL_CloseEP   usbd_conf.o
    0x08008ab2   0x000000a8   Code   RO         5189    i.USBD_LL_DataInStage  usbd_core.o
    0x08008b5a   0x0000006c   Code   RO         5190    i.USBD_LL_DataOutStage  usbd_core.o
    0x08008bc6   0x00000008   Code   RO         5723    i.USBD_LL_GetRxDataSize  usbd_conf.o
    0x08008bce   0x00000002   PAD
    0x08008bd0   0x00000074   Code   RO         5724    i.USBD_LL_Init      usbd_conf.o
    0x08008c44   0x0000001e   Code   RO         5725    i.USBD_LL_IsStallEP  usbd_conf.o
    0x08008c62   0x00000018   Code   RO         5726    i.USBD_LL_OpenEP    usbd_conf.o
    0x08008c7a   0x00000012   Code   RO         5727    i.USBD_LL_PrepareReceive  usbd_conf.o
    0x08008c8c   0x0000005a   Code   RO         5195    i.USBD_LL_Reset     usbd_core.o
    0x08008ce6   0x00000014   Code   RO         5196    i.USBD_LL_Resume    usbd_core.o
    0x08008cfa   0x00000020   Code   RO         5197    i.USBD_LL_SOF       usbd_core.o
    0x08008d1a   0x00000006   Code   RO         5198    i.USBD_LL_SetSpeed  usbd_core.o
    0x08008d20   0x0000001c   Code   RO         5728    i.USBD_LL_SetUSBAddress  usbd_conf.o
    0x08008d3c   0x00000060   Code   RO         5199    i.USBD_LL_SetupStage  usbd_core.o
    0x08008d9c   0x00000012   Code   RO         5729    i.USBD_LL_StallEP   usbd_conf.o
    0x08008dae   0x00000012   Code   RO         5730    i.USBD_LL_Start     usbd_conf.o
    0x08008dc0   0x00000012   Code   RO         5200    i.USBD_LL_Suspend   usbd_core.o
    0x08008dd2   0x00000012   Code   RO         5732    i.USBD_LL_Transmit  usbd_conf.o
    0x08008de4   0x0000002c   Code   RO         5350    i.USBD_ParseSetupRequest  usbd_ctlreq.o
    0x08008e10   0x00000024   Code   RO         5201    i.USBD_RegisterClass  usbd_core.o
    0x08008e34   0x00000014   Code   RO         5203    i.USBD_SetClassConfig  usbd_core.o
    0x08008e48   0x000000bc   Code   RO         5351    i.USBD_SetConfig    usbd_ctlreq.o
    0x08008f04   0x00000004   Code   RO         5204    i.USBD_Start        usbd_core.o
    0x08008f08   0x00000114   Code   RO         5352    i.USBD_StdDevReq    usbd_ctlreq.o
    0x0800901c   0x00000140   Code   RO         5353    i.USBD_StdEPReq     usbd_ctlreq.o
    0x0800915c   0x00000052   Code   RO         5354    i.USBD_StdItfReq    usbd_ctlreq.o
    0x080091ae   0x0000029c   Code   RO         4635    i.USB_ActivateEndpoint  stm32g4xx_ll_usb.o
    0x0800944a   0x0000010e   Code   RO         4639    i.USB_DeactivateEndpoint  stm32g4xx_ll_usb.o
    0x08009558   0x0000000e   Code   RO         4640    i.USB_DevConnect    stm32g4xx_ll_usb.o
    0x08009566   0x00000012   Code   RO         4642    i.USB_DevInit       stm32g4xx_ll_usb.o
    0x08009578   0x00000010   Code   RO         4643    i.USB_DisableGlobalInt  stm32g4xx_ll_usb.o
    0x08009588   0x00000078   Code   RO         4644    i.USB_EPClearStall  stm32g4xx_ll_usb.o
    0x08009600   0x00000032   Code   RO         4645    i.USB_EPSetStall    stm32g4xx_ll_usb.o
    0x08009632   0x000004e2   Code   RO         4646    i.USB_EPStartXfer   stm32g4xx_ll_usb.o
    0x08009b14   0x00000012   Code   RO         4648    i.USB_EnableGlobalInt  stm32g4xx_ll_usb.o
    0x08009b26   0x00000002   PAD
    0x08009b28   0x0000000c   Code   RO          553    i.USB_LP_IRQHandler  stm32g4xx_it.o
    0x08009b34   0x00000006   Code   RO         4651    i.USB_ReadInterrupts  stm32g4xx_ll_usb.o
    0x08009b3a   0x00000028   Code   RO         4652    i.USB_ReadPMA       stm32g4xx_ll_usb.o
    0x08009b62   0x0000000c   Code   RO         4654    i.USB_SetDevAddress  stm32g4xx_ll_usb.o
    0x08009b6e   0x00000002   PAD
    0x08009b70   0x00000026   Code   RO         4656    i.USB_WritePMA      stm32g4xx_ll_usb.o
    0x08009b96   0x00000002   Code   RO          554    i.UsageFault_Handler  stm32g4xx_it.o
    0x08009b98   0x00000168   Code   RO         6563    i.VectorActionTime  foc_pwm.o
    0x08009d00   0x0000000e   Code   RO         6446    i._MecAngle_to_ElAngle  foc_math.o
    0x08009d0e   0x00000012   Code   RO         6507    i.__ARM_isinff      foc_pid.o
    0x08009d20   0x0000000c   Code   RO         6508    i.__ARM_isnanf      foc_pid.o
    0x08009d2c   0x00000020   Code   RO         2538    i.__NVIC_SetPriority  stm32g4xx_hal_cortex.o
    0x08009d4c   0x000000b0   Code   RO         7032    i.__hardfp_fmodf    m_wm.l(fmodf.o)
    0x08009dfc   0x00000010   Code   RO         7139    i.__mathlib_flt_invalid  m_wm.l(funder.o)
    0x08009e0c   0x0000000e   Code   RO         7006    i._is_digit         c_w.l(__printf_wp.o)
    0x08009e1a   0x00000002   Code   RO         4887    i._sys_exit         my_usart.o
    0x08009e1c   0x00000058   Code   RO         5639    i.cdc_vcp_data_rx   usbd_cdc_if.o
    0x08009e74   0x00000020   Code   RO         5640    i.cdc_vcp_data_tx   usbd_cdc_if.o
    0x08009e94   0x00000030   Code   RO         4826    i.delay_init        delay.o
    0x08009ec4   0x0000001a   Code   RO         4827    i.delay_ms          delay.o
    0x08009ede   0x00000002   PAD
    0x08009ee0   0x00000034   Code   RO         4828    i.delay_us          delay.o
    0x08009f14   0x00000018   Code   RO         4889    i.fputc             my_usart.o
    0x08009f2c   0x00000042   Code   RO           15    i.main              main.o
    0x08009f6e   0x00000002   PAD
    0x08009f70   0x00000024   Code   RO         4890    i.uart_init         my_usart.o
    0x08009f94   0x0000008c   Code   RO         7123    x$fpl$fnaninf       fz_wm.l(fnaninf.o)
    0x0800a020   0x0000000a   Code   RO         7320    x$fpl$fpinit        fz_wm.l(fpinit.o)
    0x0800a02a   0x00000002   PAD
    0x0800a02c   0x000000f4   Code   RO         7125    x$fpl$frem          fz_wm.l(frem_clz.o)
    0x0800a120   0x00000086   Code   RO         7028    x$fpl$llsfromf      fz_wm.l(ffixll.o)
    0x0800a1a6   0x00000000   Code   RO         7135    x$fpl$usenofp       fz_wm.l(usenofp.o)
    0x0800a1a6   0x00000018   Data   RO         3869    .constdata          stm32g4xx_hal_uart.o
    0x0800a1be   0x00000010   Data   RO         4235    .constdata          stm32g4xx_hal_uart_ex.o
    0x0800a1ce   0x00000010   Data   RO         4787    .constdata          system_stm32g4xx.o
    0x0800a1de   0x00000008   Data   RO         4788    .constdata          system_stm32g4xx.o
    0x0800a1e6   0x00000011   Data   RO         7014    .constdata          c_w.l(__printf_flags_ss_wp.o)
    0x0800a1f7   0x00000001   PAD
    0x0800a1f8   0x0000009f   Data   RO         6509    .conststring        foc_pid.o
    0x0800a297   0x00000001   PAD
    0x0800a298   0x00000804   Data   RO         6973    .rodata.sinTable_f32  arm_cortexM4lf_math.lib(arm_common_tables.o)
    0x0800aa9c   0x00000020   Data   RO         7369    Region$$Table       anon$$obj.o


    Execution Region RW_IRAM1 (Base: 0x20000000, Size: 0x00004aa8, Max: 0x00020000, ABSOLUTE, COMPRESSED[0x000001bc])

    Base Addr    Size         Type   Attr      Idx    E Section Name        Object

    0x20000000   0x00000004   Data   RW          259    .data               adc.o
    0x20000004   0x00000004   Data   RW          555    .data               stm32g4xx_it.o
    0x20000008   0x0000000c   Data   RW         1184    .data               stm32g4xx_hal.o
    0x20000014   0x00000004   Data   RW         4789    .data               system_stm32g4xx.o
    0x20000018   0x00000008   Data   RW         4829    .data               delay.o
    0x20000020   0x00000004   Data   RW         4892    .data               my_usart.o
    0x20000024   0x00000003   Data   RW         5145    .data               bsp_irq.o
    0x20000027   0x00000001   Data   RW         5355    .data               usbd_ctlreq.o
    0x20000028   0x000000d7   Data   RW         5495    .data               usbd_cdc.o
    0x200000ff   0x00000001   PAD
    0x20000100   0x00000038   Data   RW         5496    .data               usbd_cdc.o
    0x20000138   0x0000000c   Data   RW         5643    .data               usbd_cdc_if.o
    0x20000144   0x00000014   Data   RW         5644    .data               usbd_cdc_if.o
    0x20000158   0x00000001   Data   RW         5733    .data               usbd_conf.o
    0x20000159   0x00000003   PAD
    0x2000015c   0x0000001c   Data   RW         5898    .data               usbd_desc.o
    0x20000178   0x00000032   Data   RW         5899    .data               usbd_desc.o
    0x200001aa   0x00000002   PAD
    0x200001ac   0x00000054   Data   RW         5963    .data               debug.o
    0x20000200   0x000034b4   Data   RW         6173    .data               foc_app.o
    0x200036b4   0x00000264   Zero   RW          258    .bss                adc.o
    0x20003918   0x0000017c   Zero   RW          348    .bss                tim.o
    0x20003a94   0x00000094   Zero   RW          455    .bss                usart.o
    0x20003b28   0x000002dc   Zero   RW          497    .bss                usb.o
    0x20003e04   0x0000021c   Zero   RW         5494    .bss                usbd_cdc.o
    0x20004020   0x000002d0   Zero   RW         5588    .bss                usb_device.o
    0x200042f0   0x00000258   Zero   RW         5642    .bss                usbd_cdc_if.o
    0x20004548   0x00000100   Zero   RW         5897    .bss                usbd_desc.o
    0x20004648   0x00000060   Zero   RW         7192    .bss                c_w.l(libspace.o)
    0x200046a8   0x00000000   Zero   RW            2    HEAP                startup_stm32g473xx.o
    0x200046a8   0x00000400   Zero   RW            1    STACK               startup_stm32g473xx.o


==============================================================================

Image component sizes


      Code (inc. data)   RO Data    RW Data    ZI Data      Debug   Object Name

      1148         64          0          4        612       4297   adc.o
        64         16          0          0          0        559   bsp.o
       190         48          0          3          0       3199   bsp_irq.o
       188         66          0          0          0       1335   cc6920so.o
       224         14          0         84          0       1383   debug.o
       126          8          0          8          0       2637   delay.o
        92          4          0          0          0        930   dma.o
       392        122          0      13492          0       2129   foc_app.o
       260         72          0          0          0       1993   foc_current.o
       378         52          0          0          0       4608   foc_encoder.o
       608         34          0          0          0       5853   foc_filter.o
       936        126          0          0          0       4030   foc_hall.o
       602         18          0          0          0       5527   foc_hfi.o
       266         20          0          0          0       4249   foc_math.o
      1286         62          0          0          0       7620   foc_motor.o
       734         24        159          0          0       8334   foc_pid.o
       356         54          0          0          0      13356   foc_port.o
       618         48          0          0          0       4405   foc_pwm.o
       768         30          0          0          0       4431   foc_sensorless.o
       466         40          0          0          0       3577   foc_smo.o
       156          8          0          0          0       2326   foc_vf.o
       108          4          0          0          0       1031   gpio.o
       180          0          0          0          0     781029   main.o
        62         14          0          4          0       3689   my_usart.o
